{
  "_format": "hh-sol-artifact-1",
  "contractName": "RefundFactory",
  "sourceName": "contracts/RefundFactory.sol",
  "abi": [
    {
      "inputs": [
        {
          "internalType": "contract Registry",
          "name": "reg",
          "type": "address"
        }
      ],
      "stateMutability": "nonpayable",
      "type": "constructor"
    },
    {
      "inputs": [
        {
          "internalType": "string",
          "name": "name",
          "type": "string"
        },
        {
          "internalType": "address[]",
          "name": "approvers",
          "type": "address[]"
        },
        {
          "internalType": "address[]",
          "name": "members",
          "type": "address[]"
        }
      ],
      "name": "newRefundOrg",
      "outputs": [
        {
          "internalType": "contract Refund",
          "name": "r",
          "type": "address"
        }
      ],
      "stateMutability": "nonpayable",
      "type": "function"
    },
    {
      "inputs": [],
      "name": "registry",
      "outputs": [
        {
          "internalType": "contract Registry",
          "name": "",
          "type": "address"
        }
      ],
      "stateMutability": "view",
      "type": "function"
    }
  ],
  "bytecode": "0x608060405234801561001057600080fd5b506040516123a33803806123a383398101604081905261002f91610054565b600080546001600160a01b0319166001600160a01b0392909216919091179055610082565b600060208284031215610065578081fd5b81516001600160a01b038116811461007b578182fd5b9392505050565b612312806100916000396000f3fe608060405234801561001057600080fd5b50600436106100365760003560e01c80630740b1411461003b5780637b1039991461006a575b600080fd5b61004e610049366004610183565b61007d565b6040516001600160a01b03909116815260200160405180910390f35b60005461004e906001600160a01b031681565b60008484848460405161008f9061012c565b61009c949392919061028d565b604051809103906000f0801580156100b8573d6000803e3d6000fd5b50600054604051637915c06960e01b81529192506001600160a01b031690637915c069906100f0908a908a90869033906004016102bf565b600060405180830381600087803b15801561010a57600080fd5b505af115801561011e573d6000803e3d6000fd5b505050509695505050505050565b611fd68061030783390190565b60008083601f84011261014a578182fd5b50813567ffffffffffffffff811115610161578182fd5b6020830191508360208260051b850101111561017c57600080fd5b9250929050565b6000806000806000806060878903121561019b578182fd5b863567ffffffffffffffff808211156101b2578384fd5b818901915089601f8301126101c5578384fd5b8135818111156101d3578485fd5b8a60208285010111156101e4578485fd5b6020928301985096509088013590808211156101fe578384fd5b61020a8a838b01610139565b90965094506040890135915080821115610222578384fd5b5061022f89828a01610139565b979a9699509497509295939492505050565b81835260006020808501945082825b858110156102825781356001600160a01b03811680821461026f578586fd5b8852509582019590820190600101610250565b509495945050505050565b6040815260006102a1604083018688610241565b82810360208401526102b4818587610241565b979650505050505050565b6060815283606082015283856080830137600060808583018101919091526001600160a01b039384166020830152919092166040830152601f909201601f1916010191905056fe60806040523480156200001157600080fd5b5060405162001fd638038062001fd683398101604081905262000034916200028c565b600160009081555b8251811015620000b557620000a07f5ff1fb0ce9089603e6e193667ed17164e0360a6148f4a39fc194055588948a318483815181106200008c57634e487b7160e01b600052603260045260246000fd5b60200260200101516200012760201b60201c565b80620000ac81620002f3565b9150506200003c565b5060005b81518110156200011e57620001097fffa60083152bd11704a80cc8c7a409dad8aa74288b454a3ba0e94c0abc7cf1688383815181106200008c57634e487b7160e01b600052603260045260246000fd5b806200011581620002f3565b915050620000b9565b50505062000331565b62000133828262000137565b5050565b60008281526001602090815260408083206001600160a01b038516845290915290205460ff16620001335760008281526001602081815260408084206001600160a01b0386168086529252808420805460ff19169093179092559051339285917f2f8788117e7eff1d82e926ec794901d17c78024a50270940304540a733656f0d9190a45050565b80516001600160a01b0381168114620001d757600080fd5b919050565b600082601f830112620001ed578081fd5b815160206001600160401b03808311156200020c576200020c6200031b565b8260051b604051601f19603f830116810181811084821117156200023457620002346200031b565b6040528481528381019250868401828801850189101562000253578687fd5b8692505b8583101562000280576200026b81620001bf565b84529284019260019290920191840162000257565b50979650505050505050565b600080604083850312156200029f578182fd5b82516001600160401b0380821115620002b6578384fd5b620002c486838701620001dc565b93506020850151915080821115620002da578283fd5b50620002e985828601620001dc565b9150509250929050565b60006000198214156200031457634e487b7160e01b81526011600452602481fd5b5060010190565b634e487b7160e01b600052604160045260246000fd5b611c9580620003416000396000f3fe60806040526004361061012e5760003560e01c806370483623116100ab578063a217fddf1161006f578063a217fddf146104aa578063a230c524146104bf578063b3fc0971146104df578063b6290e76146104ff578063c58343ef14610515578063d547741f1461054257600080fd5b8063704836231461040b578063863e4d471461042b5780638813ce121461044157806391d1485414610456578063a10f469e1461047657600080fd5b80634245962b116100f25780634245962b1461035e578063441db7ec14610392578063479e1b32146103a85780635c76ca2d146103d55780636d218e48146103eb57600080fd5b806301ffc9a71461016f578063248a9ca3146101a45780632f2ff15d146101e357806336568abe146102055780634051ddac1461022557600080fd5b3661016a5760405134815233907f7a702e80a9c183a6ce9d6732991df2e914555ba35a364a70aed2433984e7544b9060200160405180910390a2005b600080fd5b34801561017b57600080fd5b5061018f61018a3660046117fe565b610562565b60405190151581526020015b60405180910390f35b3480156101b057600080fd5b506101d56101bf3660046117bb565b6000908152600160208190526040909120015490565b60405190815260200161019b565b3480156101ef57600080fd5b506102036101fe3660046117d3565b610599565b005b34801561021157600080fd5b506102036102203660046117d3565b6105c5565b34801561023157600080fd5b5060025460045460035460086020527fad67d757c34507f157cacfa2e3153e9f260a2244f30428821be7be64587ac55f547f6add646517a5b0f6793cd5891b7937d28a5b2981a5d88ebc7cd776088fea9041547f625b35f5e76f098dd7c3a05b10e2e5e78a4a01228d60c3b143426cdf36d26455547f9321edea6e3be4df59a344b401fab4f888b556fda1f954244cff9204bad624b8547f91238f30f286c9a1c6e901c4eda3b214c381c846e3dbe48df95c21488e8e1fdb5460066000527f13acf3fc7bed94759963f076d5d3443d88732026bffc8253bdf4a6e65f21ecc554600554604080519a8b5260208b0199909952978901969096526060880194909452608087019290925260a086015260c085015260e08401526101008301526101208201526101400161019b565b34801561036a57600080fd5b506101d57f5ff1fb0ce9089603e6e193667ed17164e0360a6148f4a39fc194055588948a3181565b34801561039e57600080fd5b506101d560035481565b3480156103b457600080fd5b506103c86103c33660046117a1565b610648565b60405161019b9190611a99565b3480156103e157600080fd5b506101d560055481565b3480156103f757600080fd5b5061018f6104063660046117a1565b61092e565b34801561041757600080fd5b506102036104263660046118d0565b61095a565b34801561043757600080fd5b506101d560045481565b34801561044d57600080fd5b506103c8610a3a565b34801561046257600080fd5b5061018f6104713660046117d3565b610cc0565b34801561048257600080fd5b506101d57fffa60083152bd11704a80cc8c7a409dad8aa74288b454a3ba0e94c0abc7cf16881565b3480156104b657600080fd5b506101d5600081565b3480156104cb57600080fd5b5061018f6104da3660046117a1565b610ceb565b3480156104eb57600080fd5b506102036104fa366004611826565b610d17565b34801561050b57600080fd5b506101d560025481565b34801561052157600080fd5b506105356105303660046117bb565b610ea9565b60405161019b9190611b0d565b34801561054e57600080fd5b5061020361055d3660046117d3565b611088565b60006001600160e01b03198216637965db0b60e01b148061059357506301ffc9a760e01b6001600160e01b03198316145b92915050565b600082815260016020819052604090912001546105b681336110af565b6105c08383611113565b505050565b6001600160a01b038116331461063a5760405162461bcd60e51b815260206004820152602f60248201527f416363657373436f6e74726f6c3a2063616e206f6e6c792072656e6f756e636560448201526e103937b632b9903337b91039b2b63360891b60648201526084015b60405180910390fd5b610644828261117e565b5050565b6001600160a01b0381166000908152600760205260409020546060908067ffffffffffffffff81111561068b57634e487b7160e01b600052604160045260246000fd5b6040519080825280602002602001820160405280156106c457816020015b6106b1611629565b8152602001906001900390816106a95790505b50915060005b81811015610927576001600160a01b0384166000908152600760205260408120805460069291908490811061070f57634e487b7160e01b600052603260045260246000fd5b60009182526020808320909101548352828101939093526040918201902081516101808101835281548152600182015493810193909352600281015491830191909152600381015460ff80821660608501526101008083048216151560808601526201000083048216151560a086015263010000008304909116151560c08501526001600160a01b03640100000000909204821660e08501526004830154821690840152600582015416610120830152600681018054610140840191906107d590611b9a565b80601f016020809104026020016040519081016040528092919081815260200182805461080190611b9a565b801561084e5780601f106108235761010080835404028352916020019161084e565b820191906000526020600020905b81548152906001019060200180831161083157829003601f168201915b5050505050815260200160078201805461086790611b9a565b80601f016020809104026020016040519081016040528092919081815260200182805461089390611b9a565b80156108e05780601f106108b5576101008083540402835291602001916108e0565b820191906000526020600020905b8154815290600101906020018083116108c357829003601f168201915b50505050508152505083828151811061090957634e487b7160e01b600052603260045260246000fd5b6020026020010181905250808061091f90611bd5565b9150506106ca565b5050919050565b60006105937f5ff1fb0ce9089603e6e193667ed17164e0360a6148f4a39fc194055588948a3183610cc0565b6040518060600160405280602e8152602001611c07602e913961099d7f5ff1fb0ce9089603e6e193667ed17164e0360a6148f4a39fc194055588948a3133610cc0565b81906109bc5760405162461bcd60e51b81526004016106319190611afa565b5060008381526006602052604090206109d4816111e5565b60038101805462ff00001916620100008515158102919091179182905560ff91041615610a1e5760048054906000610a0b83611bd5565b9190505550610a1981611280565b610a34565b60038054906000610a2e83611bd5565b91905055505b50505050565b606060025467ffffffffffffffff811115610a6557634e487b7160e01b600052604160045260246000fd5b604051908082528060200260200182016040528015610a9e57816020015b610a8b611629565b815260200190600190039081610a835790505b50905060005b600254811015610cbc5760008181526006602081815260409283902083516101808101855281548152600182015492810192909252600281015493820193909352600383015460ff80821660608401526101008083048216151560808501526201000083048216151560a085015263010000008304909116151560c08401526001600160a01b03640100000000909204821660e08401526004850154821690830152600584015416610120820152908201805491929161014084019190610b6a90611b9a565b80601f0160208091040260200160405190810160405280929190818152602001828054610b9690611b9a565b8015610be35780601f10610bb857610100808354040283529160200191610be3565b820191906000526020600020905b815481529060010190602001808311610bc657829003601f168201915b50505050508152602001600782018054610bfc90611b9a565b80601f0160208091040260200160405190810160405280929190818152602001828054610c2890611b9a565b8015610c755780601f10610c4a57610100808354040283529160200191610c75565b820191906000526020600020905b815481529060010190602001808311610c5857829003601f168201915b505050505081525050828281518110610c9e57634e487b7160e01b600052603260045260246000fd5b60200260200101819052508080610cb490611bd5565b915050610aa4565b5090565b60009182526001602090815260408084206001600160a01b0393909316845291905290205460ff1690565b60006105937fffa60083152bd11704a80cc8c7a409dad8aa74288b454a3ba0e94c0abc7cf16883610cc0565b6040518060600160405280602b8152602001611c35602b9139610d5a7fffa60083152bd11704a80cc8c7a409dad8aa74288b454a3ba0e94c0abc7cf16833610cc0565b8190610d795760405162461bcd60e51b81526004016106319190611afa565b506002805460009182610d8b83611bd5565b9091555060ff84166000908152600860205260408120805492935090610db083611bd5565b909155505060008181526006602081905260409091208281556001810187905560038101805460ff191660ff87161790556002810186905590610df69082018c8c6116ae565b50610e05600782018a8a6116ae565b50600381018054640100000000600160c01b0319166401000000006001600160a01b038a1602179055600481018054336001600160a01b03199091168117909155600081815260076020908152604080832080546001810182559084529282902090920185905590518881527f23a574744299f6d7840c73914637acbc1340419b257011bbf94e0f48e158e8ca910160405180910390a25050505050505050505050565b610eb1611629565b60008281526006602081815260409283902083516101808101855281548152600182015492810192909252600281015493820193909352600383015460ff80821660608401526101008083048216151560808501526201000083048216151560a085015263010000008304909116151560c08401526001600160a01b03640100000000909204821660e08401526004850154821690830152600584015416610120820152908201805491929161014084019190610f6d90611b9a565b80601f0160208091040260200160405190810160405280929190818152602001828054610f9990611b9a565b8015610fe65780601f10610fbb57610100808354040283529160200191610fe6565b820191906000526020600020905b815481529060010190602001808311610fc957829003601f168201915b50505050508152602001600782018054610fff90611b9a565b80601f016020809104026020016040519081016040528092919081815260200182805461102b90611b9a565b80156110785780601f1061104d57610100808354040283529160200191611078565b820191906000526020600020905b81548152906001019060200180831161105b57829003601f168201915b5050505050815250509050919050565b600082815260016020819052604090912001546110a581336110af565b6105c0838361117e565b6110b98282610cc0565b610644576110d1816001600160a01b03166014611440565b6110dc836020611440565b6040516020016110ed929190611a24565b60408051601f198184030181529082905262461bcd60e51b825261063191600401611afa565b61111d8282610cc0565b6106445760008281526001602081815260408084206001600160a01b0386168086529252808420805460ff19169093179092559051339285917f2f8788117e7eff1d82e926ec794901d17c78024a50270940304540a733656f0d9190a45050565b6111888282610cc0565b156106445760008281526001602090815260408083206001600160a01b0385168085529252808320805460ff1916905551339285917ff6391f5c32d9c69d2a47ea670b442974b53935d1edc7fd64eb21e047a839171b9190a45050565b6003810154610100900460ff1680611208575060038101546301000000900460ff165b1561126e5760405162461bcd60e51b815260206004820152603060248201527f5265696d62757273656d656e74207265717565737420686173206265656e207060448201526f726f63657373656420616c726561647960801b6064820152608401610631565b600301805461ff001916610100179055565b60038101546301000000900460ff16156112f05760405162461bcd60e51b815260206004820152602b60248201527f5265696d62757273656d656e74207265717565737420686173206265656e207060448201526a61696420616c726561647960a81b6064820152608401610631565b600381015462010000900460ff166113605760405162461bcd60e51b815260206004820152602d60248201527f5265696d62757273656d656e74207265717565737420686173206265656e206460448201526c656e69656420616c726561647960981b6064820152608401610631565b60038101805463ff00000019166301000000179055600580820180546001600160a01b03191633179055600182015481549091906000906113a2908490611b20565b9091555050600381015460018201546040519081526401000000009091046001600160a01b03169033907ffdb2bc0ebc2e58404f3ad5b20d3ec351f2b7b7bf6a21e18beaa7d296d2f01ba59060200160405180910390a3600381015460018201546040516401000000009092046001600160a01b0316916108fc82150291906000818181858888f19350505050158015610644573d6000803e3d6000fd5b6060600061144f836002611b38565b61145a906002611b20565b67ffffffffffffffff81111561148057634e487b7160e01b600052604160045260246000fd5b6040519080825280601f01601f1916602001820160405280156114aa576020820181803683370190505b509050600360fc1b816000815181106114d357634e487b7160e01b600052603260045260246000fd5b60200101906001600160f81b031916908160001a905350600f60fb1b8160018151811061151057634e487b7160e01b600052603260045260246000fd5b60200101906001600160f81b031916908160001a9053506000611534846002611b38565b61153f906001611b20565b90505b60018111156115d3576f181899199a1a9b1b9c1cb0b131b232b360811b85600f166010811061158157634e487b7160e01b600052603260045260246000fd5b1a60f81b8282815181106115a557634e487b7160e01b600052603260045260246000fd5b60200101906001600160f81b031916908160001a90535060049490941c936115cc81611b83565b9050611542565b5083156116225760405162461bcd60e51b815260206004820181905260248201527f537472696e67733a20686578206c656e67746820696e73756666696369656e746044820152606401610631565b9392505050565b604051806101800160405280600081526020016000815260200160008152602001600060ff16815260200160001515815260200160001515815260200160001515815260200160006001600160a01b0316815260200160006001600160a01b0316815260200160006001600160a01b0316815260200160608152602001606081525090565b8280546116ba90611b9a565b90600052602060002090601f0160209004810192826116dc5760008555611722565b82601f106116f55782800160ff19823516178555611722565b82800160010185558215611722579182015b82811115611722578235825591602001919060010190611707565b50610cbc9291505b80821115610cbc576000815560010161172a565b80356001600160a01b038116811461175557600080fd5b919050565b60008083601f84011261176b578182fd5b50813567ffffffffffffffff811115611782578182fd5b60208301915083602082850101111561179a57600080fd5b9250929050565b6000602082840312156117b2578081fd5b6116228261173e565b6000602082840312156117cc578081fd5b5035919050565b600080604083850312156117e5578081fd5b823591506117f56020840161173e565b90509250929050565b60006020828403121561180f578081fd5b81356001600160e01b031981168114611622578182fd5b60008060008060008060008060c0898b031215611841578384fd5b883567ffffffffffffffff80821115611858578586fd5b6118648c838d0161175a565b909a50985060208b013591508082111561187c578586fd5b506118898b828c0161175a565b909750955061189c905060408a0161173e565b9350606089013592506080890135915060a089013560ff811681146118bf578182fd5b809150509295985092959890939650565b600080604083850312156118e2578182fd5b82359150602083013580151581146118f8578182fd5b809150509250929050565b6000815180845261191b816020860160208601611b57565b601f01601f19169290920160200192915050565b60006101808251845260208301516020850152604083015160408501526060830151611960606086018260ff169052565b506080830151611974608086018215159052565b5060a083015161198860a086018215159052565b5060c083015161199c60c086018215159052565b5060e08301516119b760e08601826001600160a01b03169052565b50610100838101516001600160a01b038116868301525050610120838101516001600160a01b0381168683015250506101408084015182828701526119fe83870182611903565b925050506101608084015185830382870152611a1a8382611903565b9695505050505050565b7f416363657373436f6e74726f6c3a206163636f756e7420000000000000000000815260008351611a5c816017850160208801611b57565b7001034b99036b4b9b9b4b733903937b6329607d1b6017918401918201528351611a8d816028840160208801611b57565b01602801949350505050565b6000602080830181845280855180835260408601915060408160051b8701019250838701855b82811015611aed57603f19888603018452611adb85835161192f565b94509285019290850190600101611abf565b5092979650505050505050565b6020815260006116226020830184611903565b602081526000611622602083018461192f565b60008219821115611b3357611b33611bf0565b500190565b6000816000190483118215151615611b5257611b52611bf0565b500290565b60005b83811015611b72578181015183820152602001611b5a565b83811115610a345750506000910152565b600081611b9257611b92611bf0565b506000190190565b600181811c90821680611bae57607f821691505b60208210811415611bcf57634e487b7160e01b600052602260045260246000fd5b50919050565b6000600019821415611be957611be9611bf0565b5060010190565b634e487b7160e01b600052601160045260246000fdfe4f6e6c7920617070726f766572732061726520616c6c6f77656420746f2070726f636573732072657175657374734f6e6c79206d656d626572732061726520616c6c6f77656420746f20637265617465207265717565737473a264697066735822122016ff45d95ed4c1ba5b47745745340f2865408358b0662d5ab1ebf176a26afc5364736f6c63430008040033a264697066735822122030d7881cb9d6d49d80292feb89ca71ebe5ed675198422bc7667f422be5e39c6264736f6c63430008040033",
  "linkReferences": {},
  "deployedLinkReferences": {}
}