{
  "_format": "hh-sol-artifact-1",
  "contractName": "Registry",
  "sourceName": "contracts/Registry.sol",
  "abi": [
    {
      "anonymous": false,
      "inputs": [
        {
          "indexed": true,
          "internalType": "contract Refund",
          "name": "refund",
          "type": "address"
        },
        {
          "indexed": true,
          "internalType": "address",
          "name": "createdBy",
          "type": "address"
        },
        {
          "indexed": false,
          "internalType": "string",
          "name": "name",
          "type": "string"
        }
      ],
      "name": "NewRefundRegistered",
      "type": "event"
    },
    {
      "inputs": [
        {
          "internalType": "string",
          "name": "",
          "type": "string"
        }
      ],
      "name": "refundOrgs",
      "outputs": [
        {
          "internalType": "address",
          "name": "",
          "type": "address"
        }
      ],
      "stateMutability": "view",
      "type": "function"
    },
    {
      "inputs": [
        {
          "internalType": "string",
          "name": "name",
          "type": "string"
        },
        {
          "internalType": "contract Refund",
          "name": "refund",
          "type": "address"
        },
        {
          "internalType": "address",
          "name": "createdBy",
          "type": "address"
        }
      ],
      "name": "register",
      "outputs": [],
      "stateMutability": "nonpayable",
      "type": "function"
    }
  ],
  "bytecode": "0x608060405234801561001057600080fd5b5061037b806100206000396000f3fe608060405234801561001057600080fd5b50600436106100365760003560e01c80637915c0691461003b578063cd58bd6314610050575b600080fd5b61004e61004936600461019f565b6100a0565b005b61008461005e36600461022e565b80516020818301810180516000825292820191909301209152546001600160a01b031681565b6040516001600160a01b03909116815260200160405180910390f35b60006001600160a01b0316600085856040516100bd9291906102d8565b908152604051908190036020019020546001600160a01b03161461011d5760405162461bcd60e51b81526020600482015260136024820152724e616d6520616c726561647920696e2075736560681b604482015260640160405180910390fd5b81600085856040516101309291906102d8565b90815260405190819003602001812080546001600160a01b039384166001600160a01b0319909116179055828216918416907fabd399467257d415c47089d5eee65aa7bebc5018dfbb02a127019b6f87fc73fa9061019190889088906102e8565b60405180910390a350505050565b600080600080606085870312156101b4578384fd5b843567ffffffffffffffff808211156101cb578586fd5b818701915087601f8301126101de578586fd5b8135818111156101ec578687fd5b8860208285010111156101fd578687fd5b602092830196509450508501356102138161032d565b915060408501356102238161032d565b939692955090935050565b60006020828403121561023f578081fd5b813567ffffffffffffffff80821115610256578283fd5b818401915084601f830112610269578283fd5b81358181111561027b5761027b610317565b604051601f8201601f19908116603f011681019083821181831017156102a3576102a3610317565b816040528281528760208487010111156102bb578586fd5b826020860160208301379182016020019490945295945050505050565b8183823760009101908152919050565b60208152816020820152818360408301376000818301604090810191909152601f909201601f19160101919050565b634e487b7160e01b600052604160045260246000fd5b6001600160a01b038116811461034257600080fd5b5056fea2646970667358221220ebac28fa50c1d1aad8f61a14e1b0a7e695021cb7582482e67a832b5db39c662d64736f6c63430008040033",
  "linkReferences": {},
  "deployedLinkReferences": {}
}