{
  "address": "0xb066DD4f54DeC792f2DA8175AaBFA5634BA9E5E6",
  "abi": [
    {
      "inputs": [
        {
          "internalType": "contract Registry",
          "name": "reg",
          "type": "address"
        },
        {
          "internalType": "address",
          "name": "co2TokenAddress",
          "type": "address"
        }
      ],
      "stateMutability": "nonpayable",
      "type": "constructor"
    },
    {
      "inputs": [
        {
          "internalType": "string",
          "name": "name",
          "type": "string"
        },
        {
          "internalType": "address",
          "name": "stableCoin",
          "type": "address"
        },
        {
          "internalType": "address[]",
          "name": "approvers",
          "type": "address[]"
        },
        {
          "internalType": "address[]",
          "name": "members",
          "type": "address[]"
        }
      ],
      "name": "newExpenseOrg",
      "outputs": [
        {
          "internalType": "contract ExpenseDAO",
          "name": "r",
          "type": "address"
        }
      ],
      "stateMutability": "nonpayable",
      "type": "function"
    },
    {
      "inputs": [],
      "name": "registry",
      "outputs": [
        {
          "internalType": "contract Registry",
          "name": "",
          "type": "address"
        }
      ],
      "stateMutability": "view",
      "type": "function"
    }
  ],
  "transactionHash": "0x942a7b1b2fcb2ee6c615aefef09f021d065e745f618b0b48a0cec16d56472a67",
  "args": [
    "0x8D2e2B18211F102547FFA6D40Da4A757922e1723",
    "0xBf16Fc2DE060b710b400Fd61a18b5Ad662c834D1"
  ],
  "numDeployments": 7,
  "solcInputHash": "8e0228cfd5ec356df8a4c2c9da3b6fef",
  "bytecode": "0x608060405234801561001057600080fd5b50604051614f88380380614f88833981810160405281019061003291906100e4565b816000806101000a81548173ffffffffffffffffffffffffffffffffffffffff021916908373ffffffffffffffffffffffffffffffffffffffff16021790555080600160006101000a81548173ffffffffffffffffffffffffffffffffffffffff021916908373ffffffffffffffffffffffffffffffffffffffff1602179055505050610192565b6000815190506100c981610164565b92915050565b6000815190506100de8161017b565b92915050565b600080604083850312156100f757600080fd5b6000610105858286016100cf565b9250506020610116858286016100ba565b9150509250929050565b600061012b82610144565b9050919050565b600061013d82610120565b9050919050565b600073ffffffffffffffffffffffffffffffffffffffff82169050919050565b61016d81610120565b811461017857600080fd5b50565b61018481610132565b811461018f57600080fd5b50565b614de7806101a16000396000f3fe60806040523480156200001157600080fd5b50600436106200003a5760003560e01c80637b103999146200003f578063ca906db81462000061575b600080fd5b6200004962000097565b604051620000589190620004be565b60405180910390f35b6200007f600480360381019062000079919062000283565b620000bb565b6040516200008e9190620004a1565b60405180910390f35b60008054906101000a900473ffffffffffffffffffffffffffffffffffffffff1681565b600085600160009054906101000a900473ffffffffffffffffffffffffffffffffffffffff1686868686604051620000f390620001c4565b620001049695949392919062000442565b604051809103906000f08015801562000121573d6000803e3d6000fd5b50905060008054906101000a900473ffffffffffffffffffffffffffffffffffffffff1673ffffffffffffffffffffffffffffffffffffffff16637915c069898984336040518563ffffffff1660e01b8152600401620001859493929190620004db565b600060405180830381600087803b158015620001a057600080fd5b505af1158015620001b5573d6000803e3d6000fd5b50505050979650505050505050565b614780806200063283390190565b600081359050620001e38162000617565b92915050565b60008083601f840112620001fc57600080fd5b8235905067ffffffffffffffff8111156200021657600080fd5b6020830191508360208202830111156200022f57600080fd5b9250929050565b60008083601f8401126200024957600080fd5b8235905067ffffffffffffffff8111156200026357600080fd5b6020830191508360018202830111156200027c57600080fd5b9250929050565b60008060008060008060006080888a0312156200029f57600080fd5b600088013567ffffffffffffffff811115620002ba57600080fd5b620002c88a828b0162000236565b97509750506020620002dd8a828b01620001d2565b955050604088013567ffffffffffffffff811115620002fb57600080fd5b620003098a828b01620001e9565b9450945050606088013567ffffffffffffffff8111156200032957600080fd5b620003378a828b01620001e9565b925092505092959891949750929550565b600062000356838362000362565b60208301905092915050565b6200036d8162000573565b82525050565b6200037e8162000573565b82525050565b600062000392838562000538565b93506200039f8262000521565b8060005b85811015620003e057620003b882846200055a565b620003c4888262000348565b9750620003d1836200052b565b925050600181019050620003a3565b5085925050509392505050565b620003f881620005a7565b82525050565b6200040981620005cf565b82525050565b60006200041d838562000549565b93506200042c838584620005f7565b620004378362000606565b840190509392505050565b600060808201905062000459600083018962000373565b62000468602083018862000373565b81810360408301526200047d81868862000384565b905081810360608301526200049481848662000384565b9050979650505050505050565b6000602082019050620004b86000830184620003ed565b92915050565b6000602082019050620004d56000830184620003fe565b92915050565b60006060820190508181036000830152620004f88186886200040f565b9050620005096020830185620003ed565b62000518604083018462000373565b95945050505050565b6000819050919050565b6000602082019050919050565b600082825260208201905092915050565b600082825260208201905092915050565b60006200056b6020840184620001d2565b905092915050565b6000620005808262000587565b9050919050565b600073ffffffffffffffffffffffffffffffffffffffff82169050919050565b6000620005b482620005bb565b9050919050565b6000620005c88262000587565b9050919050565b6000620005dc82620005e3565b9050919050565b6000620005f08262000587565b9050919050565b82818337600083830152505050565b6000601f19601f8301169050919050565b620006228162000573565b81146200062e57600080fd5b5056fe60806040523480156200001157600080fd5b50604051620047803803806200478083398181016040528101906200003791906200059f565b600160008190555083600960006101000a81548173ffffffffffffffffffffffffffffffffffffffff021916908373ffffffffffffffffffffffffffffffffffffffff16021790555082600a60006101000a81548173ffffffffffffffffffffffffffffffffffffffff021916908373ffffffffffffffffffffffffffffffffffffffff16021790555060005b8251811015620001ad57620001417f5ff1fb0ce9089603e6e193667ed17164e0360a6148f4a39fc194055588948a318483815181106200012d577f4e487b7100000000000000000000000000000000000000000000000000000000600052603260045260246000fd5b60200260200101516200024f60201b60201c565b620001976000801b84838151811062000183577f4e487b7100000000000000000000000000000000000000000000000000000000600052603260045260246000fd5b60200260200101516200024f60201b60201c565b8080620001a49062000709565b915050620000c4565b5060005b815181101562000244576200022e7fffa60083152bd11704a80cc8c7a409dad8aa74288b454a3ba0e94c0abc7cf1688383815181106200021a577f4e487b7100000000000000000000000000000000000000000000000000000000600052603260045260246000fd5b60200260200101516200024f60201b60201c565b80806200023b9062000709565b915050620001b1565b5050505050620007e0565b6200026182826200026560201b60201c565b5050565b6200027c8282620002ad60201b62001f2e1760201c565b620002a881600260008581526020019081526020016000206200039e60201b6200200e1790919060201c565b505050565b620002bf8282620003d660201b60201c565b6200039a57600180600084815260200190815260200160002060000160008373ffffffffffffffffffffffffffffffffffffffff1673ffffffffffffffffffffffffffffffffffffffff16815260200190815260200160002060006101000a81548160ff0219169083151502179055506200033f6200044160201b60201c565b73ffffffffffffffffffffffffffffffffffffffff168173ffffffffffffffffffffffffffffffffffffffff16837f2f8788117e7eff1d82e926ec794901d17c78024a50270940304540a733656f0d60405160405180910390a45b5050565b6000620003ce836000018373ffffffffffffffffffffffffffffffffffffffff1660001b6200044960201b60201c565b905092915050565b60006001600084815260200190815260200160002060000160008373ffffffffffffffffffffffffffffffffffffffff1673ffffffffffffffffffffffffffffffffffffffff16815260200190815260200160002060009054906101000a900460ff16905092915050565b600033905090565b60006200045d8383620004c360201b60201c565b620004b8578260000182908060018154018082558091505060019003906000526020600020016000909190919091505582600001805490508360010160008481526020019081526020016000208190555060019050620004bd565b600090505b92915050565b600080836001016000848152602001908152602001600020541415905092915050565b6000620004fd620004f78462000666565b6200063d565b905080838252602082019050828560208602820111156200051d57600080fd5b60005b858110156200055157816200053688826200055b565b84526020840193506020830192505060018101905062000520565b5050509392505050565b6000815190506200056c81620007c6565b92915050565b600082601f8301126200058457600080fd5b815162000596848260208601620004e6565b91505092915050565b60008060008060808587031215620005b657600080fd5b6000620005c6878288016200055b565b9450506020620005d9878288016200055b565b935050604085015167ffffffffffffffff811115620005f757600080fd5b620006058782880162000572565b925050606085015167ffffffffffffffff8111156200062357600080fd5b620006318782880162000572565b91505092959194509250565b6000620006496200065c565b9050620006578282620006d3565b919050565b6000604051905090565b600067ffffffffffffffff82111562000684576200068362000786565b5b602082029050602081019050919050565b6000620006a282620006a9565b9050919050565b600073ffffffffffffffffffffffffffffffffffffffff82169050919050565b6000819050919050565b620006de82620007b5565b810181811067ffffffffffffffff821117156200070057620006ff62000786565b5b80604052505050565b60006200071682620006c9565b91507fffffffffffffffffffffffffffffffffffffffffffffffffffffffffffffffff8214156200074c576200074b62000757565b5b600182019050919050565b7f4e487b7100000000000000000000000000000000000000000000000000000000600052601160045260246000fd5b7f4e487b7100000000000000000000000000000000000000000000000000000000600052604160045260246000fd5b6000601f19601f8301169050919050565b620007d18162000695565b8114620007dd57600080fd5b50565b613f9080620007f06000396000f3fe6080604052600436106101855760003560e01c806391d14854116100d1578063c58343ef1161008a578063d02982cf11610064578063d02982cf146105fe578063d547741f14610629578063f9758e8e14610652578063fbc4c2a01461067b576101da565b8063c58343ef1461055b578063ca15c87314610598578063ca6d56dc146105d5576101da565b806391d1485414610447578063982aae46146104845780639eab5253146104af578063a10f469e146104da578063a217fddf14610505578063c066b94914610530576101da565b80634051ddac1161013e5780637048362311610118578063704836231461038b5780637d12ba50146103b45780638813ce12146103df5780639010d07c1461040a576101da565b80634051ddac146102ff5780634245962b146103355780636cb3e8ef14610360576101da565b806301ffc9a7146101df5780630b1ca49a1461021c578063238b47ec14610245578063248a9ca3146102705780632f2ff15d146102ad57806336568abe146102d6576101da565b366101da573373ffffffffffffffffffffffffffffffffffffffff167f7a702e80a9c183a6ce9d6732991df2e914555ba35a364a70aed2433984e7544b346040516101d091906137fb565b60405180910390a2005b600080fd5b3480156101eb57600080fd5b5061020660048036038101906102019190612f4e565b610692565b60405161021391906136e1565b60405180910390f35b34801561022857600080fd5b50610243600480360381019061023e9190612e5b565b61070c565b005b34801561025157600080fd5b5061025a6107dd565b60405161026791906136e1565b60405180910390f35b34801561027c57600080fd5b5061029760048036038101906102929190612ead565b61080e565b6040516102a491906136fc565b60405180910390f35b3480156102b957600080fd5b506102d460048036038101906102cf9190612ed6565b61082e565b005b3480156102e257600080fd5b506102fd60048036038101906102f89190612ed6565b61084f565b005b34801561030b57600080fd5b506103146108d2565b60405161032c9c9b9a99989796959493929190613816565b60405180910390f35b34801561034157600080fd5b5061034a6109ac565b60405161035791906136fc565b60405180910390f35b34801561036c57600080fd5b506103756109d0565b604051610382919061369d565b60405180910390f35b34801561039757600080fd5b506103b260048036038101906103ad9190613076565b610b30565b005b3480156103c057600080fd5b506103c9610c4e565b6040516103d691906136bf565b60405180910390f35b3480156103eb57600080fd5b506103f46110d6565b60405161040191906136bf565b60405180910390f35b34801561041657600080fd5b50610431600480360381019061042c9190612f12565b611499565b60405161043e9190613659565b60405180910390f35b34801561045357600080fd5b5061046e60048036038101906104699190612ed6565b6114c8565b60405161047b91906136e1565b60405180910390f35b34801561049057600080fd5b50610499611533565b6040516104a69190613659565b60405180910390f35b3480156104bb57600080fd5b506104c4611559565b6040516104d1919061369d565b60405180910390f35b3480156104e657600080fd5b506104ef6116b9565b6040516104fc91906136fc565b60405180910390f35b34801561051157600080fd5b5061051a6116dd565b60405161052791906136fc565b60405180910390f35b34801561053c57600080fd5b506105456116e4565b6040516105529190613659565b60405180910390f35b34801561056757600080fd5b50610582600480360381019061057d919061304d565b61170a565b60405161058f91906137d9565b60405180910390f35b3480156105a457600080fd5b506105bf60048036038101906105ba9190612ead565b6119f4565b6040516105cc91906137fb565b60405180910390f35b3480156105e157600080fd5b506105fc60048036038101906105f79190612e5b565b611a18565b005b34801561060a57600080fd5b50610613611acc565b60405161062091906136e1565b60405180910390f35b34801561063557600080fd5b50610650600480360381019061064b9190612ed6565b611afd565b005b34801561065e57600080fd5b5061067960048036038101906106749190612f77565b611b1e565b005b34801561068757600080fd5b50610690611df3565b005b60007f5a05180f000000000000000000000000000000000000000000000000000000007bffffffffffffffffffffffffffffffffffffffffffffffffffffffff1916827bffffffffffffffffffffffffffffffffffffffffffffffffffffffff1916148061070557506107048261203e565b5b9050919050565b6040518060400160405280602081526020017f4f6e6c7920617070726f7665722063616e2072656d6f7665206d656d6265727381525061076c7f5ff1fb0ce9089603e6e193667ed17164e0360a6148f4a39fc194055588948a31336114c8565b81906107ae576040517f08c379a00000000000000000000000000000000000000000000000000000000081526004016107a59190613717565b60405180910390fd5b506107d97fffa60083152bd11704a80cc8c7a409dad8aa74288b454a3ba0e94c0abc7cf168836120b8565b5050565b60006108097f5ff1fb0ce9089603e6e193667ed17164e0360a6148f4a39fc194055588948a31336114c8565b905090565b600060016000838152602001908152602001600020600101549050919050565b6108378261080e565b610840816120ec565b61084a8383612100565b505050565b610857612134565b73ffffffffffffffffffffffffffffffffffffffff168173ffffffffffffffffffffffffffffffffffffffff16146108c4576040517f08c379a00000000000000000000000000000000000000000000000000000000081526004016108bb906137b9565b60405180910390fd5b6108ce82826120b8565b5050565b6000806000806000806000806000806000806003549b506005549a506004549950600d6000600160ff168152602001908152602001600020549850600d6000600260ff168152602001908152602001600020549750600d6000600360ff168152602001908152602001600020549650600d6000600460ff168152602001908152602001600020549550600d6000600560ff168152602001908152602001600020549450600d6000600660ff168152602001908152602001600020549350600654925060085491506007549050909192939495969798999a9b565b7f5ff1fb0ce9089603e6e193667ed17164e0360a6148f4a39fc194055588948a3181565b606060006109fd7f5ff1fb0ce9089603e6e193667ed17164e0360a6148f4a39fc194055588948a316119f4565b90508067ffffffffffffffff811115610a3f577f4e487b7100000000000000000000000000000000000000000000000000000000600052604160045260246000fd5b604051908082528060200260200182016040528015610a6d5781602001602082028036833780820191505090505b50915060005b81811015610b2b57610aa57f5ff1fb0ce9089603e6e193667ed17164e0360a6148f4a39fc194055588948a3182611499565b838281518110610ade577f4e487b7100000000000000000000000000000000000000000000000000000000600052603260045260246000fd5b602002602001019073ffffffffffffffffffffffffffffffffffffffff16908173ffffffffffffffffffffffffffffffffffffffff16815250508080610b2390613bc0565b915050610a73565b505090565b6040518060600160405280602e8152602001613f02602e9139610b737f5ff1fb0ce9089603e6e193667ed17164e0360a6148f4a39fc194055588948a31336114c8565b8190610bb5576040517f08c379a0000000000000000000000000000000000000000000000000000000008152600401610bac9190613717565b60405180910390fd5b506000600b60008581526020019081526020016000209050610bd68161213c565b828160040160026101000a81548160ff0219169083151502179055508060040160029054906101000a900460ff1615610c2f5760056000815480929190610c1c90613bc0565b9190505550610c2a816121c7565b610c48565b60046000815480929190610c4290613bc0565b91905055505b50505050565b60606000600c60003373ffffffffffffffffffffffffffffffffffffffff1673ffffffffffffffffffffffffffffffffffffffff1681526020019081526020016000208054905090508067ffffffffffffffff811115610cd7577f4e487b7100000000000000000000000000000000000000000000000000000000600052604160045260246000fd5b604051908082528060200260200182016040528015610d1057816020015b610cfd612c28565b815260200190600190039081610cf55790505b50915060005b818110156110d157600b6000600c60003373ffffffffffffffffffffffffffffffffffffffff1673ffffffffffffffffffffffffffffffffffffffff1681526020019081526020016000208381548110610d99577f4e487b7100000000000000000000000000000000000000000000000000000000600052603260045260246000fd5b90600052602060002001548152602001908152602001600020604051806101a0016040529081600082015481526020016001820154815260200160028201548152602001600382015481526020016004820160009054906101000a900460ff1660ff1660ff1681526020016004820160019054906101000a900460ff161515151581526020016004820160029054906101000a900460ff161515151581526020016004820160039054906101000a900460ff161515151581526020016004820160049054906101000a900473ffffffffffffffffffffffffffffffffffffffff1673ffffffffffffffffffffffffffffffffffffffff1673ffffffffffffffffffffffffffffffffffffffff1681526020016005820160009054906101000a900473ffffffffffffffffffffffffffffffffffffffff1673ffffffffffffffffffffffffffffffffffffffff1673ffffffffffffffffffffffffffffffffffffffff1681526020016006820160009054906101000a900473ffffffffffffffffffffffffffffffffffffffff1673ffffffffffffffffffffffffffffffffffffffff1673ffffffffffffffffffffffffffffffffffffffff168152602001600782018054610f6690613b8e565b80601f0160208091040260200160405190810160405280929190818152602001828054610f9290613b8e565b8015610fdf5780601f10610fb457610100808354040283529160200191610fdf565b820191906000526020600020905b815481529060010190602001808311610fc257829003601f168201915b50505050508152602001600882018054610ff890613b8e565b80601f016020809104026020016040519081016040528092919081815260200182805461102490613b8e565b80156110715780601f1061104657610100808354040283529160200191611071565b820191906000526020600020905b81548152906001019060200180831161105457829003601f168201915b5050505050815250508382815181106110b3577f4e487b7100000000000000000000000000000000000000000000000000000000600052603260045260246000fd5b602002602001018190525080806110c990613bc0565b915050610d16565b505090565b606060035467ffffffffffffffff81111561111a577f4e487b7100000000000000000000000000000000000000000000000000000000600052604160045260246000fd5b60405190808252806020026020018201604052801561115357816020015b611140612c28565b8152602001906001900390816111385790505b50905060005b60035481101561149557600b6000828152602001908152602001600020604051806101a0016040529081600082015481526020016001820154815260200160028201548152602001600382015481526020016004820160009054906101000a900460ff1660ff1660ff1681526020016004820160019054906101000a900460ff161515151581526020016004820160029054906101000a900460ff161515151581526020016004820160039054906101000a900460ff161515151581526020016004820160049054906101000a900473ffffffffffffffffffffffffffffffffffffffff1673ffffffffffffffffffffffffffffffffffffffff1673ffffffffffffffffffffffffffffffffffffffff1681526020016005820160009054906101000a900473ffffffffffffffffffffffffffffffffffffffff1673ffffffffffffffffffffffffffffffffffffffff1673ffffffffffffffffffffffffffffffffffffffff1681526020016006820160009054906101000a900473ffffffffffffffffffffffffffffffffffffffff1673ffffffffffffffffffffffffffffffffffffffff1673ffffffffffffffffffffffffffffffffffffffff16815260200160078201805461132a90613b8e565b80601f016020809104026020016040519081016040528092919081815260200182805461135690613b8e565b80156113a35780601f10611378576101008083540402835291602001916113a3565b820191906000526020600020905b81548152906001019060200180831161138657829003601f168201915b505050505081526020016008820180546113bc90613b8e565b80601f01602080910402602001604051908101604052809291908181526020018280546113e890613b8e565b80156114355780601f1061140a57610100808354040283529160200191611435565b820191906000526020600020905b81548152906001019060200180831161141857829003601f168201915b505050505081525050828281518110611477577f4e487b7100000000000000000000000000000000000000000000000000000000600052603260045260246000fd5b6020026020010181905250808061148d90613bc0565b915050611159565b5090565b60006114c0826002600086815260200190815260200160002061245d90919063ffffffff16565b905092915050565b60006001600084815260200190815260200160002060000160008373ffffffffffffffffffffffffffffffffffffffff1673ffffffffffffffffffffffffffffffffffffffff16815260200190815260200160002060009054906101000a900460ff16905092915050565b600960009054906101000a900473ffffffffffffffffffffffffffffffffffffffff1681565b606060006115867fffa60083152bd11704a80cc8c7a409dad8aa74288b454a3ba0e94c0abc7cf1686119f4565b90508067ffffffffffffffff8111156115c8577f4e487b7100000000000000000000000000000000000000000000000000000000600052604160045260246000fd5b6040519080825280602002602001820160405280156115f65781602001602082028036833780820191505090505b50915060005b818110156116b45761162e7fffa60083152bd11704a80cc8c7a409dad8aa74288b454a3ba0e94c0abc7cf16882611499565b838281518110611667577f4e487b7100000000000000000000000000000000000000000000000000000000600052603260045260246000fd5b602002602001019073ffffffffffffffffffffffffffffffffffffffff16908173ffffffffffffffffffffffffffffffffffffffff168152505080806116ac90613bc0565b9150506115fc565b505090565b7fffa60083152bd11704a80cc8c7a409dad8aa74288b454a3ba0e94c0abc7cf16881565b6000801b81565b600a60009054906101000a900473ffffffffffffffffffffffffffffffffffffffff1681565b611712612c28565b600b6000838152602001908152602001600020604051806101a0016040529081600082015481526020016001820154815260200160028201548152602001600382015481526020016004820160009054906101000a900460ff1660ff1660ff1681526020016004820160019054906101000a900460ff161515151581526020016004820160029054906101000a900460ff161515151581526020016004820160039054906101000a900460ff161515151581526020016004820160049054906101000a900473ffffffffffffffffffffffffffffffffffffffff1673ffffffffffffffffffffffffffffffffffffffff1673ffffffffffffffffffffffffffffffffffffffff1681526020016005820160009054906101000a900473ffffffffffffffffffffffffffffffffffffffff1673ffffffffffffffffffffffffffffffffffffffff1673ffffffffffffffffffffffffffffffffffffffff1681526020016006820160009054906101000a900473ffffffffffffffffffffffffffffffffffffffff1673ffffffffffffffffffffffffffffffffffffffff1673ffffffffffffffffffffffffffffffffffffffff1681526020016007820180546118d990613b8e565b80601f016020809104026020016040519081016040528092919081815260200182805461190590613b8e565b80156119525780601f1061192757610100808354040283529160200191611952565b820191906000526020600020905b81548152906001019060200180831161193557829003601f168201915b5050505050815260200160088201805461196b90613b8e565b80601f016020809104026020016040519081016040528092919081815260200182805461199790613b8e565b80156119e45780601f106119b9576101008083540402835291602001916119e4565b820191906000526020600020905b8154815290600101906020018083116119c757829003601f168201915b5050505050815250509050919050565b6000611a1160026000848152602001908152602001600020612477565b9050919050565b604051806060016040528060218152602001613eba60219139611a5b7f5ff1fb0ce9089603e6e193667ed17164e0360a6148f4a39fc194055588948a31336114c8565b8190611a9d576040517f08c379a0000000000000000000000000000000000000000000000000000000008152600401611a949190613717565b60405180910390fd5b50611ac87fffa60083152bd11704a80cc8c7a409dad8aa74288b454a3ba0e94c0abc7cf1688361248c565b5050565b6000611af87fffa60083152bd11704a80cc8c7a409dad8aa74288b454a3ba0e94c0abc7cf168336114c8565b905090565b611b068261080e565b611b0f816120ec565b611b1983836120b8565b505050565b6040518060600160405280602b8152602001613f30602b9139611b617fffa60083152bd11704a80cc8c7a409dad8aa74288b454a3ba0e94c0abc7cf168336114c8565b8190611ba3576040517f08c379a0000000000000000000000000000000000000000000000000000000008152600401611b9a9190613717565b60405180910390fd5b50600060036000815480929190611bb990613bc0565b919050559050600d60008460ff1660ff1681526020019081526020016000206000815480929190611be990613bc0565b91905055508360086000828254611c00919061397a565b925050819055506000600b60008381526020019081526020016000209050818160000181905550868160010181905550838160040160006101000a81548160ff021916908360ff1602179055508481600301819055508581600201819055508b8b826007019190611c72929190612cdb565b508989826008019190611c86929190612cdb565b50878160040160046101000a81548173ffffffffffffffffffffffffffffffffffffffff021916908373ffffffffffffffffffffffffffffffffffffffff160217905550338160050160006101000a81548173ffffffffffffffffffffffffffffffffffffffff021916908373ffffffffffffffffffffffffffffffffffffffff160217905550600c60008260050160009054906101000a900473ffffffffffffffffffffffffffffffffffffffff1673ffffffffffffffffffffffffffffffffffffffff1673ffffffffffffffffffffffffffffffffffffffff1681526020019081526020016000208290806001815401808255809150506001900390600052602060002001600090919091909150553373ffffffffffffffffffffffffffffffffffffffff167f23a574744299f6d7840c73914637acbc1340419b257011bbf94e0f48e158e8ca88604051611ddd91906137fb565b60405180910390a2505050505050505050505050565b604051806060016040528060278152602001613edb60279139611e367f5ff1fb0ce9089603e6e193667ed17164e0360a6148f4a39fc194055588948a31336114c8565b8190611e78576040517f08c379a0000000000000000000000000000000000000000000000000000000008152600401611e6f9190613717565b60405180910390fd5b50600a60009054906101000a900473ffffffffffffffffffffffffffffffffffffffff1673ffffffffffffffffffffffffffffffffffffffff166342966c686008546040518263ffffffff1660e01b8152600401611ed691906137fb565b600060405180830381600087803b158015611ef057600080fd5b505af1158015611f04573d6000803e3d6000fd5b5050505060085460076000828254611f1c919061397a565b92505081905550600060088190555050565b611f3882826114c8565b61200a57600180600084815260200190815260200160002060000160008373ffffffffffffffffffffffffffffffffffffffff1673ffffffffffffffffffffffffffffffffffffffff16815260200190815260200160002060006101000a81548160ff021916908315150217905550611faf612134565b73ffffffffffffffffffffffffffffffffffffffff168173ffffffffffffffffffffffffffffffffffffffff16837f2f8788117e7eff1d82e926ec794901d17c78024a50270940304540a733656f0d60405160405180910390a45b5050565b6000612036836000018373ffffffffffffffffffffffffffffffffffffffff1660001b61249a565b905092915050565b60007f7965db0b000000000000000000000000000000000000000000000000000000007bffffffffffffffffffffffffffffffffffffffffffffffffffffffff1916827bffffffffffffffffffffffffffffffffffffffffffffffffffffffff191614806120b157506120b08261250a565b5b9050919050565b6120c28282612574565b6120e7816002600085815260200190815260200160002061265690919063ffffffff16565b505050565b6120fd816120f8612134565b612686565b50565b61210a8282611f2e565b61212f816002600085815260200190815260200160002061200e90919063ffffffff16565b505050565b600033905090565b8060040160019054906101000a900460ff168061216757508060040160039054906101000a900460ff165b156121a7576040517f08c379a000000000000000000000000000000000000000000000000000000000815260040161219e90613799565b60405180910390fd5b60018160040160016101000a81548160ff02191690831515021790555050565b8060040160039054906101000a900460ff1615612219576040517f08c379a000000000000000000000000000000000000000000000000000000000815260040161221090613779565b60405180910390fd5b8060040160029054906101000a900460ff1661226a576040517f08c379a000000000000000000000000000000000000000000000000000000000815260040161226190613739565b60405180910390fd5b60018160040160036101000a81548160ff021916908315150217905550338160060160006101000a81548173ffffffffffffffffffffffffffffffffffffffff021916908373ffffffffffffffffffffffffffffffffffffffff1602179055508060010154600660008282546122e0919061397a565b925050819055508060040160049054906101000a900473ffffffffffffffffffffffffffffffffffffffff1673ffffffffffffffffffffffffffffffffffffffff163373ffffffffffffffffffffffffffffffffffffffff167ffdb2bc0ebc2e58404f3ad5b20d3ec351f2b7b7bf6a21e18beaa7d296d2f01ba5836001015460405161236c91906137fb565b60405180910390a36000600960009054906101000a900473ffffffffffffffffffffffffffffffffffffffff1673ffffffffffffffffffffffffffffffffffffffff1663a9059cbb8360040160049054906101000a900473ffffffffffffffffffffffffffffffffffffffff1684600101546040518363ffffffff1660e01b81526004016123fb929190613674565b602060405180830381600087803b15801561241557600080fd5b505af1158015612429573d6000803e3d6000fd5b505050506040513d601f19601f8201168201806040525081019061244d9190612e84565b90508061245957600080fd5b5050565b600061246c8360000183612723565b60001c905092915050565b600061248582600001612774565b9050919050565b6124968282612100565b5050565b60006124a68383612785565b6124ff578260000182908060018154018082558091505060019003906000526020600020016000909190919091505582600001805490508360010160008481526020019081526020016000208190555060019050612504565b600090505b92915050565b60007f01ffc9a7000000000000000000000000000000000000000000000000000000007bffffffffffffffffffffffffffffffffffffffffffffffffffffffff1916827bffffffffffffffffffffffffffffffffffffffffffffffffffffffff1916149050919050565b61257e82826114c8565b156126525760006001600084815260200190815260200160002060000160008373ffffffffffffffffffffffffffffffffffffffff1673ffffffffffffffffffffffffffffffffffffffff16815260200190815260200160002060006101000a81548160ff0219169083151502179055506125f7612134565b73ffffffffffffffffffffffffffffffffffffffff168173ffffffffffffffffffffffffffffffffffffffff16837ff6391f5c32d9c69d2a47ea670b442974b53935d1edc7fd64eb21e047a839171b60405160405180910390a45b5050565b600061267e836000018373ffffffffffffffffffffffffffffffffffffffff1660001b6127a8565b905092915050565b61269082826114c8565b61271f576126b58173ffffffffffffffffffffffffffffffffffffffff16601461292e565b6126c38360001c602061292e565b6040516020016126d492919061361f565b6040516020818303038152906040526040517f08c379a00000000000000000000000000000000000000000000000000000000081526004016127169190613717565b60405180910390fd5b5050565b6000826000018281548110612761577f4e487b7100000000000000000000000000000000000000000000000000000000600052603260045260246000fd5b9060005260206000200154905092915050565b600081600001805490509050919050565b600080836001016000848152602001908152602001600020541415905092915050565b600080836001016000848152602001908152602001600020549050600081146129225760006001826127da9190613a2a565b90506000600186600001805490506127f29190613a2a565b90508181146128ad576000866000018281548110612839577f4e487b7100000000000000000000000000000000000000000000000000000000600052603260045260246000fd5b9060005260206000200154905080876000018481548110612883577f4e487b7100000000000000000000000000000000000000000000000000000000600052603260045260246000fd5b90600052602060002001819055508387600101600083815260200190815260200160002081905550505b856000018054806128e7577f4e487b7100000000000000000000000000000000000000000000000000000000600052603160045260246000fd5b600190038181906000526020600020016000905590558560010160008681526020019081526020016000206000905560019350505050612928565b60009150505b92915050565b60606000600283600261294191906139d0565b61294b919061397a565b67ffffffffffffffff81111561298a577f4e487b7100000000000000000000000000000000000000000000000000000000600052604160045260246000fd5b6040519080825280601f01601f1916602001820160405280156129bc5781602001600182028036833780820191505090505b5090507f300000000000000000000000000000000000000000000000000000000000000081600081518110612a1a577f4e487b7100000000000000000000000000000000000000000000000000000000600052603260045260246000fd5b60200101907effffffffffffffffffffffffffffffffffffffffffffffffffffffffffffff1916908160001a9053507f780000000000000000000000000000000000000000000000000000000000000081600181518110612aa4577f4e487b7100000000000000000000000000000000000000000000000000000000600052603260045260246000fd5b60200101907effffffffffffffffffffffffffffffffffffffffffffffffffffffffffffff1916908160001a90535060006001846002612ae491906139d0565b612aee919061397a565b90505b6001811115612bda577f3031323334353637383961626364656600000000000000000000000000000000600f861660108110612b56577f4e487b7100000000000000000000000000000000000000000000000000000000600052603260045260246000fd5b1a60f81b828281518110612b93577f4e487b7100000000000000000000000000000000000000000000000000000000600052603260045260246000fd5b60200101907effffffffffffffffffffffffffffffffffffffffffffffffffffffffffffff1916908160001a905350600485901c945080612bd390613b64565b9050612af1565b5060008414612c1e576040517f08c379a0000000000000000000000000000000000000000000000000000000008152600401612c1590613759565b60405180910390fd5b8091505092915050565b604051806101a0016040528060008152602001600081526020016000815260200160008152602001600060ff168152602001600015158152602001600015158152602001600015158152602001600073ffffffffffffffffffffffffffffffffffffffff168152602001600073ffffffffffffffffffffffffffffffffffffffff168152602001600073ffffffffffffffffffffffffffffffffffffffff16815260200160608152602001606081525090565b828054612ce790613b8e565b90600052602060002090601f016020900481019282612d095760008555612d50565b82601f10612d2257803560ff1916838001178555612d50565b82800160010185558215612d50579182015b82811115612d4f578235825591602001919060010190612d34565b5b509050612d5d9190612d61565b5090565b5b80821115612d7a576000816000905550600101612d62565b5090565b600081359050612d8d81613e2f565b92915050565b600081359050612da281613e46565b92915050565b600081519050612db781613e46565b92915050565b600081359050612dcc81613e5d565b92915050565b600081359050612de181613e74565b92915050565b60008083601f840112612df957600080fd5b8235905067ffffffffffffffff811115612e1257600080fd5b602083019150836001820283011115612e2a57600080fd5b9250929050565b600081359050612e4081613e8b565b92915050565b600081359050612e5581613ea2565b92915050565b600060208284031215612e6d57600080fd5b6000612e7b84828501612d7e565b91505092915050565b600060208284031215612e9657600080fd5b6000612ea484828501612da8565b91505092915050565b600060208284031215612ebf57600080fd5b6000612ecd84828501612dbd565b91505092915050565b60008060408385031215612ee957600080fd5b6000612ef785828601612dbd565b9250506020612f0885828601612d7e565b9150509250929050565b60008060408385031215612f2557600080fd5b6000612f3385828601612dbd565b9250506020612f4485828601612e31565b9150509250929050565b600060208284031215612f6057600080fd5b6000612f6e84828501612dd2565b91505092915050565b600080600080600080600080600060e08a8c031215612f9557600080fd5b60008a013567ffffffffffffffff811115612faf57600080fd5b612fbb8c828d01612de7565b995099505060208a013567ffffffffffffffff811115612fda57600080fd5b612fe68c828d01612de7565b97509750506040612ff98c828d01612d7e565b955050606061300a8c828d01612e31565b945050608061301b8c828d01612e31565b93505060a061302c8c828d01612e31565b92505060c061303d8c828d01612e46565b9150509295985092959850929598565b60006020828403121561305f57600080fd5b600061306d84828501612e31565b91505092915050565b6000806040838503121561308957600080fd5b600061309785828601612e31565b92505060206130a885828601612d93565b9150509250929050565b60006130be83836130fc565b60208301905092915050565b60006130d683836133b2565b905092915050565b6130e781613afb565b82525050565b6130f681613a70565b82525050565b61310581613a5e565b82525050565b61311481613a5e565b82525050565b6000613125826138f0565b61312f818561392b565b935061313a836138d0565b8060005b8381101561316b57815161315288826130b2565b975061315d83613911565b92505060018101905061313e565b5085935050505092915050565b6000613183826138fb565b61318d818561393c565b93508360208202850161319f856138e0565b8060005b858110156131db57848403895281516131bc85826130ca565b94506131c78361391e565b925060208a019950506001810190506131a3565b50829750879550505050505092915050565b6131f681613a82565b82525050565b61320581613a82565b82525050565b61321481613a8e565b82525050565b600061322582613906565b61322f818561394d565b935061323f818560208601613b31565b61324881613c67565b840191505092915050565b600061325e82613906565b613268818561395e565b9350613278818560208601613b31565b61328181613c67565b840191505092915050565b600061329782613906565b6132a1818561396f565b93506132b1818560208601613b31565b80840191505092915050565b60006132ca602d8361395e565b91506132d582613c78565b604082019050919050565b60006132ed60208361395e565b91506132f882613cc7565b602082019050919050565b6000613310602b8361395e565b915061331b82613cf0565b604082019050919050565b600061333360308361395e565b915061333e82613d3f565b604082019050919050565b600061335660178361396f565b915061336182613d8e565b601782019050919050565b600061337960118361396f565b915061338482613db7565b601182019050919050565b600061339c602f8361395e565b91506133a782613de0565b604082019050919050565b60006101a0830160008301516133cb60008601826135f2565b5060208301516133de60208601826135f2565b5060408301516133f160408601826135f2565b50606083015161340460608601826135f2565b5060808301516134176080860182613610565b5060a083015161342a60a08601826131ed565b5060c083015161343d60c08601826131ed565b5060e083015161345060e08601826131ed565b506101008301516134656101008601826130ed565b5061012083015161347a6101208601826130fc565b5061014083015161348f6101408601826130fc565b506101608301518482036101608601526134a9828261321a565b9150506101808301518482036101808601526134c5828261321a565b9150508091505092915050565b60006101a0830160008301516134eb60008601826135f2565b5060208301516134fe60208601826135f2565b50604083015161351160408601826135f2565b50606083015161352460608601826135f2565b5060808301516135376080860182613610565b5060a083015161354a60a08601826131ed565b5060c083015161355d60c08601826131ed565b5060e083015161357060e08601826131ed565b506101008301516135856101008601826130ed565b5061012083015161359a6101208601826130fc565b506101408301516135af6101408601826130fc565b506101608301518482036101608601526135c9828261321a565b9150506101808301518482036101808601526135e5828261321a565b9150508091505092915050565b6135fb81613ae4565b82525050565b61360a81613ae4565b82525050565b61361981613aee565b82525050565b600061362a82613349565b9150613636828561328c565b91506136418261336c565b915061364d828461328c565b91508190509392505050565b600060208201905061366e600083018461310b565b92915050565b600060408201905061368960008301856130de565b6136966020830184613601565b9392505050565b600060208201905081810360008301526136b7818461311a565b905092915050565b600060208201905081810360008301526136d98184613178565b905092915050565b60006020820190506136f660008301846131fc565b92915050565b6000602082019050613711600083018461320b565b92915050565b600060208201905081810360008301526137318184613253565b905092915050565b60006020820190508181036000830152613752816132bd565b9050919050565b60006020820190508181036000830152613772816132e0565b9050919050565b6000602082019050818103600083015261379281613303565b9050919050565b600060208201905081810360008301526137b281613326565b9050919050565b600060208201905081810360008301526137d28161338f565b9050919050565b600060208201905081810360008301526137f381846134d2565b905092915050565b60006020820190506138106000830184613601565b92915050565b60006101808201905061382c600083018f613601565b613839602083018e613601565b613846604083018d613601565b613853606083018c613601565b613860608083018b613601565b61386d60a083018a613601565b61387a60c0830189613601565b61388760e0830188613601565b613895610100830187613601565b6138a3610120830186613601565b6138b1610140830185613601565b6138bf610160830184613601565b9d9c50505050505050505050505050565b6000819050602082019050919050565b6000819050602082019050919050565b600081519050919050565b600081519050919050565b600081519050919050565b6000602082019050919050565b6000602082019050919050565b600082825260208201905092915050565b600082825260208201905092915050565b600082825260208201905092915050565b600082825260208201905092915050565b600081905092915050565b600061398582613ae4565b915061399083613ae4565b9250827fffffffffffffffffffffffffffffffffffffffffffffffffffffffffffffffff038211156139c5576139c4613c09565b5b828201905092915050565b60006139db82613ae4565b91506139e683613ae4565b9250817fffffffffffffffffffffffffffffffffffffffffffffffffffffffffffffffff0483118215151615613a1f57613a1e613c09565b5b828202905092915050565b6000613a3582613ae4565b9150613a4083613ae4565b925082821015613a5357613a52613c09565b5b828203905092915050565b6000613a6982613ac4565b9050919050565b6000613a7b82613ac4565b9050919050565b60008115159050919050565b6000819050919050565b60007fffffffff0000000000000000000000000000000000000000000000000000000082169050919050565b600073ffffffffffffffffffffffffffffffffffffffff82169050919050565b6000819050919050565b600060ff82169050919050565b6000613b0682613b0d565b9050919050565b6000613b1882613b1f565b9050919050565b6000613b2a82613ac4565b9050919050565b60005b83811015613b4f578082015181840152602081019050613b34565b83811115613b5e576000848401525b50505050565b6000613b6f82613ae4565b91506000821415613b8357613b82613c09565b5b600182039050919050565b60006002820490506001821680613ba657607f821691505b60208210811415613bba57613bb9613c38565b5b50919050565b6000613bcb82613ae4565b91507fffffffffffffffffffffffffffffffffffffffffffffffffffffffffffffffff821415613bfe57613bfd613c09565b5b600182019050919050565b7f4e487b7100000000000000000000000000000000000000000000000000000000600052601160045260246000fd5b7f4e487b7100000000000000000000000000000000000000000000000000000000600052602260045260246000fd5b6000601f19601f8301169050919050565b7f5265696d62757273656d656e74207265717565737420686173206265656e206460008201527f656e69656420616c726561647900000000000000000000000000000000000000602082015250565b7f537472696e67733a20686578206c656e67746820696e73756666696369656e74600082015250565b7f5265696d62757273656d656e74207265717565737420686173206265656e207060008201527f61696420616c7265616479000000000000000000000000000000000000000000602082015250565b7f5265696d62757273656d656e74207265717565737420686173206265656e207060008201527f726f63657373656420616c726561647900000000000000000000000000000000602082015250565b7f416363657373436f6e74726f6c3a206163636f756e7420000000000000000000600082015250565b7f206973206d697373696e6720726f6c6520000000000000000000000000000000600082015250565b7f416363657373436f6e74726f6c3a2063616e206f6e6c792072656e6f756e636560008201527f20726f6c657320666f722073656c660000000000000000000000000000000000602082015250565b613e3881613a5e565b8114613e4357600080fd5b50565b613e4f81613a82565b8114613e5a57600080fd5b50565b613e6681613a8e565b8114613e7157600080fd5b50565b613e7d81613a98565b8114613e8857600080fd5b50565b613e9481613ae4565b8114613e9f57600080fd5b50565b613eab81613aee565b8114613eb657600080fd5b5056fe4f6e6c7920617070726f7665722063616e20616464206e6577206d656d626572734f6e6c7920617070726f7665722063616e206f666673657420636172626f6e20637265646974734f6e6c7920617070726f766572732061726520616c6c6f77656420746f2070726f636573732072657175657374734f6e6c79206d656d626572732061726520616c6c6f77656420746f20637265617465207265717565737473a264697066735822122012c0ab26f86fe195a9fcf21466ee87f4fcce63e5b255de8b0d6c9ca5531c3b8c64736f6c63430008040033a2646970667358221220f1cc7bff1463fca8542d982b317b410a93c0b70d9e317b904ffe0737fbb93be664736f6c63430008040033",
  "devdoc": {
    "kind": "dev",
    "methods": {},
    "version": 1
  },
  "userdoc": {
    "kind": "user",
    "methods": {},
    "version": 1
  },
  "storageLayout": {
    "storage": [
      {
        "astId": 2329,
        "contract": "contracts/ExpenseDAOFactory.sol:ExpenseDAOFactory",
        "label": "registry",
        "offset": 0,
        "slot": "0",
        "type": "t_contract(Registry)2462"
      },
      {
        "astId": 2331,
        "contract": "contracts/ExpenseDAOFactory.sol:ExpenseDAOFactory",
        "label": "co2Token",
        "offset": 0,
        "slot": "1",
        "type": "t_address"
      }
    ],
    "types": {
      "t_address": {
        "encoding": "inplace",
        "label": "address",
        "numberOfBytes": "20"
      },
      "t_contract(Registry)2462": {
        "encoding": "inplace",
        "label": "contract Registry",
        "numberOfBytes": "20"
      }
    }
  }
}