{
  "_format": "hh-sol-artifact-1",
  "contractName": "ExpenseDAO",
  "sourceName": "contracts/ExpenseDAO.sol",
  "abi": [
    {
      "inputs": [
        {
          "internalType": "address",
          "name": "stableToken",
          "type": "address"
        },
        {
          "internalType": "address[]",
          "name": "approvers",
          "type": "address[]"
        },
        {
          "internalType": "address[]",
          "name": "members",
          "type": "address[]"
        }
      ],
      "stateMutability": "nonpayable",
      "type": "constructor"
    },
    {
      "anonymous": false,
      "inputs": [
        {
          "indexed": true,
          "internalType": "address",
          "name": "fromAddress",
          "type": "address"
        },
        {
          "indexed": false,
          "internalType": "uint256",
          "name": "amount",
          "type": "uint256"
        }
      ],
      "name": "BalanceIncreased",
      "type": "event"
    },
    {
      "anonymous": false,
      "inputs": [
        {
          "indexed": true,
          "internalType": "address",
          "name": "member",
          "type": "address"
        },
        {
          "indexed": false,
          "internalType": "uint256",
          "name": "amount",
          "type": "uint256"
        }
      ],
      "name": "NewRequestCreated",
      "type": "event"
    },
    {
      "anonymous": false,
      "inputs": [
        {
          "indexed": true,
          "internalType": "address",
          "name": "approver",
          "type": "address"
        },
        {
          "indexed": true,
          "internalType": "address",
          "name": "reimbursementAddress",
          "type": "address"
        },
        {
          "indexed": false,
          "internalType": "uint256",
          "name": "amount",
          "type": "uint256"
        }
      ],
      "name": "PaymentTransfered",
      "type": "event"
    },
    {
      "anonymous": false,
      "inputs": [
        {
          "indexed": true,
          "internalType": "bytes32",
          "name": "role",
          "type": "bytes32"
        },
        {
          "indexed": true,
          "internalType": "bytes32",
          "name": "previousAdminRole",
          "type": "bytes32"
        },
        {
          "indexed": true,
          "internalType": "bytes32",
          "name": "newAdminRole",
          "type": "bytes32"
        }
      ],
      "name": "RoleAdminChanged",
      "type": "event"
    },
    {
      "anonymous": false,
      "inputs": [
        {
          "indexed": true,
          "internalType": "bytes32",
          "name": "role",
          "type": "bytes32"
        },
        {
          "indexed": true,
          "internalType": "address",
          "name": "account",
          "type": "address"
        },
        {
          "indexed": true,
          "internalType": "address",
          "name": "sender",
          "type": "address"
        }
      ],
      "name": "RoleGranted",
      "type": "event"
    },
    {
      "anonymous": false,
      "inputs": [
        {
          "indexed": true,
          "internalType": "bytes32",
          "name": "role",
          "type": "bytes32"
        },
        {
          "indexed": true,
          "internalType": "address",
          "name": "account",
          "type": "address"
        },
        {
          "indexed": true,
          "internalType": "address",
          "name": "sender",
          "type": "address"
        }
      ],
      "name": "RoleRevoked",
      "type": "event"
    },
    {
      "inputs": [],
      "name": "APPROVER_ROLE",
      "outputs": [
        {
          "internalType": "bytes32",
          "name": "",
          "type": "bytes32"
        }
      ],
      "stateMutability": "view",
      "type": "function"
    },
    {
      "inputs": [],
      "name": "DEFAULT_ADMIN_ROLE",
      "outputs": [
        {
          "internalType": "bytes32",
          "name": "",
          "type": "bytes32"
        }
      ],
      "stateMutability": "view",
      "type": "function"
    },
    {
      "inputs": [],
      "name": "MEMBER_ROLE",
      "outputs": [
        {
          "internalType": "bytes32",
          "name": "",
          "type": "bytes32"
        }
      ],
      "stateMutability": "view",
      "type": "function"
    },
    {
      "inputs": [
        {
          "internalType": "address",
          "name": "member",
          "type": "address"
        }
      ],
      "name": "addMember",
      "outputs": [],
      "stateMutability": "nonpayable",
      "type": "function"
    },
    {
      "inputs": [
        {
          "internalType": "string",
          "name": "description",
          "type": "string"
        },
        {
          "internalType": "string",
          "name": "url",
          "type": "string"
        },
        {
          "internalType": "address",
          "name": "reimbursementAddress",
          "type": "address"
        },
        {
          "internalType": "uint256",
          "name": "amount",
          "type": "uint256"
        },
        {
          "internalType": "uint256",
          "name": "date",
          "type": "uint256"
        },
        {
          "internalType": "uint8",
          "name": "category",
          "type": "uint8"
        }
      ],
      "name": "createRequest",
      "outputs": [],
      "stateMutability": "nonpayable",
      "type": "function"
    },
    {
      "inputs": [],
      "name": "getApprovers",
      "outputs": [
        {
          "internalType": "address[]",
          "name": "approvers",
          "type": "address[]"
        }
      ],
      "stateMutability": "view",
      "type": "function"
    },
    {
      "inputs": [],
      "name": "getMembers",
      "outputs": [
        {
          "internalType": "address[]",
          "name": "members",
          "type": "address[]"
        }
      ],
      "stateMutability": "view",
      "type": "function"
    },
    {
      "inputs": [],
      "name": "getMembersRequests",
      "outputs": [
        {
          "components": [
            {
              "internalType": "uint256",
              "name": "id",
              "type": "uint256"
            },
            {
              "internalType": "uint256",
              "name": "amount",
              "type": "uint256"
            },
            {
              "internalType": "uint256",
              "name": "date",
              "type": "uint256"
            },
            {
              "internalType": "uint8",
              "name": "category",
              "type": "uint8"
            },
            {
              "internalType": "bool",
              "name": "processed",
              "type": "bool"
            },
            {
              "internalType": "bool",
              "name": "approved",
              "type": "bool"
            },
            {
              "internalType": "bool",
              "name": "paid",
              "type": "bool"
            },
            {
              "internalType": "address payable",
              "name": "reimbursementAddress",
              "type": "address"
            },
            {
              "internalType": "address",
              "name": "member",
              "type": "address"
            },
            {
              "internalType": "address",
              "name": "paidBy",
              "type": "address"
            },
            {
              "internalType": "string",
              "name": "description",
              "type": "string"
            },
            {
              "internalType": "string",
              "name": "url",
              "type": "string"
            }
          ],
          "internalType": "struct ExpenseDAO.ReimbursementRequest[]",
          "name": "requests",
          "type": "tuple[]"
        }
      ],
      "stateMutability": "view",
      "type": "function"
    },
    {
      "inputs": [
        {
          "internalType": "uint256",
          "name": "requestId",
          "type": "uint256"
        }
      ],
      "name": "getRequest",
      "outputs": [
        {
          "components": [
            {
              "internalType": "uint256",
              "name": "id",
              "type": "uint256"
            },
            {
              "internalType": "uint256",
              "name": "amount",
              "type": "uint256"
            },
            {
              "internalType": "uint256",
              "name": "date",
              "type": "uint256"
            },
            {
              "internalType": "uint8",
              "name": "category",
              "type": "uint8"
            },
            {
              "internalType": "bool",
              "name": "processed",
              "type": "bool"
            },
            {
              "internalType": "bool",
              "name": "approved",
              "type": "bool"
            },
            {
              "internalType": "bool",
              "name": "paid",
              "type": "bool"
            },
            {
              "internalType": "address payable",
              "name": "reimbursementAddress",
              "type": "address"
            },
            {
              "internalType": "address",
              "name": "member",
              "type": "address"
            },
            {
              "internalType": "address",
              "name": "paidBy",
              "type": "address"
            },
            {
              "internalType": "string",
              "name": "description",
              "type": "string"
            },
            {
              "internalType": "string",
              "name": "url",
              "type": "string"
            }
          ],
          "internalType": "struct ExpenseDAO.ReimbursementRequest",
          "name": "",
          "type": "tuple"
        }
      ],
      "stateMutability": "view",
      "type": "function"
    },
    {
      "inputs": [],
      "name": "getRequests",
      "outputs": [
        {
          "components": [
            {
              "internalType": "uint256",
              "name": "id",
              "type": "uint256"
            },
            {
              "internalType": "uint256",
              "name": "amount",
              "type": "uint256"
            },
            {
              "internalType": "uint256",
              "name": "date",
              "type": "uint256"
            },
            {
              "internalType": "uint8",
              "name": "category",
              "type": "uint8"
            },
            {
              "internalType": "bool",
              "name": "processed",
              "type": "bool"
            },
            {
              "internalType": "bool",
              "name": "approved",
              "type": "bool"
            },
            {
              "internalType": "bool",
              "name": "paid",
              "type": "bool"
            },
            {
              "internalType": "address payable",
              "name": "reimbursementAddress",
              "type": "address"
            },
            {
              "internalType": "address",
              "name": "member",
              "type": "address"
            },
            {
              "internalType": "address",
              "name": "paidBy",
              "type": "address"
            },
            {
              "internalType": "string",
              "name": "description",
              "type": "string"
            },
            {
              "internalType": "string",
              "name": "url",
              "type": "string"
            }
          ],
          "internalType": "struct ExpenseDAO.ReimbursementRequest[]",
          "name": "requests",
          "type": "tuple[]"
        }
      ],
      "stateMutability": "view",
      "type": "function"
    },
    {
      "inputs": [
        {
          "internalType": "bytes32",
          "name": "role",
          "type": "bytes32"
        }
      ],
      "name": "getRoleAdmin",
      "outputs": [
        {
          "internalType": "bytes32",
          "name": "",
          "type": "bytes32"
        }
      ],
      "stateMutability": "view",
      "type": "function"
    },
    {
      "inputs": [
        {
          "internalType": "bytes32",
          "name": "role",
          "type": "bytes32"
        },
        {
          "internalType": "uint256",
          "name": "index",
          "type": "uint256"
        }
      ],
      "name": "getRoleMember",
      "outputs": [
        {
          "internalType": "address",
          "name": "",
          "type": "address"
        }
      ],
      "stateMutability": "view",
      "type": "function"
    },
    {
      "inputs": [
        {
          "internalType": "bytes32",
          "name": "role",
          "type": "bytes32"
        }
      ],
      "name": "getRoleMemberCount",
      "outputs": [
        {
          "internalType": "uint256",
          "name": "",
          "type": "uint256"
        }
      ],
      "stateMutability": "view",
      "type": "function"
    },
    {
      "inputs": [],
      "name": "getSummary",
      "outputs": [
        {
          "internalType": "uint256",
          "name": "requestsNum",
          "type": "uint256"
        },
        {
          "internalType": "uint256",
          "name": "approvedNum",
          "type": "uint256"
        },
        {
          "internalType": "uint256",
          "name": "deniedNum",
          "type": "uint256"
        },
        {
          "internalType": "uint256",
          "name": "category1",
          "type": "uint256"
        },
        {
          "internalType": "uint256",
          "name": "category2",
          "type": "uint256"
        },
        {
          "internalType": "uint256",
          "name": "category3",
          "type": "uint256"
        },
        {
          "internalType": "uint256",
          "name": "category4",
          "type": "uint256"
        },
        {
          "internalType": "uint256",
          "name": "category5",
          "type": "uint256"
        },
        {
          "internalType": "uint256",
          "name": "category6",
          "type": "uint256"
        },
        {
          "internalType": "uint256",
          "name": "paidTotal",
          "type": "uint256"
        }
      ],
      "stateMutability": "view",
      "type": "function"
    },
    {
      "inputs": [
        {
          "internalType": "bytes32",
          "name": "role",
          "type": "bytes32"
        },
        {
          "internalType": "address",
          "name": "account",
          "type": "address"
        }
      ],
      "name": "grantRole",
      "outputs": [],
      "stateMutability": "nonpayable",
      "type": "function"
    },
    {
      "inputs": [
        {
          "internalType": "bytes32",
          "name": "role",
          "type": "bytes32"
        },
        {
          "internalType": "address",
          "name": "account",
          "type": "address"
        }
      ],
      "name": "hasRole",
      "outputs": [
        {
          "internalType": "bool",
          "name": "",
          "type": "bool"
        }
      ],
      "stateMutability": "view",
      "type": "function"
    },
    {
      "inputs": [],
      "name": "isApprover",
      "outputs": [
        {
          "internalType": "bool",
          "name": "",
          "type": "bool"
        }
      ],
      "stateMutability": "view",
      "type": "function"
    },
    {
      "inputs": [],
      "name": "isMember",
      "outputs": [
        {
          "internalType": "bool",
          "name": "",
          "type": "bool"
        }
      ],
      "stateMutability": "view",
      "type": "function"
    },
    {
      "inputs": [
        {
          "internalType": "uint256",
          "name": "requestId",
          "type": "uint256"
        },
        {
          "internalType": "bool",
          "name": "approved",
          "type": "bool"
        }
      ],
      "name": "processRequest",
      "outputs": [],
      "stateMutability": "nonpayable",
      "type": "function"
    },
    {
      "inputs": [
        {
          "internalType": "address",
          "name": "member",
          "type": "address"
        }
      ],
      "name": "removeMember",
      "outputs": [],
      "stateMutability": "nonpayable",
      "type": "function"
    },
    {
      "inputs": [
        {
          "internalType": "bytes32",
          "name": "role",
          "type": "bytes32"
        },
        {
          "internalType": "address",
          "name": "account",
          "type": "address"
        }
      ],
      "name": "renounceRole",
      "outputs": [],
      "stateMutability": "nonpayable",
      "type": "function"
    },
    {
      "inputs": [
        {
          "internalType": "bytes32",
          "name": "role",
          "type": "bytes32"
        },
        {
          "internalType": "address",
          "name": "account",
          "type": "address"
        }
      ],
      "name": "revokeRole",
      "outputs": [],
      "stateMutability": "nonpayable",
      "type": "function"
    },
    {
      "inputs": [],
      "name": "stableCoinAddress",
      "outputs": [
        {
          "internalType": "address",
          "name": "",
          "type": "address"
        }
      ],
      "stateMutability": "view",
      "type": "function"
    },
    {
      "inputs": [
        {
          "internalType": "bytes4",
          "name": "interfaceId",
          "type": "bytes4"
        }
      ],
      "name": "supportsInterface",
      "outputs": [
        {
          "internalType": "bool",
          "name": "",
          "type": "bool"
        }
      ],
      "stateMutability": "view",
      "type": "function"
    },
    {
      "stateMutability": "payable",
      "type": "receive"
    }
  ],
  "bytecode": "0x60806040523480156200001157600080fd5b50604051620044743803806200447483398181016040528101906200003791906200055d565b600160008190555082600760006101000a81548173ffffffffffffffffffffffffffffffffffffffff021916908373ffffffffffffffffffffffffffffffffffffffff16021790555060005b82518110156200016c57620001007f5ff1fb0ce9089603e6e193667ed17164e0360a6148f4a39fc194055588948a31848381518110620000ec577f4e487b7100000000000000000000000000000000000000000000000000000000600052603260045260246000fd5b60200260200101516200020d60201b60201c565b620001566000801b84838151811062000142577f4e487b7100000000000000000000000000000000000000000000000000000000600052603260045260246000fd5b60200260200101516200020d60201b60201c565b80806200016390620006b1565b91505062000083565b5060005b81518110156200020357620001ed7fffa60083152bd11704a80cc8c7a409dad8aa74288b454a3ba0e94c0abc7cf168838381518110620001d9577f4e487b7100000000000000000000000000000000000000000000000000000000600052603260045260246000fd5b60200260200101516200020d60201b60201c565b8080620001fa90620006b1565b91505062000170565b5050505062000788565b6200021f82826200022360201b60201c565b5050565b6200023a82826200026b60201b62001d031760201c565b6200026681600260008581526020019081526020016000206200035c60201b62001de31790919060201c565b505050565b6200027d82826200039460201b60201c565b6200035857600180600084815260200190815260200160002060000160008373ffffffffffffffffffffffffffffffffffffffff1673ffffffffffffffffffffffffffffffffffffffff16815260200190815260200160002060006101000a81548160ff021916908315150217905550620002fd620003ff60201b60201c565b73ffffffffffffffffffffffffffffffffffffffff168173ffffffffffffffffffffffffffffffffffffffff16837f2f8788117e7eff1d82e926ec794901d17c78024a50270940304540a733656f0d60405160405180910390a45b5050565b60006200038c836000018373ffffffffffffffffffffffffffffffffffffffff1660001b6200040760201b60201c565b905092915050565b60006001600084815260200190815260200160002060000160008373ffffffffffffffffffffffffffffffffffffffff1673ffffffffffffffffffffffffffffffffffffffff16815260200190815260200160002060009054906101000a900460ff16905092915050565b600033905090565b60006200041b83836200048160201b60201c565b620004765782600001829080600181540180825580915050600190039060005260206000200160009091909190915055826000018054905083600101600084815260200190815260200160002081905550600190506200047b565b600090505b92915050565b600080836001016000848152602001908152602001600020541415905092915050565b6000620004bb620004b5846200060e565b620005e5565b90508083825260208201905082856020860282011115620004db57600080fd5b60005b858110156200050f5781620004f4888262000519565b845260208401935060208301925050600181019050620004de565b5050509392505050565b6000815190506200052a816200076e565b92915050565b600082601f8301126200054257600080fd5b815162000554848260208601620004a4565b91505092915050565b6000806000606084860312156200057357600080fd5b6000620005838682870162000519565b935050602084015167ffffffffffffffff811115620005a157600080fd5b620005af8682870162000530565b925050604084015167ffffffffffffffff811115620005cd57600080fd5b620005db8682870162000530565b9150509250925092565b6000620005f162000604565b9050620005ff82826200067b565b919050565b6000604051905090565b600067ffffffffffffffff8211156200062c576200062b6200072e565b5b602082029050602081019050919050565b60006200064a8262000651565b9050919050565b600073ffffffffffffffffffffffffffffffffffffffff82169050919050565b6000819050919050565b62000686826200075d565b810181811067ffffffffffffffff82111715620006a857620006a76200072e565b5b80604052505050565b6000620006be8262000671565b91507fffffffffffffffffffffffffffffffffffffffffffffffffffffffffffffffff821415620006f457620006f3620006ff565b5b600182019050919050565b7f4e487b7100000000000000000000000000000000000000000000000000000000600052601160045260246000fd5b7f4e487b7100000000000000000000000000000000000000000000000000000000600052604160045260246000fd5b6000601f19601f8301169050919050565b62000779816200063d565b81146200078557600080fd5b50565b613cdc80620007986000396000f3fe60806040526004361061014f5760003560e01c80639010d07c116100b6578063b3fc09711161006f578063b3fc0971146104f8578063c58343ef14610521578063ca15c8731461055e578063ca6d56dc1461059b578063d02982cf146105c4578063d547741f146105ef576101a4565b80639010d07c146103d257806391d148541461040f578063982aae461461044c5780639eab525314610477578063a10f469e146104a2578063a217fddf146104cd576101a4565b80634051ddac116101085780634051ddac146102c95780634245962b146102fd5780636cb3e8ef1461032857806370483623146103535780637d12ba501461037c5780638813ce12146103a7576101a4565b806301ffc9a7146101a95780630b1ca49a146101e6578063238b47ec1461020f578063248a9ca31461023a5780632f2ff15d1461027757806336568abe146102a0576101a4565b366101a4573373ffffffffffffffffffffffffffffffffffffffff167f7a702e80a9c183a6ce9d6732991df2e914555ba35a364a70aed2433984e7544b3460405161019a919061358c565b60405180910390a2005b600080fd5b3480156101b557600080fd5b506101d060048036038101906101cb9190612d1c565b610618565b6040516101dd9190613472565b60405180910390f35b3480156101f257600080fd5b5061020d60048036038101906102089190612c29565b610692565b005b34801561021b57600080fd5b50610224610763565b6040516102319190613472565b60405180910390f35b34801561024657600080fd5b50610261600480360381019061025c9190612c7b565b610794565b60405161026e919061348d565b60405180910390f35b34801561028357600080fd5b5061029e60048036038101906102999190612ca4565b6107b4565b005b3480156102ac57600080fd5b506102c760048036038101906102c29190612ca4565b6107d5565b005b3480156102d557600080fd5b506102de610858565b6040516102f49a999897969594939291906135a7565b60405180910390f35b34801561030957600080fd5b50610312610923565b60405161031f919061348d565b60405180910390f35b34801561033457600080fd5b5061033d610947565b60405161034a919061342e565b60405180910390f35b34801561035f57600080fd5b5061037a60048036038101906103759190612e31565b610aa7565b005b34801561038857600080fd5b50610391610bc5565b60405161039e9190613450565b60405180910390f35b3480156103b357600080fd5b506103bc611043565b6040516103c99190613450565b60405180910390f35b3480156103de57600080fd5b506103f960048036038101906103f49190612ce0565b6113fc565b60405161040691906133ea565b60405180910390f35b34801561041b57600080fd5b5061043660048036038101906104319190612ca4565b61142b565b6040516104439190613472565b60405180910390f35b34801561045857600080fd5b50610461611496565b60405161046e91906133ea565b60405180910390f35b34801561048357600080fd5b5061048c6114bc565b604051610499919061342e565b60405180910390f35b3480156104ae57600080fd5b506104b761161c565b6040516104c4919061348d565b60405180910390f35b3480156104d957600080fd5b506104e2611640565b6040516104ef919061348d565b60405180910390f35b34801561050457600080fd5b5061051f600480360381019061051a9190612d45565b611647565b005b34801561052d57600080fd5b5061054860048036038101906105439190612e08565b6118f9565b604051610555919061356a565b60405180910390f35b34801561056a57600080fd5b5061058560048036038101906105809190612c7b565b611bd9565b604051610592919061358c565b60405180910390f35b3480156105a757600080fd5b506105c260048036038101906105bd9190612c29565b611bfd565b005b3480156105d057600080fd5b506105d9611cb1565b6040516105e69190613472565b60405180910390f35b3480156105fb57600080fd5b5061061660048036038101906106119190612ca4565b611ce2565b005b60007f5a05180f000000000000000000000000000000000000000000000000000000007bffffffffffffffffffffffffffffffffffffffffffffffffffffffff1916827bffffffffffffffffffffffffffffffffffffffffffffffffffffffff1916148061068b575061068a82611e13565b5b9050919050565b6040518060400160405280602081526020017f4f6e6c7920617070726f7665722063616e2072656d6f7665206d656d626572738152506106f27f5ff1fb0ce9089603e6e193667ed17164e0360a6148f4a39fc194055588948a313361142b565b8190610734576040517f08c379a000000000000000000000000000000000000000000000000000000000815260040161072b91906134a8565b60405180910390fd5b5061075f7fffa60083152bd11704a80cc8c7a409dad8aa74288b454a3ba0e94c0abc7cf16883611e8d565b5050565b600061078f7f5ff1fb0ce9089603e6e193667ed17164e0360a6148f4a39fc194055588948a313361142b565b905090565b600060016000838152602001908152602001600020600101549050919050565b6107bd82610794565b6107c681611ec1565b6107d08383611ed5565b505050565b6107dd611f09565b73ffffffffffffffffffffffffffffffffffffffff168173ffffffffffffffffffffffffffffffffffffffff161461084a576040517f08c379a00000000000000000000000000000000000000000000000000000000081526004016108419061354a565b60405180910390fd5b6108548282611e8d565b5050565b600080600080600080600080600080600354995060055498506004549750600a6000600160ff168152602001908152602001600020549650600a6000600260ff168152602001908152602001600020549550600a6000600360ff168152602001908152602001600020549450600a6000600460ff168152602001908152602001600020549350600a6000600560ff168152602001908152602001600020549250600a6000600660ff168152602001908152602001600020549150600654905090919293949596979899565b7f5ff1fb0ce9089603e6e193667ed17164e0360a6148f4a39fc194055588948a3181565b606060006109747f5ff1fb0ce9089603e6e193667ed17164e0360a6148f4a39fc194055588948a31611bd9565b90508067ffffffffffffffff8111156109b6577f4e487b7100000000000000000000000000000000000000000000000000000000600052604160045260246000fd5b6040519080825280602002602001820160405280156109e45781602001602082028036833780820191505090505b50915060005b81811015610aa257610a1c7f5ff1fb0ce9089603e6e193667ed17164e0360a6148f4a39fc194055588948a31826113fc565b838281518110610a55577f4e487b7100000000000000000000000000000000000000000000000000000000600052603260045260246000fd5b602002602001019073ffffffffffffffffffffffffffffffffffffffff16908173ffffffffffffffffffffffffffffffffffffffff16815250508080610a9a90613933565b9150506109ea565b505090565b6040518060600160405280602e8152602001613c4e602e9139610aea7f5ff1fb0ce9089603e6e193667ed17164e0360a6148f4a39fc194055588948a313361142b565b8190610b2c576040517f08c379a0000000000000000000000000000000000000000000000000000000008152600401610b2391906134a8565b60405180910390fd5b506000600860008581526020019081526020016000209050610b4d81611f11565b828160030160026101000a81548160ff0219169083151502179055508060030160029054906101000a900460ff1615610ba65760056000815480929190610b9390613933565b9190505550610ba181611f9c565b610bbf565b60046000815480929190610bb990613933565b91905055505b50505050565b60606000600960003373ffffffffffffffffffffffffffffffffffffffff1673ffffffffffffffffffffffffffffffffffffffff1681526020019081526020016000208054905090508067ffffffffffffffff811115610c4e577f4e487b7100000000000000000000000000000000000000000000000000000000600052604160045260246000fd5b604051908082528060200260200182016040528015610c8757816020015b610c746129fd565b815260200190600190039081610c6c5790505b50915060005b8181101561103e5760086000600960003373ffffffffffffffffffffffffffffffffffffffff1673ffffffffffffffffffffffffffffffffffffffff1681526020019081526020016000208381548110610d10577f4e487b7100000000000000000000000000000000000000000000000000000000600052603260045260246000fd5b90600052602060002001548152602001908152602001600020604051806101800160405290816000820154815260200160018201548152602001600282015481526020016003820160009054906101000a900460ff1660ff1660ff1681526020016003820160019054906101000a900460ff161515151581526020016003820160029054906101000a900460ff161515151581526020016003820160039054906101000a900460ff161515151581526020016003820160049054906101000a900473ffffffffffffffffffffffffffffffffffffffff1673ffffffffffffffffffffffffffffffffffffffff1673ffffffffffffffffffffffffffffffffffffffff1681526020016004820160009054906101000a900473ffffffffffffffffffffffffffffffffffffffff1673ffffffffffffffffffffffffffffffffffffffff1673ffffffffffffffffffffffffffffffffffffffff1681526020016005820160009054906101000a900473ffffffffffffffffffffffffffffffffffffffff1673ffffffffffffffffffffffffffffffffffffffff1673ffffffffffffffffffffffffffffffffffffffff168152602001600682018054610ed390613901565b80601f0160208091040260200160405190810160405280929190818152602001828054610eff90613901565b8015610f4c5780601f10610f2157610100808354040283529160200191610f4c565b820191906000526020600020905b815481529060010190602001808311610f2f57829003601f168201915b50505050508152602001600782018054610f6590613901565b80601f0160208091040260200160405190810160405280929190818152602001828054610f9190613901565b8015610fde5780601f10610fb357610100808354040283529160200191610fde565b820191906000526020600020905b815481529060010190602001808311610fc157829003601f168201915b505050505081525050838281518110611020577f4e487b7100000000000000000000000000000000000000000000000000000000600052603260045260246000fd5b6020026020010181905250808061103690613933565b915050610c8d565b505090565b606060035467ffffffffffffffff811115611087577f4e487b7100000000000000000000000000000000000000000000000000000000600052604160045260246000fd5b6040519080825280602002602001820160405280156110c057816020015b6110ad6129fd565b8152602001906001900390816110a55790505b50905060005b6003548110156113f85760086000828152602001908152602001600020604051806101800160405290816000820154815260200160018201548152602001600282015481526020016003820160009054906101000a900460ff1660ff1660ff1681526020016003820160019054906101000a900460ff161515151581526020016003820160029054906101000a900460ff161515151581526020016003820160039054906101000a900460ff161515151581526020016003820160049054906101000a900473ffffffffffffffffffffffffffffffffffffffff1673ffffffffffffffffffffffffffffffffffffffff1673ffffffffffffffffffffffffffffffffffffffff1681526020016004820160009054906101000a900473ffffffffffffffffffffffffffffffffffffffff1673ffffffffffffffffffffffffffffffffffffffff1673ffffffffffffffffffffffffffffffffffffffff1681526020016005820160009054906101000a900473ffffffffffffffffffffffffffffffffffffffff1673ffffffffffffffffffffffffffffffffffffffff1673ffffffffffffffffffffffffffffffffffffffff16815260200160068201805461128d90613901565b80601f01602080910402602001604051908101604052809291908181526020018280546112b990613901565b80156113065780601f106112db57610100808354040283529160200191611306565b820191906000526020600020905b8154815290600101906020018083116112e957829003601f168201915b5050505050815260200160078201805461131f90613901565b80601f016020809104026020016040519081016040528092919081815260200182805461134b90613901565b80156113985780601f1061136d57610100808354040283529160200191611398565b820191906000526020600020905b81548152906001019060200180831161137b57829003601f168201915b5050505050815250508282815181106113da577f4e487b7100000000000000000000000000000000000000000000000000000000600052603260045260246000fd5b602002602001018190525080806113f090613933565b9150506110c6565b5090565b6000611423826002600086815260200190815260200160002061223290919063ffffffff16565b905092915050565b60006001600084815260200190815260200160002060000160008373ffffffffffffffffffffffffffffffffffffffff1673ffffffffffffffffffffffffffffffffffffffff16815260200190815260200160002060009054906101000a900460ff16905092915050565b600760009054906101000a900473ffffffffffffffffffffffffffffffffffffffff1681565b606060006114e97fffa60083152bd11704a80cc8c7a409dad8aa74288b454a3ba0e94c0abc7cf168611bd9565b90508067ffffffffffffffff81111561152b577f4e487b7100000000000000000000000000000000000000000000000000000000600052604160045260246000fd5b6040519080825280602002602001820160405280156115595781602001602082028036833780820191505090505b50915060005b81811015611617576115917fffa60083152bd11704a80cc8c7a409dad8aa74288b454a3ba0e94c0abc7cf168826113fc565b8382815181106115ca577f4e487b7100000000000000000000000000000000000000000000000000000000600052603260045260246000fd5b602002602001019073ffffffffffffffffffffffffffffffffffffffff16908173ffffffffffffffffffffffffffffffffffffffff1681525050808061160f90613933565b91505061155f565b505090565b7fffa60083152bd11704a80cc8c7a409dad8aa74288b454a3ba0e94c0abc7cf16881565b6000801b81565b6040518060600160405280602b8152602001613c7c602b913961168a7fffa60083152bd11704a80cc8c7a409dad8aa74288b454a3ba0e94c0abc7cf1683361142b565b81906116cc576040517f08c379a00000000000000000000000000000000000000000000000000000000081526004016116c391906134a8565b60405180910390fd5b506000600360008154809291906116e290613933565b919050559050600a60008460ff1660ff168152602001908152602001600020600081548092919061171290613933565b91905055506000600860008381526020019081526020016000209050818160000181905550858160010181905550838160030160006101000a81548160ff021916908360ff1602179055508481600201819055508a8a826006019190611779929190612aa9565b50888882600701919061178d929190612aa9565b50868160030160046101000a81548173ffffffffffffffffffffffffffffffffffffffff021916908373ffffffffffffffffffffffffffffffffffffffff160217905550338160040160006101000a81548173ffffffffffffffffffffffffffffffffffffffff021916908373ffffffffffffffffffffffffffffffffffffffff160217905550600960008260040160009054906101000a900473ffffffffffffffffffffffffffffffffffffffff1673ffffffffffffffffffffffffffffffffffffffff1673ffffffffffffffffffffffffffffffffffffffff1681526020019081526020016000208290806001815401808255809150506001900390600052602060002001600090919091909150553373ffffffffffffffffffffffffffffffffffffffff167f23a574744299f6d7840c73914637acbc1340419b257011bbf94e0f48e158e8ca876040516118e4919061358c565b60405180910390a25050505050505050505050565b6119016129fd565b60086000838152602001908152602001600020604051806101800160405290816000820154815260200160018201548152602001600282015481526020016003820160009054906101000a900460ff1660ff1660ff1681526020016003820160019054906101000a900460ff161515151581526020016003820160029054906101000a900460ff161515151581526020016003820160039054906101000a900460ff161515151581526020016003820160049054906101000a900473ffffffffffffffffffffffffffffffffffffffff1673ffffffffffffffffffffffffffffffffffffffff1673ffffffffffffffffffffffffffffffffffffffff1681526020016004820160009054906101000a900473ffffffffffffffffffffffffffffffffffffffff1673ffffffffffffffffffffffffffffffffffffffff1673ffffffffffffffffffffffffffffffffffffffff1681526020016005820160009054906101000a900473ffffffffffffffffffffffffffffffffffffffff1673ffffffffffffffffffffffffffffffffffffffff1673ffffffffffffffffffffffffffffffffffffffff168152602001600682018054611abe90613901565b80601f0160208091040260200160405190810160405280929190818152602001828054611aea90613901565b8015611b375780601f10611b0c57610100808354040283529160200191611b37565b820191906000526020600020905b815481529060010190602001808311611b1a57829003601f168201915b50505050508152602001600782018054611b5090613901565b80601f0160208091040260200160405190810160405280929190818152602001828054611b7c90613901565b8015611bc95780601f10611b9e57610100808354040283529160200191611bc9565b820191906000526020600020905b815481529060010190602001808311611bac57829003601f168201915b5050505050815250509050919050565b6000611bf66002600084815260200190815260200160002061224c565b9050919050565b604051806060016040528060218152602001613c2d60219139611c407f5ff1fb0ce9089603e6e193667ed17164e0360a6148f4a39fc194055588948a313361142b565b8190611c82576040517f08c379a0000000000000000000000000000000000000000000000000000000008152600401611c7991906134a8565b60405180910390fd5b50611cad7fffa60083152bd11704a80cc8c7a409dad8aa74288b454a3ba0e94c0abc7cf16883612261565b5050565b6000611cdd7fffa60083152bd11704a80cc8c7a409dad8aa74288b454a3ba0e94c0abc7cf1683361142b565b905090565b611ceb82610794565b611cf481611ec1565b611cfe8383611e8d565b505050565b611d0d828261142b565b611ddf57600180600084815260200190815260200160002060000160008373ffffffffffffffffffffffffffffffffffffffff1673ffffffffffffffffffffffffffffffffffffffff16815260200190815260200160002060006101000a81548160ff021916908315150217905550611d84611f09565b73ffffffffffffffffffffffffffffffffffffffff168173ffffffffffffffffffffffffffffffffffffffff16837f2f8788117e7eff1d82e926ec794901d17c78024a50270940304540a733656f0d60405160405180910390a45b5050565b6000611e0b836000018373ffffffffffffffffffffffffffffffffffffffff1660001b61226f565b905092915050565b60007f7965db0b000000000000000000000000000000000000000000000000000000007bffffffffffffffffffffffffffffffffffffffffffffffffffffffff1916827bffffffffffffffffffffffffffffffffffffffffffffffffffffffff19161480611e865750611e85826122df565b5b9050919050565b611e978282612349565b611ebc816002600085815260200190815260200160002061242b90919063ffffffff16565b505050565b611ed281611ecd611f09565b61245b565b50565b611edf8282611d03565b611f048160026000858152602001908152602001600020611de390919063ffffffff16565b505050565b600033905090565b8060030160019054906101000a900460ff1680611f3c57508060030160039054906101000a900460ff165b15611f7c576040517f08c379a0000000000000000000000000000000000000000000000000000000008152600401611f739061352a565b60405180910390fd5b60018160030160016101000a81548160ff02191690831515021790555050565b8060030160039054906101000a900460ff1615611fee576040517f08c379a0000000000000000000000000000000000000000000000000000000008152600401611fe59061350a565b60405180910390fd5b8060030160029054906101000a900460ff1661203f576040517f08c379a0000000000000000000000000000000000000000000000000000000008152600401612036906134ca565b60405180910390fd5b60018160030160036101000a81548160ff021916908315150217905550338160050160006101000a81548173ffffffffffffffffffffffffffffffffffffffff021916908373ffffffffffffffffffffffffffffffffffffffff1602179055508060010154600660008282546120b591906136ed565b925050819055508060030160049054906101000a900473ffffffffffffffffffffffffffffffffffffffff1673ffffffffffffffffffffffffffffffffffffffff163373ffffffffffffffffffffffffffffffffffffffff167ffdb2bc0ebc2e58404f3ad5b20d3ec351f2b7b7bf6a21e18beaa7d296d2f01ba58360010154604051612141919061358c565b60405180910390a36000600760009054906101000a900473ffffffffffffffffffffffffffffffffffffffff1673ffffffffffffffffffffffffffffffffffffffff1663a9059cbb8360030160049054906101000a900473ffffffffffffffffffffffffffffffffffffffff1684600101546040518363ffffffff1660e01b81526004016121d0929190613405565b602060405180830381600087803b1580156121ea57600080fd5b505af11580156121fe573d6000803e3d6000fd5b505050506040513d601f19601f820116820180604052508101906122229190612c52565b90508061222e57600080fd5b5050565b600061224183600001836124f8565b60001c905092915050565b600061225a82600001612549565b9050919050565b61226b8282611ed5565b5050565b600061227b838361255a565b6122d45782600001829080600181540180825580915050600190039060005260206000200160009091909190915055826000018054905083600101600084815260200190815260200160002081905550600190506122d9565b600090505b92915050565b60007f01ffc9a7000000000000000000000000000000000000000000000000000000007bffffffffffffffffffffffffffffffffffffffffffffffffffffffff1916827bffffffffffffffffffffffffffffffffffffffffffffffffffffffff1916149050919050565b612353828261142b565b156124275760006001600084815260200190815260200160002060000160008373ffffffffffffffffffffffffffffffffffffffff1673ffffffffffffffffffffffffffffffffffffffff16815260200190815260200160002060006101000a81548160ff0219169083151502179055506123cc611f09565b73ffffffffffffffffffffffffffffffffffffffff168173ffffffffffffffffffffffffffffffffffffffff16837ff6391f5c32d9c69d2a47ea670b442974b53935d1edc7fd64eb21e047a839171b60405160405180910390a45b5050565b6000612453836000018373ffffffffffffffffffffffffffffffffffffffff1660001b61257d565b905092915050565b612465828261142b565b6124f45761248a8173ffffffffffffffffffffffffffffffffffffffff166014612703565b6124988360001c6020612703565b6040516020016124a99291906133b0565b6040516020818303038152906040526040517f08c379a00000000000000000000000000000000000000000000000000000000081526004016124eb91906134a8565b60405180910390fd5b5050565b6000826000018281548110612536577f4e487b7100000000000000000000000000000000000000000000000000000000600052603260045260246000fd5b9060005260206000200154905092915050565b600081600001805490509050919050565b600080836001016000848152602001908152602001600020541415905092915050565b600080836001016000848152602001908152602001600020549050600081146126f75760006001826125af919061379d565b90506000600186600001805490506125c7919061379d565b905081811461268257600086600001828154811061260e577f4e487b7100000000000000000000000000000000000000000000000000000000600052603260045260246000fd5b9060005260206000200154905080876000018481548110612658577f4e487b7100000000000000000000000000000000000000000000000000000000600052603260045260246000fd5b90600052602060002001819055508387600101600083815260200190815260200160002081905550505b856000018054806126bc577f4e487b7100000000000000000000000000000000000000000000000000000000600052603160045260246000fd5b6001900381819060005260206000200160009055905585600101600086815260200190815260200160002060009055600193505050506126fd565b60009150505b92915050565b6060600060028360026127169190613743565b61272091906136ed565b67ffffffffffffffff81111561275f577f4e487b7100000000000000000000000000000000000000000000000000000000600052604160045260246000fd5b6040519080825280601f01601f1916602001820160405280156127915781602001600182028036833780820191505090505b5090507f3000000000000000000000000000000000000000000000000000000000000000816000815181106127ef577f4e487b7100000000000000000000000000000000000000000000000000000000600052603260045260246000fd5b60200101907effffffffffffffffffffffffffffffffffffffffffffffffffffffffffffff1916908160001a9053507f780000000000000000000000000000000000000000000000000000000000000081600181518110612879577f4e487b7100000000000000000000000000000000000000000000000000000000600052603260045260246000fd5b60200101907effffffffffffffffffffffffffffffffffffffffffffffffffffffffffffff1916908160001a905350600060018460026128b99190613743565b6128c391906136ed565b90505b60018111156129af577f3031323334353637383961626364656600000000000000000000000000000000600f86166010811061292b577f4e487b7100000000000000000000000000000000000000000000000000000000600052603260045260246000fd5b1a60f81b828281518110612968577f4e487b7100000000000000000000000000000000000000000000000000000000600052603260045260246000fd5b60200101907effffffffffffffffffffffffffffffffffffffffffffffffffffffffffffff1916908160001a905350600485901c9450806129a8906138d7565b90506128c6565b50600084146129f3576040517f08c379a00000000000000000000000000000000000000000000000000000000081526004016129ea906134ea565b60405180910390fd5b8091505092915050565b604051806101800160405280600081526020016000815260200160008152602001600060ff168152602001600015158152602001600015158152602001600015158152602001600073ffffffffffffffffffffffffffffffffffffffff168152602001600073ffffffffffffffffffffffffffffffffffffffff168152602001600073ffffffffffffffffffffffffffffffffffffffff16815260200160608152602001606081525090565b828054612ab590613901565b90600052602060002090601f016020900481019282612ad75760008555612b1e565b82601f10612af057803560ff1916838001178555612b1e565b82800160010185558215612b1e579182015b82811115612b1d578235825591602001919060010190612b02565b5b509050612b2b9190612b2f565b5090565b5b80821115612b48576000816000905550600101612b30565b5090565b600081359050612b5b81613ba2565b92915050565b600081359050612b7081613bb9565b92915050565b600081519050612b8581613bb9565b92915050565b600081359050612b9a81613bd0565b92915050565b600081359050612baf81613be7565b92915050565b60008083601f840112612bc757600080fd5b8235905067ffffffffffffffff811115612be057600080fd5b602083019150836001820283011115612bf857600080fd5b9250929050565b600081359050612c0e81613bfe565b92915050565b600081359050612c2381613c15565b92915050565b600060208284031215612c3b57600080fd5b6000612c4984828501612b4c565b91505092915050565b600060208284031215612c6457600080fd5b6000612c7284828501612b76565b91505092915050565b600060208284031215612c8d57600080fd5b6000612c9b84828501612b8b565b91505092915050565b60008060408385031215612cb757600080fd5b6000612cc585828601612b8b565b9250506020612cd685828601612b4c565b9150509250929050565b60008060408385031215612cf357600080fd5b6000612d0185828601612b8b565b9250506020612d1285828601612bff565b9150509250929050565b600060208284031215612d2e57600080fd5b6000612d3c84828501612ba0565b91505092915050565b60008060008060008060008060c0898b031215612d6157600080fd5b600089013567ffffffffffffffff811115612d7b57600080fd5b612d878b828c01612bb5565b9850985050602089013567ffffffffffffffff811115612da657600080fd5b612db28b828c01612bb5565b96509650506040612dc58b828c01612b4c565b9450506060612dd68b828c01612bff565b9350506080612de78b828c01612bff565b92505060a0612df88b828c01612c14565b9150509295985092959890939650565b600060208284031215612e1a57600080fd5b6000612e2884828501612bff565b91505092915050565b60008060408385031215612e4457600080fd5b6000612e5285828601612bff565b9250506020612e6385828601612b61565b9150509250929050565b6000612e798383612eb7565b60208301905092915050565b6000612e91838361316d565b905092915050565b612ea28161386e565b82525050565b612eb1816137e3565b82525050565b612ec0816137d1565b82525050565b612ecf816137d1565b82525050565b6000612ee082613663565b612eea818561369e565b9350612ef583613643565b8060005b83811015612f26578151612f0d8882612e6d565b9750612f1883613684565b925050600181019050612ef9565b5085935050505092915050565b6000612f3e8261366e565b612f4881856136af565b935083602082028501612f5a85613653565b8060005b85811015612f965784840389528151612f778582612e85565b9450612f8283613691565b925060208a01995050600181019050612f5e565b50829750879550505050505092915050565b612fb1816137f5565b82525050565b612fc0816137f5565b82525050565b612fcf81613801565b82525050565b6000612fe082613679565b612fea81856136c0565b9350612ffa8185602086016138a4565b613003816139da565b840191505092915050565b600061301982613679565b61302381856136d1565b93506130338185602086016138a4565b61303c816139da565b840191505092915050565b600061305282613679565b61305c81856136e2565b935061306c8185602086016138a4565b80840191505092915050565b6000613085602d836136d1565b9150613090826139eb565b604082019050919050565b60006130a86020836136d1565b91506130b382613a3a565b602082019050919050565b60006130cb602b836136d1565b91506130d682613a63565b604082019050919050565b60006130ee6030836136d1565b91506130f982613ab2565b604082019050919050565b60006131116017836136e2565b915061311c82613b01565b601782019050919050565b60006131346011836136e2565b915061313f82613b2a565b601182019050919050565b6000613157602f836136d1565b915061316282613b53565b604082019050919050565b6000610180830160008301516131866000860182613383565b5060208301516131996020860182613383565b5060408301516131ac6040860182613383565b5060608301516131bf60608601826133a1565b5060808301516131d26080860182612fa8565b5060a08301516131e560a0860182612fa8565b5060c08301516131f860c0860182612fa8565b5060e083015161320b60e0860182612ea8565b50610100830151613220610100860182612eb7565b50610120830151613235610120860182612eb7565b5061014083015184820361014086015261324f8282612fd5565b91505061016083015184820361016086015261326b8282612fd5565b9150508091505092915050565b6000610180830160008301516132916000860182613383565b5060208301516132a46020860182613383565b5060408301516132b76040860182613383565b5060608301516132ca60608601826133a1565b5060808301516132dd6080860182612fa8565b5060a08301516132f060a0860182612fa8565b5060c083015161330360c0860182612fa8565b5060e083015161331660e0860182612ea8565b5061010083015161332b610100860182612eb7565b50610120830151613340610120860182612eb7565b5061014083015184820361014086015261335a8282612fd5565b9150506101608301518482036101608601526133768282612fd5565b9150508091505092915050565b61338c81613857565b82525050565b61339b81613857565b82525050565b6133aa81613861565b82525050565b60006133bb82613104565b91506133c78285613047565b91506133d282613127565b91506133de8284613047565b91508190509392505050565b60006020820190506133ff6000830184612ec6565b92915050565b600060408201905061341a6000830185612e99565b6134276020830184613392565b9392505050565b600060208201905081810360008301526134488184612ed5565b905092915050565b6000602082019050818103600083015261346a8184612f33565b905092915050565b60006020820190506134876000830184612fb7565b92915050565b60006020820190506134a26000830184612fc6565b92915050565b600060208201905081810360008301526134c2818461300e565b905092915050565b600060208201905081810360008301526134e381613078565b9050919050565b600060208201905081810360008301526135038161309b565b9050919050565b60006020820190508181036000830152613523816130be565b9050919050565b60006020820190508181036000830152613543816130e1565b9050919050565b600060208201905081810360008301526135638161314a565b9050919050565b600060208201905081810360008301526135848184613278565b905092915050565b60006020820190506135a16000830184613392565b92915050565b6000610140820190506135bd600083018d613392565b6135ca602083018c613392565b6135d7604083018b613392565b6135e4606083018a613392565b6135f16080830189613392565b6135fe60a0830188613392565b61360b60c0830187613392565b61361860e0830186613392565b613626610100830185613392565b613634610120830184613392565b9b9a5050505050505050505050565b6000819050602082019050919050565b6000819050602082019050919050565b600081519050919050565b600081519050919050565b600081519050919050565b6000602082019050919050565b6000602082019050919050565b600082825260208201905092915050565b600082825260208201905092915050565b600082825260208201905092915050565b600082825260208201905092915050565b600081905092915050565b60006136f882613857565b915061370383613857565b9250827fffffffffffffffffffffffffffffffffffffffffffffffffffffffffffffffff038211156137385761373761397c565b5b828201905092915050565b600061374e82613857565b915061375983613857565b9250817fffffffffffffffffffffffffffffffffffffffffffffffffffffffffffffffff04831182151516156137925761379161397c565b5b828202905092915050565b60006137a882613857565b91506137b383613857565b9250828210156137c6576137c561397c565b5b828203905092915050565b60006137dc82613837565b9050919050565b60006137ee82613837565b9050919050565b60008115159050919050565b6000819050919050565b60007fffffffff0000000000000000000000000000000000000000000000000000000082169050919050565b600073ffffffffffffffffffffffffffffffffffffffff82169050919050565b6000819050919050565b600060ff82169050919050565b600061387982613880565b9050919050565b600061388b82613892565b9050919050565b600061389d82613837565b9050919050565b60005b838110156138c25780820151818401526020810190506138a7565b838111156138d1576000848401525b50505050565b60006138e282613857565b915060008214156138f6576138f561397c565b5b600182039050919050565b6000600282049050600182168061391957607f821691505b6020821081141561392d5761392c6139ab565b5b50919050565b600061393e82613857565b91507fffffffffffffffffffffffffffffffffffffffffffffffffffffffffffffffff8214156139715761397061397c565b5b600182019050919050565b7f4e487b7100000000000000000000000000000000000000000000000000000000600052601160045260246000fd5b7f4e487b7100000000000000000000000000000000000000000000000000000000600052602260045260246000fd5b6000601f19601f8301169050919050565b7f5265696d62757273656d656e74207265717565737420686173206265656e206460008201527f656e69656420616c726561647900000000000000000000000000000000000000602082015250565b7f537472696e67733a20686578206c656e67746820696e73756666696369656e74600082015250565b7f5265696d62757273656d656e74207265717565737420686173206265656e207060008201527f61696420616c7265616479000000000000000000000000000000000000000000602082015250565b7f5265696d62757273656d656e74207265717565737420686173206265656e207060008201527f726f63657373656420616c726561647900000000000000000000000000000000602082015250565b7f416363657373436f6e74726f6c3a206163636f756e7420000000000000000000600082015250565b7f206973206d697373696e6720726f6c6520000000000000000000000000000000600082015250565b7f416363657373436f6e74726f6c3a2063616e206f6e6c792072656e6f756e636560008201527f20726f6c657320666f722073656c660000000000000000000000000000000000602082015250565b613bab816137d1565b8114613bb657600080fd5b50565b613bc2816137f5565b8114613bcd57600080fd5b50565b613bd981613801565b8114613be457600080fd5b50565b613bf08161380b565b8114613bfb57600080fd5b50565b613c0781613857565b8114613c1257600080fd5b50565b613c1e81613861565b8114613c2957600080fd5b5056fe4f6e6c7920617070726f7665722063616e20616464206e6577206d656d626572734f6e6c7920617070726f766572732061726520616c6c6f77656420746f2070726f636573732072657175657374734f6e6c79206d656d626572732061726520616c6c6f77656420746f20637265617465207265717565737473a2646970667358221220c1a56b463543b12a1f731de1cd3e87738fb83a2e96b4349e7d36acd4c57ff94464736f6c63430008040033",
  "linkReferences": {},
  "deployedLinkReferences": {}
}