{
  "_format": "hh-sol-artifact-1",
  "contractName": "ExpenseDAO",
  "sourceName": "contracts/ExpenseDAO.sol",
  "abi": [
    {
      "inputs": [
        {
          "internalType": "address",
          "name": "stableToken",
          "type": "address"
        },
        {
          "internalType": "address",
          "name": "co2Token",
          "type": "address"
        },
        {
          "internalType": "address[]",
          "name": "approvers",
          "type": "address[]"
        },
        {
          "internalType": "address[]",
          "name": "members",
          "type": "address[]"
        }
      ],
      "stateMutability": "nonpayable",
      "type": "constructor"
    },
    {
      "anonymous": false,
      "inputs": [
        {
          "indexed": true,
          "internalType": "address",
          "name": "fromAddress",
          "type": "address"
        },
        {
          "indexed": false,
          "internalType": "uint256",
          "name": "amount",
          "type": "uint256"
        }
      ],
      "name": "BalanceIncreased",
      "type": "event"
    },
    {
      "anonymous": false,
      "inputs": [
        {
          "indexed": true,
          "internalType": "address",
          "name": "member",
          "type": "address"
        },
        {
          "indexed": false,
          "internalType": "uint256",
          "name": "amount",
          "type": "uint256"
        }
      ],
      "name": "NewRequestCreated",
      "type": "event"
    },
    {
      "anonymous": false,
      "inputs": [
        {
          "indexed": true,
          "internalType": "address",
          "name": "approver",
          "type": "address"
        },
        {
          "indexed": true,
          "internalType": "address",
          "name": "reimbursementAddress",
          "type": "address"
        },
        {
          "indexed": false,
          "internalType": "uint256",
          "name": "amount",
          "type": "uint256"
        }
      ],
      "name": "PaymentTransfered",
      "type": "event"
    },
    {
      "anonymous": false,
      "inputs": [
        {
          "indexed": true,
          "internalType": "bytes32",
          "name": "role",
          "type": "bytes32"
        },
        {
          "indexed": true,
          "internalType": "bytes32",
          "name": "previousAdminRole",
          "type": "bytes32"
        },
        {
          "indexed": true,
          "internalType": "bytes32",
          "name": "newAdminRole",
          "type": "bytes32"
        }
      ],
      "name": "RoleAdminChanged",
      "type": "event"
    },
    {
      "anonymous": false,
      "inputs": [
        {
          "indexed": true,
          "internalType": "bytes32",
          "name": "role",
          "type": "bytes32"
        },
        {
          "indexed": true,
          "internalType": "address",
          "name": "account",
          "type": "address"
        },
        {
          "indexed": true,
          "internalType": "address",
          "name": "sender",
          "type": "address"
        }
      ],
      "name": "RoleGranted",
      "type": "event"
    },
    {
      "anonymous": false,
      "inputs": [
        {
          "indexed": true,
          "internalType": "bytes32",
          "name": "role",
          "type": "bytes32"
        },
        {
          "indexed": true,
          "internalType": "address",
          "name": "account",
          "type": "address"
        },
        {
          "indexed": true,
          "internalType": "address",
          "name": "sender",
          "type": "address"
        }
      ],
      "name": "RoleRevoked",
      "type": "event"
    },
    {
      "inputs": [],
      "name": "APPROVER_ROLE",
      "outputs": [
        {
          "internalType": "bytes32",
          "name": "",
          "type": "bytes32"
        }
      ],
      "stateMutability": "view",
      "type": "function"
    },
    {
      "inputs": [],
      "name": "CO2TokenAddress",
      "outputs": [
        {
          "internalType": "address",
          "name": "",
          "type": "address"
        }
      ],
      "stateMutability": "view",
      "type": "function"
    },
    {
      "inputs": [],
      "name": "DEFAULT_ADMIN_ROLE",
      "outputs": [
        {
          "internalType": "bytes32",
          "name": "",
          "type": "bytes32"
        }
      ],
      "stateMutability": "view",
      "type": "function"
    },
    {
      "inputs": [],
      "name": "MEMBER_ROLE",
      "outputs": [
        {
          "internalType": "bytes32",
          "name": "",
          "type": "bytes32"
        }
      ],
      "stateMutability": "view",
      "type": "function"
    },
    {
      "inputs": [
        {
          "internalType": "address",
          "name": "member",
          "type": "address"
        }
      ],
      "name": "addMember",
      "outputs": [],
      "stateMutability": "nonpayable",
      "type": "function"
    },
    {
      "inputs": [],
      "name": "compensateCO2",
      "outputs": [],
      "stateMutability": "nonpayable",
      "type": "function"
    },
    {
      "inputs": [
        {
          "internalType": "string",
          "name": "description",
          "type": "string"
        },
        {
          "internalType": "string",
          "name": "url",
          "type": "string"
        },
        {
          "internalType": "address",
          "name": "reimbursementAddress",
          "type": "address"
        },
        {
          "internalType": "uint256",
          "name": "amount",
          "type": "uint256"
        },
        {
          "internalType": "uint256",
          "name": "date",
          "type": "uint256"
        },
        {
          "internalType": "uint256",
          "name": "co2Amount",
          "type": "uint256"
        },
        {
          "internalType": "uint8",
          "name": "category",
          "type": "uint8"
        }
      ],
      "name": "createRequest",
      "outputs": [],
      "stateMutability": "nonpayable",
      "type": "function"
    },
    {
      "inputs": [],
      "name": "getApprovers",
      "outputs": [
        {
          "internalType": "address[]",
          "name": "approvers",
          "type": "address[]"
        }
      ],
      "stateMutability": "view",
      "type": "function"
    },
    {
      "inputs": [],
      "name": "getMembers",
      "outputs": [
        {
          "internalType": "address[]",
          "name": "members",
          "type": "address[]"
        }
      ],
      "stateMutability": "view",
      "type": "function"
    },
    {
      "inputs": [],
      "name": "getMembersRequests",
      "outputs": [
        {
          "components": [
            {
              "internalType": "uint256",
              "name": "id",
              "type": "uint256"
            },
            {
              "internalType": "uint256",
              "name": "amount",
              "type": "uint256"
            },
            {
              "internalType": "uint256",
              "name": "date",
              "type": "uint256"
            },
            {
              "internalType": "uint256",
              "name": "co2",
              "type": "uint256"
            },
            {
              "internalType": "uint8",
              "name": "category",
              "type": "uint8"
            },
            {
              "internalType": "bool",
              "name": "processed",
              "type": "bool"
            },
            {
              "internalType": "bool",
              "name": "approved",
              "type": "bool"
            },
            {
              "internalType": "bool",
              "name": "paid",
              "type": "bool"
            },
            {
              "internalType": "address payable",
              "name": "reimbursementAddress",
              "type": "address"
            },
            {
              "internalType": "address",
              "name": "member",
              "type": "address"
            },
            {
              "internalType": "address",
              "name": "paidBy",
              "type": "address"
            },
            {
              "internalType": "string",
              "name": "description",
              "type": "string"
            },
            {
              "internalType": "string",
              "name": "url",
              "type": "string"
            }
          ],
          "internalType": "struct ExpenseDAO.ReimbursementRequest[]",
          "name": "requests",
          "type": "tuple[]"
        }
      ],
      "stateMutability": "view",
      "type": "function"
    },
    {
      "inputs": [
        {
          "internalType": "uint256",
          "name": "requestId",
          "type": "uint256"
        }
      ],
      "name": "getRequest",
      "outputs": [
        {
          "components": [
            {
              "internalType": "uint256",
              "name": "id",
              "type": "uint256"
            },
            {
              "internalType": "uint256",
              "name": "amount",
              "type": "uint256"
            },
            {
              "internalType": "uint256",
              "name": "date",
              "type": "uint256"
            },
            {
              "internalType": "uint256",
              "name": "co2",
              "type": "uint256"
            },
            {
              "internalType": "uint8",
              "name": "category",
              "type": "uint8"
            },
            {
              "internalType": "bool",
              "name": "processed",
              "type": "bool"
            },
            {
              "internalType": "bool",
              "name": "approved",
              "type": "bool"
            },
            {
              "internalType": "bool",
              "name": "paid",
              "type": "bool"
            },
            {
              "internalType": "address payable",
              "name": "reimbursementAddress",
              "type": "address"
            },
            {
              "internalType": "address",
              "name": "member",
              "type": "address"
            },
            {
              "internalType": "address",
              "name": "paidBy",
              "type": "address"
            },
            {
              "internalType": "string",
              "name": "description",
              "type": "string"
            },
            {
              "internalType": "string",
              "name": "url",
              "type": "string"
            }
          ],
          "internalType": "struct ExpenseDAO.ReimbursementRequest",
          "name": "",
          "type": "tuple"
        }
      ],
      "stateMutability": "view",
      "type": "function"
    },
    {
      "inputs": [],
      "name": "getRequests",
      "outputs": [
        {
          "components": [
            {
              "internalType": "uint256",
              "name": "id",
              "type": "uint256"
            },
            {
              "internalType": "uint256",
              "name": "amount",
              "type": "uint256"
            },
            {
              "internalType": "uint256",
              "name": "date",
              "type": "uint256"
            },
            {
              "internalType": "uint256",
              "name": "co2",
              "type": "uint256"
            },
            {
              "internalType": "uint8",
              "name": "category",
              "type": "uint8"
            },
            {
              "internalType": "bool",
              "name": "processed",
              "type": "bool"
            },
            {
              "internalType": "bool",
              "name": "approved",
              "type": "bool"
            },
            {
              "internalType": "bool",
              "name": "paid",
              "type": "bool"
            },
            {
              "internalType": "address payable",
              "name": "reimbursementAddress",
              "type": "address"
            },
            {
              "internalType": "address",
              "name": "member",
              "type": "address"
            },
            {
              "internalType": "address",
              "name": "paidBy",
              "type": "address"
            },
            {
              "internalType": "string",
              "name": "description",
              "type": "string"
            },
            {
              "internalType": "string",
              "name": "url",
              "type": "string"
            }
          ],
          "internalType": "struct ExpenseDAO.ReimbursementRequest[]",
          "name": "requests",
          "type": "tuple[]"
        }
      ],
      "stateMutability": "view",
      "type": "function"
    },
    {
      "inputs": [
        {
          "internalType": "bytes32",
          "name": "role",
          "type": "bytes32"
        }
      ],
      "name": "getRoleAdmin",
      "outputs": [
        {
          "internalType": "bytes32",
          "name": "",
          "type": "bytes32"
        }
      ],
      "stateMutability": "view",
      "type": "function"
    },
    {
      "inputs": [
        {
          "internalType": "bytes32",
          "name": "role",
          "type": "bytes32"
        },
        {
          "internalType": "uint256",
          "name": "index",
          "type": "uint256"
        }
      ],
      "name": "getRoleMember",
      "outputs": [
        {
          "internalType": "address",
          "name": "",
          "type": "address"
        }
      ],
      "stateMutability": "view",
      "type": "function"
    },
    {
      "inputs": [
        {
          "internalType": "bytes32",
          "name": "role",
          "type": "bytes32"
        }
      ],
      "name": "getRoleMemberCount",
      "outputs": [
        {
          "internalType": "uint256",
          "name": "",
          "type": "uint256"
        }
      ],
      "stateMutability": "view",
      "type": "function"
    },
    {
      "inputs": [],
      "name": "getSummary",
      "outputs": [
        {
          "internalType": "uint256",
          "name": "requestsNum",
          "type": "uint256"
        },
        {
          "internalType": "uint256",
          "name": "approvedNum",
          "type": "uint256"
        },
        {
          "internalType": "uint256",
          "name": "deniedNum",
          "type": "uint256"
        },
        {
          "internalType": "uint256",
          "name": "category1",
          "type": "uint256"
        },
        {
          "internalType": "uint256",
          "name": "category2",
          "type": "uint256"
        },
        {
          "internalType": "uint256",
          "name": "category3",
          "type": "uint256"
        },
        {
          "internalType": "uint256",
          "name": "category4",
          "type": "uint256"
        },
        {
          "internalType": "uint256",
          "name": "category5",
          "type": "uint256"
        },
        {
          "internalType": "uint256",
          "name": "category6",
          "type": "uint256"
        },
        {
          "internalType": "uint256",
          "name": "paidTotal",
          "type": "uint256"
        },
        {
          "internalType": "uint256",
          "name": "CO2Pending",
          "type": "uint256"
        },
        {
          "internalType": "uint256",
          "name": "CO2Total",
          "type": "uint256"
        }
      ],
      "stateMutability": "view",
      "type": "function"
    },
    {
      "inputs": [
        {
          "internalType": "bytes32",
          "name": "role",
          "type": "bytes32"
        },
        {
          "internalType": "address",
          "name": "account",
          "type": "address"
        }
      ],
      "name": "grantRole",
      "outputs": [],
      "stateMutability": "nonpayable",
      "type": "function"
    },
    {
      "inputs": [
        {
          "internalType": "bytes32",
          "name": "role",
          "type": "bytes32"
        },
        {
          "internalType": "address",
          "name": "account",
          "type": "address"
        }
      ],
      "name": "hasRole",
      "outputs": [
        {
          "internalType": "bool",
          "name": "",
          "type": "bool"
        }
      ],
      "stateMutability": "view",
      "type": "function"
    },
    {
      "inputs": [],
      "name": "isApprover",
      "outputs": [
        {
          "internalType": "bool",
          "name": "",
          "type": "bool"
        }
      ],
      "stateMutability": "view",
      "type": "function"
    },
    {
      "inputs": [],
      "name": "isMember",
      "outputs": [
        {
          "internalType": "bool",
          "name": "",
          "type": "bool"
        }
      ],
      "stateMutability": "view",
      "type": "function"
    },
    {
      "inputs": [
        {
          "internalType": "uint256",
          "name": "requestId",
          "type": "uint256"
        },
        {
          "internalType": "bool",
          "name": "approved",
          "type": "bool"
        }
      ],
      "name": "processRequest",
      "outputs": [],
      "stateMutability": "nonpayable",
      "type": "function"
    },
    {
      "inputs": [
        {
          "internalType": "address",
          "name": "member",
          "type": "address"
        }
      ],
      "name": "removeMember",
      "outputs": [],
      "stateMutability": "nonpayable",
      "type": "function"
    },
    {
      "inputs": [
        {
          "internalType": "bytes32",
          "name": "role",
          "type": "bytes32"
        },
        {
          "internalType": "address",
          "name": "account",
          "type": "address"
        }
      ],
      "name": "renounceRole",
      "outputs": [],
      "stateMutability": "nonpayable",
      "type": "function"
    },
    {
      "inputs": [
        {
          "internalType": "bytes32",
          "name": "role",
          "type": "bytes32"
        },
        {
          "internalType": "address",
          "name": "account",
          "type": "address"
        }
      ],
      "name": "revokeRole",
      "outputs": [],
      "stateMutability": "nonpayable",
      "type": "function"
    },
    {
      "inputs": [],
      "name": "stableCoinAddress",
      "outputs": [
        {
          "internalType": "address",
          "name": "",
          "type": "address"
        }
      ],
      "stateMutability": "view",
      "type": "function"
    },
    {
      "inputs": [
        {
          "internalType": "bytes4",
          "name": "interfaceId",
          "type": "bytes4"
        }
      ],
      "name": "supportsInterface",
      "outputs": [
        {
          "internalType": "bool",
          "name": "",
          "type": "bool"
        }
      ],
      "stateMutability": "view",
      "type": "function"
    },
    {
      "stateMutability": "payable",
      "type": "receive"
    }
  ],
  "bytecode": "0x60806040523480156200001157600080fd5b50604051620049c1380380620049c18339818101604052810190620000379190620005e6565b600160008190555083600960006101000a81548173ffffffffffffffffffffffffffffffffffffffff021916908373ffffffffffffffffffffffffffffffffffffffff16021790555082600a60006101000a81548173ffffffffffffffffffffffffffffffffffffffff021916908373ffffffffffffffffffffffffffffffffffffffff160217905550600182511162000108576040517f08c379a0000000000000000000000000000000000000000000000000000000008152600401620000ff90620006ab565b60405180910390fd5b60005b8251811015620001f457620001887f5ff1fb0ce9089603e6e193667ed17164e0360a6148f4a39fc194055588948a3184838151811062000174577f4e487b7100000000000000000000000000000000000000000000000000000000600052603260045260246000fd5b60200260200101516200029660201b60201c565b620001de6000801b848381518110620001ca577f4e487b7100000000000000000000000000000000000000000000000000000000600052603260045260246000fd5b60200260200101516200029660201b60201c565b8080620001eb90620007aa565b9150506200010b565b5060005b81518110156200028b57620002757fffa60083152bd11704a80cc8c7a409dad8aa74288b454a3ba0e94c0abc7cf16883838151811062000261577f4e487b7100000000000000000000000000000000000000000000000000000000600052603260045260246000fd5b60200260200101516200029660201b60201c565b80806200028290620007aa565b915050620001f8565b5050505050620008d0565b620002a88282620002ac60201b60201c565b5050565b620002c38282620002f460201b62001ff21760201c565b620002ef8160026000858152602001908152602001600020620003e560201b620020d21790919060201c565b505050565b6200030682826200041d60201b60201c565b620003e157600180600084815260200190815260200160002060000160008373ffffffffffffffffffffffffffffffffffffffff1673ffffffffffffffffffffffffffffffffffffffff16815260200190815260200160002060006101000a81548160ff021916908315150217905550620003866200048860201b60201c565b73ffffffffffffffffffffffffffffffffffffffff168173ffffffffffffffffffffffffffffffffffffffff16837f2f8788117e7eff1d82e926ec794901d17c78024a50270940304540a733656f0d60405160405180910390a45b5050565b600062000415836000018373ffffffffffffffffffffffffffffffffffffffff1660001b6200049060201b60201c565b905092915050565b60006001600084815260200190815260200160002060000160008373ffffffffffffffffffffffffffffffffffffffff1673ffffffffffffffffffffffffffffffffffffffff16815260200190815260200160002060009054906101000a900460ff16905092915050565b600033905090565b6000620004a483836200050a60201b60201c565b620004ff57826000018290806001815401808255809150506001900390600052602060002001600090919091909150558260000180549050836001016000848152602001908152602001600020819055506001905062000504565b600090505b92915050565b600080836001016000848152602001908152602001600020541415905092915050565b6000620005446200053e84620006f6565b620006cd565b905080838252602082019050828560208602820111156200056457600080fd5b60005b858110156200059857816200057d8882620005a2565b84526020840193506020830192505060018101905062000567565b5050509392505050565b600081519050620005b381620008b6565b92915050565b600082601f830112620005cb57600080fd5b8151620005dd8482602086016200052d565b91505092915050565b60008060008060808587031215620005fd57600080fd5b60006200060d87828801620005a2565b94505060206200062087828801620005a2565b935050604085015167ffffffffffffffff8111156200063e57600080fd5b6200064c87828801620005b9565b925050606085015167ffffffffffffffff8111156200066a57600080fd5b6200067887828801620005b9565b91505092959194509250565b60006200069360308362000725565b9150620006a08262000867565b604082019050919050565b60006020820190508181036000830152620006c68162000684565b9050919050565b6000620006d9620006ec565b9050620006e7828262000774565b919050565b6000604051905090565b600067ffffffffffffffff82111562000714576200071362000827565b5b602082029050602081019050919050565b600082825260208201905092915050565b600062000743826200074a565b9050919050565b600073ffffffffffffffffffffffffffffffffffffffff82169050919050565b6000819050919050565b6200077f8262000856565b810181811067ffffffffffffffff82111715620007a157620007a062000827565b5b80604052505050565b6000620007b7826200076a565b91507fffffffffffffffffffffffffffffffffffffffffffffffffffffffffffffffff821415620007ed57620007ec620007f8565b5b600182019050919050565b7f4e487b7100000000000000000000000000000000000000000000000000000000600052601160045260246000fd5b7f4e487b7100000000000000000000000000000000000000000000000000000000600052604160045260246000fd5b6000601f19601f8301169050919050565b7f4174206c656173742074776f20617070726f766572206164647265737365732060008201527f6d7573742062652070726f766964656400000000000000000000000000000000602082015250565b620008c18162000736565b8114620008cd57600080fd5b50565b6140e180620008e06000396000f3fe6080604052600436106101855760003560e01c806391d14854116100d1578063c58343ef1161008a578063d02982cf11610064578063d02982cf146105fe578063d547741f14610629578063f9758e8e14610652578063fbc4c2a01461067b576101da565b8063c58343ef1461055b578063ca15c87314610598578063ca6d56dc146105d5576101da565b806391d1485414610447578063982aae46146104845780639eab5253146104af578063a10f469e146104da578063a217fddf14610505578063c066b94914610530576101da565b80634051ddac1161013e5780637048362311610118578063704836231461038b5780637d12ba50146103b45780638813ce12146103df5780639010d07c1461040a576101da565b80634051ddac146102ff5780634245962b146103355780636cb3e8ef14610360576101da565b806301ffc9a7146101df5780630b1ca49a1461021c578063238b47ec14610245578063248a9ca3146102705780632f2ff15d146102ad57806336568abe146102d6576101da565b366101da573373ffffffffffffffffffffffffffffffffffffffff167f7a702e80a9c183a6ce9d6732991df2e914555ba35a364a70aed2433984e7544b346040516101d09190613902565b60405180910390a2005b600080fd5b3480156101eb57600080fd5b5061020660048036038101906102019190613012565b610692565b60405161021391906137c8565b60405180910390f35b34801561022857600080fd5b50610243600480360381019061023e9190612f1f565b61070c565b005b34801561025157600080fd5b5061025a6107dd565b60405161026791906137c8565b60405180910390f35b34801561027c57600080fd5b5061029760048036038101906102929190612f71565b61080e565b6040516102a491906137e3565b60405180910390f35b3480156102b957600080fd5b506102d460048036038101906102cf9190612f9a565b61082e565b005b3480156102e257600080fd5b506102fd60048036038101906102f89190612f9a565b61084f565b005b34801561030b57600080fd5b506103146108d2565b60405161032c9c9b9a9998979695949392919061391d565b60405180910390f35b34801561034157600080fd5b5061034a6109ac565b60405161035791906137e3565b60405180910390f35b34801561036c57600080fd5b506103756109d0565b6040516103829190613784565b60405180910390f35b34801561039757600080fd5b506103b260048036038101906103ad919061313a565b610b30565b005b3480156103c057600080fd5b506103c9610ce1565b6040516103d691906137a6565b60405180910390f35b3480156103eb57600080fd5b506103f4611169565b60405161040191906137a6565b60405180910390f35b34801561041657600080fd5b50610431600480360381019061042c9190612fd6565b61152c565b60405161043e9190613740565b60405180910390f35b34801561045357600080fd5b5061046e60048036038101906104699190612f9a565b61155b565b60405161047b91906137c8565b60405180910390f35b34801561049057600080fd5b506104996115c6565b6040516104a69190613740565b60405180910390f35b3480156104bb57600080fd5b506104c46115ec565b6040516104d19190613784565b60405180910390f35b3480156104e657600080fd5b506104ef61174c565b6040516104fc91906137e3565b60405180910390f35b34801561051157600080fd5b5061051a611770565b60405161052791906137e3565b60405180910390f35b34801561053c57600080fd5b50610545611777565b6040516105529190613740565b60405180910390f35b34801561056757600080fd5b50610582600480360381019061057d9190613111565b61179d565b60405161058f91906138e0565b60405180910390f35b3480156105a457600080fd5b506105bf60048036038101906105ba9190612f71565b611a87565b6040516105cc9190613902565b60405180910390f35b3480156105e157600080fd5b506105fc60048036038101906105f79190612f1f565b611aab565b005b34801561060a57600080fd5b50610613611b5f565b60405161062091906137c8565b60405180910390f35b34801561063557600080fd5b50610650600480360381019061064b9190612f9a565b611b90565b005b34801561065e57600080fd5b506106796004803603810190610674919061303b565b611bb1565b005b34801561068757600080fd5b50610690611eb7565b005b60007f5a05180f000000000000000000000000000000000000000000000000000000007bffffffffffffffffffffffffffffffffffffffffffffffffffffffff1916827bffffffffffffffffffffffffffffffffffffffffffffffffffffffff19161480610705575061070482612102565b5b9050919050565b6040518060400160405280602081526020017f4f6e6c7920617070726f7665722063616e2072656d6f7665206d656d6265727381525061076c7f5ff1fb0ce9089603e6e193667ed17164e0360a6148f4a39fc194055588948a313361155b565b81906107ae576040517f08c379a00000000000000000000000000000000000000000000000000000000081526004016107a591906137fe565b60405180910390fd5b506107d97fffa60083152bd11704a80cc8c7a409dad8aa74288b454a3ba0e94c0abc7cf1688361217c565b5050565b60006108097f5ff1fb0ce9089603e6e193667ed17164e0360a6148f4a39fc194055588948a313361155b565b905090565b600060016000838152602001908152602001600020600101549050919050565b6108378261080e565b610840816121b0565b61084a83836121c4565b505050565b6108576121f8565b73ffffffffffffffffffffffffffffffffffffffff168173ffffffffffffffffffffffffffffffffffffffff16146108c4576040517f08c379a00000000000000000000000000000000000000000000000000000000081526004016108bb906138c0565b60405180910390fd5b6108ce828261217c565b5050565b6000806000806000806000806000806000806003549b506005549a506004549950600d6000600160ff168152602001908152602001600020549850600d6000600260ff168152602001908152602001600020549750600d6000600360ff168152602001908152602001600020549650600d6000600460ff168152602001908152602001600020549550600d6000600560ff168152602001908152602001600020549450600d6000600660ff168152602001908152602001600020549350600654925060085491506007549050909192939495969798999a9b565b7f5ff1fb0ce9089603e6e193667ed17164e0360a6148f4a39fc194055588948a3181565b606060006109fd7f5ff1fb0ce9089603e6e193667ed17164e0360a6148f4a39fc194055588948a31611a87565b90508067ffffffffffffffff811115610a3f577f4e487b7100000000000000000000000000000000000000000000000000000000600052604160045260246000fd5b604051908082528060200260200182016040528015610a6d5781602001602082028036833780820191505090505b50915060005b81811015610b2b57610aa57f5ff1fb0ce9089603e6e193667ed17164e0360a6148f4a39fc194055588948a318261152c565b838281518110610ade577f4e487b7100000000000000000000000000000000000000000000000000000000600052603260045260246000fd5b602002602001019073ffffffffffffffffffffffffffffffffffffffff16908173ffffffffffffffffffffffffffffffffffffffff16815250508080610b2390613cc7565b915050610a73565b505090565b6040518060600160405280602e815260200161407e602e9139610b737f5ff1fb0ce9089603e6e193667ed17164e0360a6148f4a39fc194055588948a313361155b565b8190610bb5576040517f08c379a0000000000000000000000000000000000000000000000000000000008152600401610bac91906137fe565b60405180910390fd5b506000600b600085815260200190815260200160002090508060050160009054906101000a900473ffffffffffffffffffffffffffffffffffffffff1673ffffffffffffffffffffffffffffffffffffffff163373ffffffffffffffffffffffffffffffffffffffff161415610c60576040517f08c379a0000000000000000000000000000000000000000000000000000000008152600401610c5790613860565b60405180910390fd5b610c6981612200565b828160040160026101000a81548160ff0219169083151502179055508060040160029054906101000a900460ff1615610cc25760056000815480929190610caf90613cc7565b9190505550610cbd8161228b565b610cdb565b60046000815480929190610cd590613cc7565b91905055505b50505050565b60606000600c60003373ffffffffffffffffffffffffffffffffffffffff1673ffffffffffffffffffffffffffffffffffffffff1681526020019081526020016000208054905090508067ffffffffffffffff811115610d6a577f4e487b7100000000000000000000000000000000000000000000000000000000600052604160045260246000fd5b604051908082528060200260200182016040528015610da357816020015b610d90612cec565b815260200190600190039081610d885790505b50915060005b8181101561116457600b6000600c60003373ffffffffffffffffffffffffffffffffffffffff1673ffffffffffffffffffffffffffffffffffffffff1681526020019081526020016000208381548110610e2c577f4e487b7100000000000000000000000000000000000000000000000000000000600052603260045260246000fd5b90600052602060002001548152602001908152602001600020604051806101a0016040529081600082015481526020016001820154815260200160028201548152602001600382015481526020016004820160009054906101000a900460ff1660ff1660ff1681526020016004820160019054906101000a900460ff161515151581526020016004820160029054906101000a900460ff161515151581526020016004820160039054906101000a900460ff161515151581526020016004820160049054906101000a900473ffffffffffffffffffffffffffffffffffffffff1673ffffffffffffffffffffffffffffffffffffffff1673ffffffffffffffffffffffffffffffffffffffff1681526020016005820160009054906101000a900473ffffffffffffffffffffffffffffffffffffffff1673ffffffffffffffffffffffffffffffffffffffff1673ffffffffffffffffffffffffffffffffffffffff1681526020016006820160009054906101000a900473ffffffffffffffffffffffffffffffffffffffff1673ffffffffffffffffffffffffffffffffffffffff1673ffffffffffffffffffffffffffffffffffffffff168152602001600782018054610ff990613c95565b80601f016020809104026020016040519081016040528092919081815260200182805461102590613c95565b80156110725780601f1061104757610100808354040283529160200191611072565b820191906000526020600020905b81548152906001019060200180831161105557829003601f168201915b5050505050815260200160088201805461108b90613c95565b80601f01602080910402602001604051908101604052809291908181526020018280546110b790613c95565b80156111045780601f106110d957610100808354040283529160200191611104565b820191906000526020600020905b8154815290600101906020018083116110e757829003601f168201915b505050505081525050838281518110611146577f4e487b7100000000000000000000000000000000000000000000000000000000600052603260045260246000fd5b6020026020010181905250808061115c90613cc7565b915050610da9565b505090565b606060035467ffffffffffffffff8111156111ad577f4e487b7100000000000000000000000000000000000000000000000000000000600052604160045260246000fd5b6040519080825280602002602001820160405280156111e657816020015b6111d3612cec565b8152602001906001900390816111cb5790505b50905060005b60035481101561152857600b6000828152602001908152602001600020604051806101a0016040529081600082015481526020016001820154815260200160028201548152602001600382015481526020016004820160009054906101000a900460ff1660ff1660ff1681526020016004820160019054906101000a900460ff161515151581526020016004820160029054906101000a900460ff161515151581526020016004820160039054906101000a900460ff161515151581526020016004820160049054906101000a900473ffffffffffffffffffffffffffffffffffffffff1673ffffffffffffffffffffffffffffffffffffffff1673ffffffffffffffffffffffffffffffffffffffff1681526020016005820160009054906101000a900473ffffffffffffffffffffffffffffffffffffffff1673ffffffffffffffffffffffffffffffffffffffff1673ffffffffffffffffffffffffffffffffffffffff1681526020016006820160009054906101000a900473ffffffffffffffffffffffffffffffffffffffff1673ffffffffffffffffffffffffffffffffffffffff1673ffffffffffffffffffffffffffffffffffffffff1681526020016007820180546113bd90613c95565b80601f01602080910402602001604051908101604052809291908181526020018280546113e990613c95565b80156114365780601f1061140b57610100808354040283529160200191611436565b820191906000526020600020905b81548152906001019060200180831161141957829003601f168201915b5050505050815260200160088201805461144f90613c95565b80601f016020809104026020016040519081016040528092919081815260200182805461147b90613c95565b80156114c85780601f1061149d576101008083540402835291602001916114c8565b820191906000526020600020905b8154815290600101906020018083116114ab57829003601f168201915b50505050508152505082828151811061150a577f4e487b7100000000000000000000000000000000000000000000000000000000600052603260045260246000fd5b6020026020010181905250808061152090613cc7565b9150506111ec565b5090565b6000611553826002600086815260200190815260200160002061252190919063ffffffff16565b905092915050565b60006001600084815260200190815260200160002060000160008373ffffffffffffffffffffffffffffffffffffffff1673ffffffffffffffffffffffffffffffffffffffff16815260200190815260200160002060009054906101000a900460ff16905092915050565b600960009054906101000a900473ffffffffffffffffffffffffffffffffffffffff1681565b606060006116197fffa60083152bd11704a80cc8c7a409dad8aa74288b454a3ba0e94c0abc7cf168611a87565b90508067ffffffffffffffff81111561165b577f4e487b7100000000000000000000000000000000000000000000000000000000600052604160045260246000fd5b6040519080825280602002602001820160405280156116895781602001602082028036833780820191505090505b50915060005b81811015611747576116c17fffa60083152bd11704a80cc8c7a409dad8aa74288b454a3ba0e94c0abc7cf1688261152c565b8382815181106116fa577f4e487b7100000000000000000000000000000000000000000000000000000000600052603260045260246000fd5b602002602001019073ffffffffffffffffffffffffffffffffffffffff16908173ffffffffffffffffffffffffffffffffffffffff1681525050808061173f90613cc7565b91505061168f565b505090565b7fffa60083152bd11704a80cc8c7a409dad8aa74288b454a3ba0e94c0abc7cf16881565b6000801b81565b600a60009054906101000a900473ffffffffffffffffffffffffffffffffffffffff1681565b6117a5612cec565b600b6000838152602001908152602001600020604051806101a0016040529081600082015481526020016001820154815260200160028201548152602001600382015481526020016004820160009054906101000a900460ff1660ff1660ff1681526020016004820160019054906101000a900460ff161515151581526020016004820160029054906101000a900460ff161515151581526020016004820160039054906101000a900460ff161515151581526020016004820160049054906101000a900473ffffffffffffffffffffffffffffffffffffffff1673ffffffffffffffffffffffffffffffffffffffff1673ffffffffffffffffffffffffffffffffffffffff1681526020016005820160009054906101000a900473ffffffffffffffffffffffffffffffffffffffff1673ffffffffffffffffffffffffffffffffffffffff1673ffffffffffffffffffffffffffffffffffffffff1681526020016006820160009054906101000a900473ffffffffffffffffffffffffffffffffffffffff1673ffffffffffffffffffffffffffffffffffffffff1673ffffffffffffffffffffffffffffffffffffffff16815260200160078201805461196c90613c95565b80601f016020809104026020016040519081016040528092919081815260200182805461199890613c95565b80156119e55780601f106119ba576101008083540402835291602001916119e5565b820191906000526020600020905b8154815290600101906020018083116119c857829003601f168201915b505050505081526020016008820180546119fe90613c95565b80601f0160208091040260200160405190810160405280929190818152602001828054611a2a90613c95565b8015611a775780601f10611a4c57610100808354040283529160200191611a77565b820191906000526020600020905b815481529060010190602001808311611a5a57829003601f168201915b5050505050815250509050919050565b6000611aa46002600084815260200190815260200160002061253b565b9050919050565b60405180606001604052806021815260200161401060219139611aee7f5ff1fb0ce9089603e6e193667ed17164e0360a6148f4a39fc194055588948a313361155b565b8190611b30576040517f08c379a0000000000000000000000000000000000000000000000000000000008152600401611b2791906137fe565b60405180910390fd5b50611b5b7fffa60083152bd11704a80cc8c7a409dad8aa74288b454a3ba0e94c0abc7cf16883612550565b5050565b6000611b8b7fffa60083152bd11704a80cc8c7a409dad8aa74288b454a3ba0e94c0abc7cf1683361155b565b905090565b611b998261080e565b611ba2816121b0565b611bac838361217c565b505050565b60405180606001604052806026815260200161405860269139611bf47fffa60083152bd11704a80cc8c7a409dad8aa74288b454a3ba0e94c0abc7cf1683361155b565b80611c255750611c247f5ff1fb0ce9089603e6e193667ed17164e0360a6148f4a39fc194055588948a313361155b565b5b8190611c67576040517f08c379a0000000000000000000000000000000000000000000000000000000008152600401611c5e91906137fe565b60405180910390fd5b50600060036000815480929190611c7d90613cc7565b919050559050600d60008460ff1660ff1681526020019081526020016000206000815480929190611cad90613cc7565b91905055508360086000828254611cc49190613a81565b925050819055506000600b60008381526020019081526020016000209050818160000181905550868160010181905550838160040160006101000a81548160ff021916908360ff1602179055508481600301819055508581600201819055508b8b826007019190611d36929190612d9f565b508989826008019190611d4a929190612d9f565b50878160040160046101000a81548173ffffffffffffffffffffffffffffffffffffffff021916908373ffffffffffffffffffffffffffffffffffffffff160217905550338160050160006101000a81548173ffffffffffffffffffffffffffffffffffffffff021916908373ffffffffffffffffffffffffffffffffffffffff160217905550600c60008260050160009054906101000a900473ffffffffffffffffffffffffffffffffffffffff1673ffffffffffffffffffffffffffffffffffffffff1673ffffffffffffffffffffffffffffffffffffffff1681526020019081526020016000208290806001815401808255809150506001900390600052602060002001600090919091909150553373ffffffffffffffffffffffffffffffffffffffff167f23a574744299f6d7840c73914637acbc1340419b257011bbf94e0f48e158e8ca88604051611ea19190613902565b60405180910390a2505050505050505050505050565b60405180606001604052806027815260200161403160279139611efa7f5ff1fb0ce9089603e6e193667ed17164e0360a6148f4a39fc194055588948a313361155b565b8190611f3c576040517f08c379a0000000000000000000000000000000000000000000000000000000008152600401611f3391906137fe565b60405180910390fd5b50600a60009054906101000a900473ffffffffffffffffffffffffffffffffffffffff1673ffffffffffffffffffffffffffffffffffffffff166342966c686008546040518263ffffffff1660e01b8152600401611f9a9190613902565b600060405180830381600087803b158015611fb457600080fd5b505af1158015611fc8573d6000803e3d6000fd5b5050505060085460076000828254611fe09190613a81565b92505081905550600060088190555050565b611ffc828261155b565b6120ce57600180600084815260200190815260200160002060000160008373ffffffffffffffffffffffffffffffffffffffff1673ffffffffffffffffffffffffffffffffffffffff16815260200190815260200160002060006101000a81548160ff0219169083151502179055506120736121f8565b73ffffffffffffffffffffffffffffffffffffffff168173ffffffffffffffffffffffffffffffffffffffff16837f2f8788117e7eff1d82e926ec794901d17c78024a50270940304540a733656f0d60405160405180910390a45b5050565b60006120fa836000018373ffffffffffffffffffffffffffffffffffffffff1660001b61255e565b905092915050565b60007f7965db0b000000000000000000000000000000000000000000000000000000007bffffffffffffffffffffffffffffffffffffffffffffffffffffffff1916827bffffffffffffffffffffffffffffffffffffffffffffffffffffffff191614806121755750612174826125ce565b5b9050919050565b6121868282612638565b6121ab816002600085815260200190815260200160002061271a90919063ffffffff16565b505050565b6121c1816121bc6121f8565b61274a565b50565b6121ce8282611ff2565b6121f381600260008581526020019081526020016000206120d290919063ffffffff16565b505050565b600033905090565b8060040160019054906101000a900460ff168061222b57508060040160039054906101000a900460ff165b1561226b576040517f08c379a0000000000000000000000000000000000000000000000000000000008152600401612262906138a0565b60405180910390fd5b60018160040160016101000a81548160ff02191690831515021790555050565b8060040160039054906101000a900460ff16156122dd576040517f08c379a00000000000000000000000000000000000000000000000000000000081526004016122d490613880565b60405180910390fd5b8060040160029054906101000a900460ff1661232e576040517f08c379a000000000000000000000000000000000000000000000000000000000815260040161232590613820565b60405180910390fd5b60018160040160036101000a81548160ff021916908315150217905550338160060160006101000a81548173ffffffffffffffffffffffffffffffffffffffff021916908373ffffffffffffffffffffffffffffffffffffffff1602179055508060010154600660008282546123a49190613a81565b925050819055508060040160049054906101000a900473ffffffffffffffffffffffffffffffffffffffff1673ffffffffffffffffffffffffffffffffffffffff163373ffffffffffffffffffffffffffffffffffffffff167ffdb2bc0ebc2e58404f3ad5b20d3ec351f2b7b7bf6a21e18beaa7d296d2f01ba583600101546040516124309190613902565b60405180910390a36000600960009054906101000a900473ffffffffffffffffffffffffffffffffffffffff1673ffffffffffffffffffffffffffffffffffffffff1663a9059cbb8360040160049054906101000a900473ffffffffffffffffffffffffffffffffffffffff1684600101546040518363ffffffff1660e01b81526004016124bf92919061375b565b602060405180830381600087803b1580156124d957600080fd5b505af11580156124ed573d6000803e3d6000fd5b505050506040513d601f19601f820116820180604052508101906125119190612f48565b90508061251d57600080fd5b5050565b600061253083600001836127e7565b60001c905092915050565b600061254982600001612838565b9050919050565b61255a82826121c4565b5050565b600061256a8383612849565b6125c35782600001829080600181540180825580915050600190039060005260206000200160009091909190915055826000018054905083600101600084815260200190815260200160002081905550600190506125c8565b600090505b92915050565b60007f01ffc9a7000000000000000000000000000000000000000000000000000000007bffffffffffffffffffffffffffffffffffffffffffffffffffffffff1916827bffffffffffffffffffffffffffffffffffffffffffffffffffffffff1916149050919050565b612642828261155b565b156127165760006001600084815260200190815260200160002060000160008373ffffffffffffffffffffffffffffffffffffffff1673ffffffffffffffffffffffffffffffffffffffff16815260200190815260200160002060006101000a81548160ff0219169083151502179055506126bb6121f8565b73ffffffffffffffffffffffffffffffffffffffff168173ffffffffffffffffffffffffffffffffffffffff16837ff6391f5c32d9c69d2a47ea670b442974b53935d1edc7fd64eb21e047a839171b60405160405180910390a45b5050565b6000612742836000018373ffffffffffffffffffffffffffffffffffffffff1660001b61286c565b905092915050565b612754828261155b565b6127e3576127798173ffffffffffffffffffffffffffffffffffffffff1660146129f2565b6127878360001c60206129f2565b604051602001612798929190613706565b6040516020818303038152906040526040517f08c379a00000000000000000000000000000000000000000000000000000000081526004016127da91906137fe565b60405180910390fd5b5050565b6000826000018281548110612825577f4e487b7100000000000000000000000000000000000000000000000000000000600052603260045260246000fd5b9060005260206000200154905092915050565b600081600001805490509050919050565b600080836001016000848152602001908152602001600020541415905092915050565b600080836001016000848152602001908152602001600020549050600081146129e657600060018261289e9190613b31565b90506000600186600001805490506128b69190613b31565b90508181146129715760008660000182815481106128fd577f4e487b7100000000000000000000000000000000000000000000000000000000600052603260045260246000fd5b9060005260206000200154905080876000018481548110612947577f4e487b7100000000000000000000000000000000000000000000000000000000600052603260045260246000fd5b90600052602060002001819055508387600101600083815260200190815260200160002081905550505b856000018054806129ab577f4e487b7100000000000000000000000000000000000000000000000000000000600052603160045260246000fd5b6001900381819060005260206000200160009055905585600101600086815260200190815260200160002060009055600193505050506129ec565b60009150505b92915050565b606060006002836002612a059190613ad7565b612a0f9190613a81565b67ffffffffffffffff811115612a4e577f4e487b7100000000000000000000000000000000000000000000000000000000600052604160045260246000fd5b6040519080825280601f01601f191660200182016040528015612a805781602001600182028036833780820191505090505b5090507f300000000000000000000000000000000000000000000000000000000000000081600081518110612ade577f4e487b7100000000000000000000000000000000000000000000000000000000600052603260045260246000fd5b60200101907effffffffffffffffffffffffffffffffffffffffffffffffffffffffffffff1916908160001a9053507f780000000000000000000000000000000000000000000000000000000000000081600181518110612b68577f4e487b7100000000000000000000000000000000000000000000000000000000600052603260045260246000fd5b60200101907effffffffffffffffffffffffffffffffffffffffffffffffffffffffffffff1916908160001a90535060006001846002612ba89190613ad7565b612bb29190613a81565b90505b6001811115612c9e577f3031323334353637383961626364656600000000000000000000000000000000600f861660108110612c1a577f4e487b7100000000000000000000000000000000000000000000000000000000600052603260045260246000fd5b1a60f81b828281518110612c57577f4e487b7100000000000000000000000000000000000000000000000000000000600052603260045260246000fd5b60200101907effffffffffffffffffffffffffffffffffffffffffffffffffffffffffffff1916908160001a905350600485901c945080612c9790613c6b565b9050612bb5565b5060008414612ce2576040517f08c379a0000000000000000000000000000000000000000000000000000000008152600401612cd990613840565b60405180910390fd5b8091505092915050565b604051806101a0016040528060008152602001600081526020016000815260200160008152602001600060ff168152602001600015158152602001600015158152602001600015158152602001600073ffffffffffffffffffffffffffffffffffffffff168152602001600073ffffffffffffffffffffffffffffffffffffffff168152602001600073ffffffffffffffffffffffffffffffffffffffff16815260200160608152602001606081525090565b828054612dab90613c95565b90600052602060002090601f016020900481019282612dcd5760008555612e14565b82601f10612de657803560ff1916838001178555612e14565b82800160010185558215612e14579182015b82811115612e13578235825591602001919060010190612df8565b5b509050612e219190612e25565b5090565b5b80821115612e3e576000816000905550600101612e26565b5090565b600081359050612e5181613f85565b92915050565b600081359050612e6681613f9c565b92915050565b600081519050612e7b81613f9c565b92915050565b600081359050612e9081613fb3565b92915050565b600081359050612ea581613fca565b92915050565b60008083601f840112612ebd57600080fd5b8235905067ffffffffffffffff811115612ed657600080fd5b602083019150836001820283011115612eee57600080fd5b9250929050565b600081359050612f0481613fe1565b92915050565b600081359050612f1981613ff8565b92915050565b600060208284031215612f3157600080fd5b6000612f3f84828501612e42565b91505092915050565b600060208284031215612f5a57600080fd5b6000612f6884828501612e6c565b91505092915050565b600060208284031215612f8357600080fd5b6000612f9184828501612e81565b91505092915050565b60008060408385031215612fad57600080fd5b6000612fbb85828601612e81565b9250506020612fcc85828601612e42565b9150509250929050565b60008060408385031215612fe957600080fd5b6000612ff785828601612e81565b925050602061300885828601612ef5565b9150509250929050565b60006020828403121561302457600080fd5b600061303284828501612e96565b91505092915050565b600080600080600080600080600060e08a8c03121561305957600080fd5b60008a013567ffffffffffffffff81111561307357600080fd5b61307f8c828d01612eab565b995099505060208a013567ffffffffffffffff81111561309e57600080fd5b6130aa8c828d01612eab565b975097505060406130bd8c828d01612e42565b95505060606130ce8c828d01612ef5565b94505060806130df8c828d01612ef5565b93505060a06130f08c828d01612ef5565b92505060c06131018c828d01612f0a565b9150509295985092959850929598565b60006020828403121561312357600080fd5b600061313184828501612ef5565b91505092915050565b6000806040838503121561314d57600080fd5b600061315b85828601612ef5565b925050602061316c85828601612e57565b9150509250929050565b600061318283836131c0565b60208301905092915050565b600061319a8383613499565b905092915050565b6131ab81613c02565b82525050565b6131ba81613b77565b82525050565b6131c981613b65565b82525050565b6131d881613b65565b82525050565b60006131e9826139f7565b6131f38185613a32565b93506131fe836139d7565b8060005b8381101561322f5781516132168882613176565b975061322183613a18565b925050600181019050613202565b5085935050505092915050565b600061324782613a02565b6132518185613a43565b935083602082028501613263856139e7565b8060005b8581101561329f5784840389528151613280858261318e565b945061328b83613a25565b925060208a01995050600181019050613267565b50829750879550505050505092915050565b6132ba81613b89565b82525050565b6132c981613b89565b82525050565b6132d881613b95565b82525050565b60006132e982613a0d565b6132f38185613a54565b9350613303818560208601613c38565b61330c81613d6e565b840191505092915050565b600061332282613a0d565b61332c8185613a65565b935061333c818560208601613c38565b61334581613d6e565b840191505092915050565b600061335b82613a0d565b6133658185613a76565b9350613375818560208601613c38565b80840191505092915050565b600061338e602d83613a65565b915061339982613d7f565b604082019050919050565b60006133b1602083613a65565b91506133bc82613dce565b602082019050919050565b60006133d4603683613a65565b91506133df82613df7565b604082019050919050565b60006133f7602b83613a65565b915061340282613e46565b604082019050919050565b600061341a603083613a65565b915061342582613e95565b604082019050919050565b600061343d601783613a76565b915061344882613ee4565b601782019050919050565b6000613460601183613a76565b915061346b82613f0d565b601182019050919050565b6000613483602f83613a65565b915061348e82613f36565b604082019050919050565b60006101a0830160008301516134b260008601826136d9565b5060208301516134c560208601826136d9565b5060408301516134d860408601826136d9565b5060608301516134eb60608601826136d9565b5060808301516134fe60808601826136f7565b5060a083015161351160a08601826132b1565b5060c083015161352460c08601826132b1565b5060e083015161353760e08601826132b1565b5061010083015161354c6101008601826131b1565b506101208301516135616101208601826131c0565b506101408301516135766101408601826131c0565b5061016083015184820361016086015261359082826132de565b9150506101808301518482036101808601526135ac82826132de565b9150508091505092915050565b60006101a0830160008301516135d260008601826136d9565b5060208301516135e560208601826136d9565b5060408301516135f860408601826136d9565b50606083015161360b60608601826136d9565b50608083015161361e60808601826136f7565b5060a083015161363160a08601826132b1565b5060c083015161364460c08601826132b1565b5060e083015161365760e08601826132b1565b5061010083015161366c6101008601826131b1565b506101208301516136816101208601826131c0565b506101408301516136966101408601826131c0565b506101608301518482036101608601526136b082826132de565b9150506101808301518482036101808601526136cc82826132de565b9150508091505092915050565b6136e281613beb565b82525050565b6136f181613beb565b82525050565b61370081613bf5565b82525050565b600061371182613430565b915061371d8285613350565b915061372882613453565b91506137348284613350565b91508190509392505050565b600060208201905061375560008301846131cf565b92915050565b600060408201905061377060008301856131a2565b61377d60208301846136e8565b9392505050565b6000602082019050818103600083015261379e81846131de565b905092915050565b600060208201905081810360008301526137c0818461323c565b905092915050565b60006020820190506137dd60008301846132c0565b92915050565b60006020820190506137f860008301846132cf565b92915050565b600060208201905081810360008301526138188184613317565b905092915050565b6000602082019050818103600083015261383981613381565b9050919050565b60006020820190508181036000830152613859816133a4565b9050919050565b60006020820190508181036000830152613879816133c7565b9050919050565b60006020820190508181036000830152613899816133ea565b9050919050565b600060208201905081810360008301526138b98161340d565b9050919050565b600060208201905081810360008301526138d981613476565b9050919050565b600060208201905081810360008301526138fa81846135b9565b905092915050565b600060208201905061391760008301846136e8565b92915050565b600061018082019050613933600083018f6136e8565b613940602083018e6136e8565b61394d604083018d6136e8565b61395a606083018c6136e8565b613967608083018b6136e8565b61397460a083018a6136e8565b61398160c08301896136e8565b61398e60e08301886136e8565b61399c6101008301876136e8565b6139aa6101208301866136e8565b6139b86101408301856136e8565b6139c66101608301846136e8565b9d9c50505050505050505050505050565b6000819050602082019050919050565b6000819050602082019050919050565b600081519050919050565b600081519050919050565b600081519050919050565b6000602082019050919050565b6000602082019050919050565b600082825260208201905092915050565b600082825260208201905092915050565b600082825260208201905092915050565b600082825260208201905092915050565b600081905092915050565b6000613a8c82613beb565b9150613a9783613beb565b9250827fffffffffffffffffffffffffffffffffffffffffffffffffffffffffffffffff03821115613acc57613acb613d10565b5b828201905092915050565b6000613ae282613beb565b9150613aed83613beb565b9250817fffffffffffffffffffffffffffffffffffffffffffffffffffffffffffffffff0483118215151615613b2657613b25613d10565b5b828202905092915050565b6000613b3c82613beb565b9150613b4783613beb565b925082821015613b5a57613b59613d10565b5b828203905092915050565b6000613b7082613bcb565b9050919050565b6000613b8282613bcb565b9050919050565b60008115159050919050565b6000819050919050565b60007fffffffff0000000000000000000000000000000000000000000000000000000082169050919050565b600073ffffffffffffffffffffffffffffffffffffffff82169050919050565b6000819050919050565b600060ff82169050919050565b6000613c0d82613c14565b9050919050565b6000613c1f82613c26565b9050919050565b6000613c3182613bcb565b9050919050565b60005b83811015613c56578082015181840152602081019050613c3b565b83811115613c65576000848401525b50505050565b6000613c7682613beb565b91506000821415613c8a57613c89613d10565b5b600182039050919050565b60006002820490506001821680613cad57607f821691505b60208210811415613cc157613cc0613d3f565b5b50919050565b6000613cd282613beb565b91507fffffffffffffffffffffffffffffffffffffffffffffffffffffffffffffffff821415613d0557613d04613d10565b5b600182019050919050565b7f4e487b7100000000000000000000000000000000000000000000000000000000600052601160045260246000fd5b7f4e487b7100000000000000000000000000000000000000000000000000000000600052602260045260246000fd5b6000601f19601f8301169050919050565b7f5265696d62757273656d656e74207265717565737420686173206265656e206460008201527f656e69656420616c726561647900000000000000000000000000000000000000602082015250565b7f537472696e67733a20686578206c656e67746820696e73756666696369656e74600082015250565b7f416e20417070726f766572206973206e6f7420616c6c6f77656420746f20707260008201527f6f6365737320697473206f776e20726571756573747300000000000000000000602082015250565b7f5265696d62757273656d656e74207265717565737420686173206265656e207060008201527f61696420616c7265616479000000000000000000000000000000000000000000602082015250565b7f5265696d62757273656d656e74207265717565737420686173206265656e207060008201527f726f63657373656420616c726561647900000000000000000000000000000000602082015250565b7f416363657373436f6e74726f6c3a206163636f756e7420000000000000000000600082015250565b7f206973206d697373696e6720726f6c6520000000000000000000000000000000600082015250565b7f416363657373436f6e74726f6c3a2063616e206f6e6c792072656e6f756e636560008201527f20726f6c657320666f722073656c660000000000000000000000000000000000602082015250565b613f8e81613b65565b8114613f9957600080fd5b50565b613fa581613b89565b8114613fb057600080fd5b50565b613fbc81613b95565b8114613fc757600080fd5b50565b613fd381613b9f565b8114613fde57600080fd5b50565b613fea81613beb565b8114613ff557600080fd5b50565b61400181613bf5565b811461400c57600080fd5b5056fe4f6e6c7920617070726f7665722063616e20616464206e6577206d656d626572734f6e6c7920617070726f7665722063616e206f666673657420636172626f6e2063726564697473596f7520617265206e6f7420616c6c6f77656420746f206372656174652072657175657374734f6e6c7920617070726f766572732061726520616c6c6f77656420746f2070726f63657373207265717565737473a2646970667358221220a59cad05490b624b56620413a5d1858def9dc11d291b60a27fac7c55d1529c0e64736f6c63430008040033",
  "linkReferences": {},
  "deployedLinkReferences": {}
}