{
  "_format": "hh-sol-artifact-1",
  "contractName": "ExpenseDAO",
  "sourceName": "contracts/ExpenseDAO.sol",
  "abi": [
    {
      "inputs": [
        {
          "internalType": "address",
          "name": "stableToken",
          "type": "address"
        },
        {
          "internalType": "address[]",
          "name": "approvers",
          "type": "address[]"
        },
        {
          "internalType": "address[]",
          "name": "members",
          "type": "address[]"
        }
      ],
      "stateMutability": "nonpayable",
      "type": "constructor"
    },
    {
      "anonymous": false,
      "inputs": [
        {
          "indexed": true,
          "internalType": "address",
          "name": "fromAddress",
          "type": "address"
        },
        {
          "indexed": false,
          "internalType": "uint256",
          "name": "amount",
          "type": "uint256"
        }
      ],
      "name": "BalanceIncreased",
      "type": "event"
    },
    {
      "anonymous": false,
      "inputs": [
        {
          "indexed": true,
          "internalType": "address",
          "name": "member",
          "type": "address"
        },
        {
          "indexed": false,
          "internalType": "uint256",
          "name": "amount",
          "type": "uint256"
        }
      ],
      "name": "NewRequestCreated",
      "type": "event"
    },
    {
      "anonymous": false,
      "inputs": [
        {
          "indexed": true,
          "internalType": "address",
          "name": "approver",
          "type": "address"
        },
        {
          "indexed": true,
          "internalType": "address",
          "name": "reimbursementAddress",
          "type": "address"
        },
        {
          "indexed": false,
          "internalType": "uint256",
          "name": "amount",
          "type": "uint256"
        }
      ],
      "name": "PaymentTransfered",
      "type": "event"
    },
    {
      "anonymous": false,
      "inputs": [
        {
          "indexed": true,
          "internalType": "bytes32",
          "name": "role",
          "type": "bytes32"
        },
        {
          "indexed": true,
          "internalType": "bytes32",
          "name": "previousAdminRole",
          "type": "bytes32"
        },
        {
          "indexed": true,
          "internalType": "bytes32",
          "name": "newAdminRole",
          "type": "bytes32"
        }
      ],
      "name": "RoleAdminChanged",
      "type": "event"
    },
    {
      "anonymous": false,
      "inputs": [
        {
          "indexed": true,
          "internalType": "bytes32",
          "name": "role",
          "type": "bytes32"
        },
        {
          "indexed": true,
          "internalType": "address",
          "name": "account",
          "type": "address"
        },
        {
          "indexed": true,
          "internalType": "address",
          "name": "sender",
          "type": "address"
        }
      ],
      "name": "RoleGranted",
      "type": "event"
    },
    {
      "anonymous": false,
      "inputs": [
        {
          "indexed": true,
          "internalType": "bytes32",
          "name": "role",
          "type": "bytes32"
        },
        {
          "indexed": true,
          "internalType": "address",
          "name": "account",
          "type": "address"
        },
        {
          "indexed": true,
          "internalType": "address",
          "name": "sender",
          "type": "address"
        }
      ],
      "name": "RoleRevoked",
      "type": "event"
    },
    {
      "inputs": [],
      "name": "APPROVER_ROLE",
      "outputs": [
        {
          "internalType": "bytes32",
          "name": "",
          "type": "bytes32"
        }
      ],
      "stateMutability": "view",
      "type": "function"
    },
    {
      "inputs": [],
      "name": "DEFAULT_ADMIN_ROLE",
      "outputs": [
        {
          "internalType": "bytes32",
          "name": "",
          "type": "bytes32"
        }
      ],
      "stateMutability": "view",
      "type": "function"
    },
    {
      "inputs": [],
      "name": "MEMBER_ROLE",
      "outputs": [
        {
          "internalType": "bytes32",
          "name": "",
          "type": "bytes32"
        }
      ],
      "stateMutability": "view",
      "type": "function"
    },
    {
      "inputs": [
        {
          "internalType": "address",
          "name": "member",
          "type": "address"
        }
      ],
      "name": "addMember",
      "outputs": [],
      "stateMutability": "nonpayable",
      "type": "function"
    },
    {
      "inputs": [
        {
          "internalType": "string",
          "name": "description",
          "type": "string"
        },
        {
          "internalType": "string",
          "name": "url",
          "type": "string"
        },
        {
          "internalType": "address",
          "name": "reimbursementAddress",
          "type": "address"
        },
        {
          "internalType": "uint256",
          "name": "amount",
          "type": "uint256"
        },
        {
          "internalType": "uint256",
          "name": "date",
          "type": "uint256"
        },
        {
          "internalType": "uint8",
          "name": "category",
          "type": "uint8"
        }
      ],
      "name": "createRequest",
      "outputs": [],
      "stateMutability": "nonpayable",
      "type": "function"
    },
    {
      "inputs": [],
      "name": "getApprovers",
      "outputs": [
        {
          "internalType": "address[]",
          "name": "approvers",
          "type": "address[]"
        }
      ],
      "stateMutability": "view",
      "type": "function"
    },
    {
      "inputs": [],
      "name": "getMembers",
      "outputs": [
        {
          "internalType": "address[]",
          "name": "members",
          "type": "address[]"
        }
      ],
      "stateMutability": "view",
      "type": "function"
    },
    {
      "inputs": [],
      "name": "getMembersRequests",
      "outputs": [
        {
          "components": [
            {
              "internalType": "uint256",
              "name": "id",
              "type": "uint256"
            },
            {
              "internalType": "uint256",
              "name": "amount",
              "type": "uint256"
            },
            {
              "internalType": "uint256",
              "name": "date",
              "type": "uint256"
            },
            {
              "internalType": "uint8",
              "name": "category",
              "type": "uint8"
            },
            {
              "internalType": "bool",
              "name": "processed",
              "type": "bool"
            },
            {
              "internalType": "bool",
              "name": "approved",
              "type": "bool"
            },
            {
              "internalType": "bool",
              "name": "paid",
              "type": "bool"
            },
            {
              "internalType": "address payable",
              "name": "reimbursementAddress",
              "type": "address"
            },
            {
              "internalType": "address",
              "name": "member",
              "type": "address"
            },
            {
              "internalType": "address",
              "name": "paidBy",
              "type": "address"
            },
            {
              "internalType": "string",
              "name": "description",
              "type": "string"
            },
            {
              "internalType": "string",
              "name": "url",
              "type": "string"
            }
          ],
          "internalType": "struct ExpenseDAO.ReimbursementRequest[]",
          "name": "requests",
          "type": "tuple[]"
        }
      ],
      "stateMutability": "view",
      "type": "function"
    },
    {
      "inputs": [
        {
          "internalType": "uint256",
          "name": "requestId",
          "type": "uint256"
        }
      ],
      "name": "getRequest",
      "outputs": [
        {
          "components": [
            {
              "internalType": "uint256",
              "name": "id",
              "type": "uint256"
            },
            {
              "internalType": "uint256",
              "name": "amount",
              "type": "uint256"
            },
            {
              "internalType": "uint256",
              "name": "date",
              "type": "uint256"
            },
            {
              "internalType": "uint8",
              "name": "category",
              "type": "uint8"
            },
            {
              "internalType": "bool",
              "name": "processed",
              "type": "bool"
            },
            {
              "internalType": "bool",
              "name": "approved",
              "type": "bool"
            },
            {
              "internalType": "bool",
              "name": "paid",
              "type": "bool"
            },
            {
              "internalType": "address payable",
              "name": "reimbursementAddress",
              "type": "address"
            },
            {
              "internalType": "address",
              "name": "member",
              "type": "address"
            },
            {
              "internalType": "address",
              "name": "paidBy",
              "type": "address"
            },
            {
              "internalType": "string",
              "name": "description",
              "type": "string"
            },
            {
              "internalType": "string",
              "name": "url",
              "type": "string"
            }
          ],
          "internalType": "struct ExpenseDAO.ReimbursementRequest",
          "name": "",
          "type": "tuple"
        }
      ],
      "stateMutability": "view",
      "type": "function"
    },
    {
      "inputs": [],
      "name": "getRequests",
      "outputs": [
        {
          "components": [
            {
              "internalType": "uint256",
              "name": "id",
              "type": "uint256"
            },
            {
              "internalType": "uint256",
              "name": "amount",
              "type": "uint256"
            },
            {
              "internalType": "uint256",
              "name": "date",
              "type": "uint256"
            },
            {
              "internalType": "uint8",
              "name": "category",
              "type": "uint8"
            },
            {
              "internalType": "bool",
              "name": "processed",
              "type": "bool"
            },
            {
              "internalType": "bool",
              "name": "approved",
              "type": "bool"
            },
            {
              "internalType": "bool",
              "name": "paid",
              "type": "bool"
            },
            {
              "internalType": "address payable",
              "name": "reimbursementAddress",
              "type": "address"
            },
            {
              "internalType": "address",
              "name": "member",
              "type": "address"
            },
            {
              "internalType": "address",
              "name": "paidBy",
              "type": "address"
            },
            {
              "internalType": "string",
              "name": "description",
              "type": "string"
            },
            {
              "internalType": "string",
              "name": "url",
              "type": "string"
            }
          ],
          "internalType": "struct ExpenseDAO.ReimbursementRequest[]",
          "name": "requests",
          "type": "tuple[]"
        }
      ],
      "stateMutability": "view",
      "type": "function"
    },
    {
      "inputs": [
        {
          "internalType": "bytes32",
          "name": "role",
          "type": "bytes32"
        }
      ],
      "name": "getRoleAdmin",
      "outputs": [
        {
          "internalType": "bytes32",
          "name": "",
          "type": "bytes32"
        }
      ],
      "stateMutability": "view",
      "type": "function"
    },
    {
      "inputs": [
        {
          "internalType": "bytes32",
          "name": "role",
          "type": "bytes32"
        },
        {
          "internalType": "uint256",
          "name": "index",
          "type": "uint256"
        }
      ],
      "name": "getRoleMember",
      "outputs": [
        {
          "internalType": "address",
          "name": "",
          "type": "address"
        }
      ],
      "stateMutability": "view",
      "type": "function"
    },
    {
      "inputs": [
        {
          "internalType": "bytes32",
          "name": "role",
          "type": "bytes32"
        }
      ],
      "name": "getRoleMemberCount",
      "outputs": [
        {
          "internalType": "uint256",
          "name": "",
          "type": "uint256"
        }
      ],
      "stateMutability": "view",
      "type": "function"
    },
    {
      "inputs": [],
      "name": "getSummary",
      "outputs": [
        {
          "internalType": "uint256",
          "name": "requestsNum",
          "type": "uint256"
        },
        {
          "internalType": "uint256",
          "name": "approvedNum",
          "type": "uint256"
        },
        {
          "internalType": "uint256",
          "name": "deniedNum",
          "type": "uint256"
        },
        {
          "internalType": "uint256",
          "name": "category1",
          "type": "uint256"
        },
        {
          "internalType": "uint256",
          "name": "category2",
          "type": "uint256"
        },
        {
          "internalType": "uint256",
          "name": "category3",
          "type": "uint256"
        },
        {
          "internalType": "uint256",
          "name": "category4",
          "type": "uint256"
        },
        {
          "internalType": "uint256",
          "name": "category5",
          "type": "uint256"
        },
        {
          "internalType": "uint256",
          "name": "category6",
          "type": "uint256"
        },
        {
          "internalType": "uint256",
          "name": "paidTotal",
          "type": "uint256"
        }
      ],
      "stateMutability": "view",
      "type": "function"
    },
    {
      "inputs": [
        {
          "internalType": "bytes32",
          "name": "role",
          "type": "bytes32"
        },
        {
          "internalType": "address",
          "name": "account",
          "type": "address"
        }
      ],
      "name": "grantRole",
      "outputs": [],
      "stateMutability": "nonpayable",
      "type": "function"
    },
    {
      "inputs": [
        {
          "internalType": "bytes32",
          "name": "role",
          "type": "bytes32"
        },
        {
          "internalType": "address",
          "name": "account",
          "type": "address"
        }
      ],
      "name": "hasRole",
      "outputs": [
        {
          "internalType": "bool",
          "name": "",
          "type": "bool"
        }
      ],
      "stateMutability": "view",
      "type": "function"
    },
    {
      "inputs": [],
      "name": "isApprover",
      "outputs": [
        {
          "internalType": "bool",
          "name": "",
          "type": "bool"
        }
      ],
      "stateMutability": "view",
      "type": "function"
    },
    {
      "inputs": [],
      "name": "isMember",
      "outputs": [
        {
          "internalType": "bool",
          "name": "",
          "type": "bool"
        }
      ],
      "stateMutability": "view",
      "type": "function"
    },
    {
      "inputs": [
        {
          "internalType": "uint256",
          "name": "requestId",
          "type": "uint256"
        },
        {
          "internalType": "bool",
          "name": "approved",
          "type": "bool"
        }
      ],
      "name": "processRequest",
      "outputs": [],
      "stateMutability": "nonpayable",
      "type": "function"
    },
    {
      "inputs": [
        {
          "internalType": "address",
          "name": "member",
          "type": "address"
        }
      ],
      "name": "removeMember",
      "outputs": [],
      "stateMutability": "nonpayable",
      "type": "function"
    },
    {
      "inputs": [
        {
          "internalType": "bytes32",
          "name": "role",
          "type": "bytes32"
        },
        {
          "internalType": "address",
          "name": "account",
          "type": "address"
        }
      ],
      "name": "renounceRole",
      "outputs": [],
      "stateMutability": "nonpayable",
      "type": "function"
    },
    {
      "inputs": [
        {
          "internalType": "bytes32",
          "name": "role",
          "type": "bytes32"
        },
        {
          "internalType": "address",
          "name": "account",
          "type": "address"
        }
      ],
      "name": "revokeRole",
      "outputs": [],
      "stateMutability": "nonpayable",
      "type": "function"
    },
    {
      "inputs": [
        {
          "internalType": "bytes4",
          "name": "interfaceId",
          "type": "bytes4"
        }
      ],
      "name": "supportsInterface",
      "outputs": [
        {
          "internalType": "bool",
          "name": "",
          "type": "bool"
        }
      ],
      "stateMutability": "view",
      "type": "function"
    },
    {
      "stateMutability": "payable",
      "type": "receive"
    }
  ],
  "bytecode": "0x60806040523480156200001157600080fd5b50604051620044183803806200441883398181016040528101906200003791906200055d565b600160008190555082600760006101000a81548173ffffffffffffffffffffffffffffffffffffffff021916908373ffffffffffffffffffffffffffffffffffffffff16021790555060005b82518110156200016c57620001007f5ff1fb0ce9089603e6e193667ed17164e0360a6148f4a39fc194055588948a31848381518110620000ec577f4e487b7100000000000000000000000000000000000000000000000000000000600052603260045260246000fd5b60200260200101516200020d60201b60201c565b620001566000801b84838151811062000142577f4e487b7100000000000000000000000000000000000000000000000000000000600052603260045260246000fd5b60200260200101516200020d60201b60201c565b80806200016390620006b1565b91505062000083565b5060005b81518110156200020357620001ed7fffa60083152bd11704a80cc8c7a409dad8aa74288b454a3ba0e94c0abc7cf168838381518110620001d9577f4e487b7100000000000000000000000000000000000000000000000000000000600052603260045260246000fd5b60200260200101516200020d60201b60201c565b8080620001fa90620006b1565b91505062000170565b5050505062000788565b6200021f82826200022360201b60201c565b5050565b6200023a82826200026b60201b62001ca71760201c565b6200026681600260008581526020019081526020016000206200035c60201b62001d871790919060201c565b505050565b6200027d82826200039460201b60201c565b6200035857600180600084815260200190815260200160002060000160008373ffffffffffffffffffffffffffffffffffffffff1673ffffffffffffffffffffffffffffffffffffffff16815260200190815260200160002060006101000a81548160ff021916908315150217905550620002fd620003ff60201b60201c565b73ffffffffffffffffffffffffffffffffffffffff168173ffffffffffffffffffffffffffffffffffffffff16837f2f8788117e7eff1d82e926ec794901d17c78024a50270940304540a733656f0d60405160405180910390a45b5050565b60006200038c836000018373ffffffffffffffffffffffffffffffffffffffff1660001b6200040760201b60201c565b905092915050565b60006001600084815260200190815260200160002060000160008373ffffffffffffffffffffffffffffffffffffffff1673ffffffffffffffffffffffffffffffffffffffff16815260200190815260200160002060009054906101000a900460ff16905092915050565b600033905090565b60006200041b83836200048160201b60201c565b620004765782600001829080600181540180825580915050600190039060005260206000200160009091909190915055826000018054905083600101600084815260200190815260200160002081905550600190506200047b565b600090505b92915050565b600080836001016000848152602001908152602001600020541415905092915050565b6000620004bb620004b5846200060e565b620005e5565b90508083825260208201905082856020860282011115620004db57600080fd5b60005b858110156200050f5781620004f4888262000519565b845260208401935060208301925050600181019050620004de565b5050509392505050565b6000815190506200052a816200076e565b92915050565b600082601f8301126200054257600080fd5b815162000554848260208601620004a4565b91505092915050565b6000806000606084860312156200057357600080fd5b6000620005838682870162000519565b935050602084015167ffffffffffffffff811115620005a157600080fd5b620005af8682870162000530565b925050604084015167ffffffffffffffff811115620005cd57600080fd5b620005db8682870162000530565b9150509250925092565b6000620005f162000604565b9050620005ff82826200067b565b919050565b6000604051905090565b600067ffffffffffffffff8211156200062c576200062b6200072e565b5b602082029050602081019050919050565b60006200064a8262000651565b9050919050565b600073ffffffffffffffffffffffffffffffffffffffff82169050919050565b6000819050919050565b62000686826200075d565b810181811067ffffffffffffffff82111715620006a857620006a76200072e565b5b80604052505050565b6000620006be8262000671565b91507fffffffffffffffffffffffffffffffffffffffffffffffffffffffffffffffff821415620006f457620006f3620006ff565b5b600182019050919050565b7f4e487b7100000000000000000000000000000000000000000000000000000000600052601160045260246000fd5b7f4e487b7100000000000000000000000000000000000000000000000000000000600052604160045260246000fd5b6000601f19601f8301169050919050565b62000779816200063d565b81146200078557600080fd5b50565b613c8080620007986000396000f3fe6080604052600436106101445760003560e01c80638813ce12116100b6578063b3fc09711161006f578063b3fc0971146104c2578063c58343ef146104eb578063ca15c87314610528578063ca6d56dc14610565578063d02982cf1461058e578063d547741f146105b957610199565b80638813ce121461039c5780639010d07c146103c757806391d14854146104045780639eab525314610441578063a10f469e1461046c578063a217fddf1461049757610199565b806336568abe1161010857806336568abe146102955780634051ddac146102be5780634245962b146102f25780636cb3e8ef1461031d57806370483623146103485780637d12ba501461037157610199565b806301ffc9a71461019e5780630b1ca49a146101db578063238b47ec14610204578063248a9ca31461022f5780632f2ff15d1461026c57610199565b36610199573373ffffffffffffffffffffffffffffffffffffffff167f7a702e80a9c183a6ce9d6732991df2e914555ba35a364a70aed2433984e7544b3460405161018f9190613530565b60405180910390a2005b600080fd5b3480156101aa57600080fd5b506101c560048036038101906101c09190612cc0565b6105e2565b6040516101d29190613416565b60405180910390f35b3480156101e757600080fd5b5061020260048036038101906101fd9190612bcd565b61065c565b005b34801561021057600080fd5b5061021961072d565b6040516102269190613416565b60405180910390f35b34801561023b57600080fd5b5061025660048036038101906102519190612c1f565b61075e565b6040516102639190613431565b60405180910390f35b34801561027857600080fd5b50610293600480360381019061028e9190612c48565b61077e565b005b3480156102a157600080fd5b506102bc60048036038101906102b79190612c48565b61079f565b005b3480156102ca57600080fd5b506102d3610822565b6040516102e99a9998979695949392919061354b565b60405180910390f35b3480156102fe57600080fd5b506103076108ed565b6040516103149190613431565b60405180910390f35b34801561032957600080fd5b50610332610911565b60405161033f91906133d2565b60405180910390f35b34801561035457600080fd5b5061036f600480360381019061036a9190612dd5565b610a71565b005b34801561037d57600080fd5b50610386610b8f565b60405161039391906133f4565b60405180910390f35b3480156103a857600080fd5b506103b161100d565b6040516103be91906133f4565b60405180910390f35b3480156103d357600080fd5b506103ee60048036038101906103e99190612c84565b6113c6565b6040516103fb919061338e565b60405180910390f35b34801561041057600080fd5b5061042b60048036038101906104269190612c48565b6113f5565b6040516104389190613416565b60405180910390f35b34801561044d57600080fd5b50610456611460565b60405161046391906133d2565b60405180910390f35b34801561047857600080fd5b506104816115c0565b60405161048e9190613431565b60405180910390f35b3480156104a357600080fd5b506104ac6115e4565b6040516104b99190613431565b60405180910390f35b3480156104ce57600080fd5b506104e960048036038101906104e49190612ce9565b6115eb565b005b3480156104f757600080fd5b50610512600480360381019061050d9190612dac565b61189d565b60405161051f919061350e565b60405180910390f35b34801561053457600080fd5b5061054f600480360381019061054a9190612c1f565b611b7d565b60405161055c9190613530565b60405180910390f35b34801561057157600080fd5b5061058c60048036038101906105879190612bcd565b611ba1565b005b34801561059a57600080fd5b506105a3611c55565b6040516105b09190613416565b60405180910390f35b3480156105c557600080fd5b506105e060048036038101906105db9190612c48565b611c86565b005b60007f5a05180f000000000000000000000000000000000000000000000000000000007bffffffffffffffffffffffffffffffffffffffffffffffffffffffff1916827bffffffffffffffffffffffffffffffffffffffffffffffffffffffff19161480610655575061065482611db7565b5b9050919050565b6040518060400160405280602081526020017f4f6e6c7920617070726f7665722063616e2072656d6f7665206d656d626572738152506106bc7f5ff1fb0ce9089603e6e193667ed17164e0360a6148f4a39fc194055588948a31336113f5565b81906106fe576040517f08c379a00000000000000000000000000000000000000000000000000000000081526004016106f5919061344c565b60405180910390fd5b506107297fffa60083152bd11704a80cc8c7a409dad8aa74288b454a3ba0e94c0abc7cf16883611e31565b5050565b60006107597f5ff1fb0ce9089603e6e193667ed17164e0360a6148f4a39fc194055588948a31336113f5565b905090565b600060016000838152602001908152602001600020600101549050919050565b6107878261075e565b61079081611e65565b61079a8383611e79565b505050565b6107a7611ead565b73ffffffffffffffffffffffffffffffffffffffff168173ffffffffffffffffffffffffffffffffffffffff1614610814576040517f08c379a000000000000000000000000000000000000000000000000000000000815260040161080b906134ee565b60405180910390fd5b61081e8282611e31565b5050565b600080600080600080600080600080600354995060055498506004549750600a6000600160ff168152602001908152602001600020549650600a6000600260ff168152602001908152602001600020549550600a6000600360ff168152602001908152602001600020549450600a6000600460ff168152602001908152602001600020549350600a6000600560ff168152602001908152602001600020549250600a6000600660ff168152602001908152602001600020549150600654905090919293949596979899565b7f5ff1fb0ce9089603e6e193667ed17164e0360a6148f4a39fc194055588948a3181565b6060600061093e7f5ff1fb0ce9089603e6e193667ed17164e0360a6148f4a39fc194055588948a31611b7d565b90508067ffffffffffffffff811115610980577f4e487b7100000000000000000000000000000000000000000000000000000000600052604160045260246000fd5b6040519080825280602002602001820160405280156109ae5781602001602082028036833780820191505090505b50915060005b81811015610a6c576109e67f5ff1fb0ce9089603e6e193667ed17164e0360a6148f4a39fc194055588948a31826113c6565b838281518110610a1f577f4e487b7100000000000000000000000000000000000000000000000000000000600052603260045260246000fd5b602002602001019073ffffffffffffffffffffffffffffffffffffffff16908173ffffffffffffffffffffffffffffffffffffffff16815250508080610a64906138d7565b9150506109b4565b505090565b6040518060600160405280602e8152602001613bf2602e9139610ab47f5ff1fb0ce9089603e6e193667ed17164e0360a6148f4a39fc194055588948a31336113f5565b8190610af6576040517f08c379a0000000000000000000000000000000000000000000000000000000008152600401610aed919061344c565b60405180910390fd5b506000600860008581526020019081526020016000209050610b1781611eb5565b828160030160026101000a81548160ff0219169083151502179055508060030160029054906101000a900460ff1615610b705760056000815480929190610b5d906138d7565b9190505550610b6b81611f40565b610b89565b60046000815480929190610b83906138d7565b91905055505b50505050565b60606000600960003373ffffffffffffffffffffffffffffffffffffffff1673ffffffffffffffffffffffffffffffffffffffff1681526020019081526020016000208054905090508067ffffffffffffffff811115610c18577f4e487b7100000000000000000000000000000000000000000000000000000000600052604160045260246000fd5b604051908082528060200260200182016040528015610c5157816020015b610c3e6129a1565b815260200190600190039081610c365790505b50915060005b818110156110085760086000600960003373ffffffffffffffffffffffffffffffffffffffff1673ffffffffffffffffffffffffffffffffffffffff1681526020019081526020016000208381548110610cda577f4e487b7100000000000000000000000000000000000000000000000000000000600052603260045260246000fd5b90600052602060002001548152602001908152602001600020604051806101800160405290816000820154815260200160018201548152602001600282015481526020016003820160009054906101000a900460ff1660ff1660ff1681526020016003820160019054906101000a900460ff161515151581526020016003820160029054906101000a900460ff161515151581526020016003820160039054906101000a900460ff161515151581526020016003820160049054906101000a900473ffffffffffffffffffffffffffffffffffffffff1673ffffffffffffffffffffffffffffffffffffffff1673ffffffffffffffffffffffffffffffffffffffff1681526020016004820160009054906101000a900473ffffffffffffffffffffffffffffffffffffffff1673ffffffffffffffffffffffffffffffffffffffff1673ffffffffffffffffffffffffffffffffffffffff1681526020016005820160009054906101000a900473ffffffffffffffffffffffffffffffffffffffff1673ffffffffffffffffffffffffffffffffffffffff1673ffffffffffffffffffffffffffffffffffffffff168152602001600682018054610e9d906138a5565b80601f0160208091040260200160405190810160405280929190818152602001828054610ec9906138a5565b8015610f165780601f10610eeb57610100808354040283529160200191610f16565b820191906000526020600020905b815481529060010190602001808311610ef957829003601f168201915b50505050508152602001600782018054610f2f906138a5565b80601f0160208091040260200160405190810160405280929190818152602001828054610f5b906138a5565b8015610fa85780601f10610f7d57610100808354040283529160200191610fa8565b820191906000526020600020905b815481529060010190602001808311610f8b57829003601f168201915b505050505081525050838281518110610fea577f4e487b7100000000000000000000000000000000000000000000000000000000600052603260045260246000fd5b60200260200101819052508080611000906138d7565b915050610c57565b505090565b606060035467ffffffffffffffff811115611051577f4e487b7100000000000000000000000000000000000000000000000000000000600052604160045260246000fd5b60405190808252806020026020018201604052801561108a57816020015b6110776129a1565b81526020019060019003908161106f5790505b50905060005b6003548110156113c25760086000828152602001908152602001600020604051806101800160405290816000820154815260200160018201548152602001600282015481526020016003820160009054906101000a900460ff1660ff1660ff1681526020016003820160019054906101000a900460ff161515151581526020016003820160029054906101000a900460ff161515151581526020016003820160039054906101000a900460ff161515151581526020016003820160049054906101000a900473ffffffffffffffffffffffffffffffffffffffff1673ffffffffffffffffffffffffffffffffffffffff1673ffffffffffffffffffffffffffffffffffffffff1681526020016004820160009054906101000a900473ffffffffffffffffffffffffffffffffffffffff1673ffffffffffffffffffffffffffffffffffffffff1673ffffffffffffffffffffffffffffffffffffffff1681526020016005820160009054906101000a900473ffffffffffffffffffffffffffffffffffffffff1673ffffffffffffffffffffffffffffffffffffffff1673ffffffffffffffffffffffffffffffffffffffff168152602001600682018054611257906138a5565b80601f0160208091040260200160405190810160405280929190818152602001828054611283906138a5565b80156112d05780601f106112a5576101008083540402835291602001916112d0565b820191906000526020600020905b8154815290600101906020018083116112b357829003601f168201915b505050505081526020016007820180546112e9906138a5565b80601f0160208091040260200160405190810160405280929190818152602001828054611315906138a5565b80156113625780601f1061133757610100808354040283529160200191611362565b820191906000526020600020905b81548152906001019060200180831161134557829003601f168201915b5050505050815250508282815181106113a4577f4e487b7100000000000000000000000000000000000000000000000000000000600052603260045260246000fd5b602002602001018190525080806113ba906138d7565b915050611090565b5090565b60006113ed82600260008681526020019081526020016000206121d690919063ffffffff16565b905092915050565b60006001600084815260200190815260200160002060000160008373ffffffffffffffffffffffffffffffffffffffff1673ffffffffffffffffffffffffffffffffffffffff16815260200190815260200160002060009054906101000a900460ff16905092915050565b6060600061148d7fffa60083152bd11704a80cc8c7a409dad8aa74288b454a3ba0e94c0abc7cf168611b7d565b90508067ffffffffffffffff8111156114cf577f4e487b7100000000000000000000000000000000000000000000000000000000600052604160045260246000fd5b6040519080825280602002602001820160405280156114fd5781602001602082028036833780820191505090505b50915060005b818110156115bb576115357fffa60083152bd11704a80cc8c7a409dad8aa74288b454a3ba0e94c0abc7cf168826113c6565b83828151811061156e577f4e487b7100000000000000000000000000000000000000000000000000000000600052603260045260246000fd5b602002602001019073ffffffffffffffffffffffffffffffffffffffff16908173ffffffffffffffffffffffffffffffffffffffff168152505080806115b3906138d7565b915050611503565b505090565b7fffa60083152bd11704a80cc8c7a409dad8aa74288b454a3ba0e94c0abc7cf16881565b6000801b81565b6040518060600160405280602b8152602001613c20602b913961162e7fffa60083152bd11704a80cc8c7a409dad8aa74288b454a3ba0e94c0abc7cf168336113f5565b8190611670576040517f08c379a0000000000000000000000000000000000000000000000000000000008152600401611667919061344c565b60405180910390fd5b50600060036000815480929190611686906138d7565b919050559050600a60008460ff1660ff16815260200190815260200160002060008154809291906116b6906138d7565b91905055506000600860008381526020019081526020016000209050818160000181905550858160010181905550838160030160006101000a81548160ff021916908360ff1602179055508481600201819055508a8a82600601919061171d929190612a4d565b508888826007019190611731929190612a4d565b50868160030160046101000a81548173ffffffffffffffffffffffffffffffffffffffff021916908373ffffffffffffffffffffffffffffffffffffffff160217905550338160040160006101000a81548173ffffffffffffffffffffffffffffffffffffffff021916908373ffffffffffffffffffffffffffffffffffffffff160217905550600960008260040160009054906101000a900473ffffffffffffffffffffffffffffffffffffffff1673ffffffffffffffffffffffffffffffffffffffff1673ffffffffffffffffffffffffffffffffffffffff1681526020019081526020016000208290806001815401808255809150506001900390600052602060002001600090919091909150553373ffffffffffffffffffffffffffffffffffffffff167f23a574744299f6d7840c73914637acbc1340419b257011bbf94e0f48e158e8ca876040516118889190613530565b60405180910390a25050505050505050505050565b6118a56129a1565b60086000838152602001908152602001600020604051806101800160405290816000820154815260200160018201548152602001600282015481526020016003820160009054906101000a900460ff1660ff1660ff1681526020016003820160019054906101000a900460ff161515151581526020016003820160029054906101000a900460ff161515151581526020016003820160039054906101000a900460ff161515151581526020016003820160049054906101000a900473ffffffffffffffffffffffffffffffffffffffff1673ffffffffffffffffffffffffffffffffffffffff1673ffffffffffffffffffffffffffffffffffffffff1681526020016004820160009054906101000a900473ffffffffffffffffffffffffffffffffffffffff1673ffffffffffffffffffffffffffffffffffffffff1673ffffffffffffffffffffffffffffffffffffffff1681526020016005820160009054906101000a900473ffffffffffffffffffffffffffffffffffffffff1673ffffffffffffffffffffffffffffffffffffffff1673ffffffffffffffffffffffffffffffffffffffff168152602001600682018054611a62906138a5565b80601f0160208091040260200160405190810160405280929190818152602001828054611a8e906138a5565b8015611adb5780601f10611ab057610100808354040283529160200191611adb565b820191906000526020600020905b815481529060010190602001808311611abe57829003601f168201915b50505050508152602001600782018054611af4906138a5565b80601f0160208091040260200160405190810160405280929190818152602001828054611b20906138a5565b8015611b6d5780601f10611b4257610100808354040283529160200191611b6d565b820191906000526020600020905b815481529060010190602001808311611b5057829003601f168201915b5050505050815250509050919050565b6000611b9a600260008481526020019081526020016000206121f0565b9050919050565b604051806060016040528060218152602001613bd160219139611be47f5ff1fb0ce9089603e6e193667ed17164e0360a6148f4a39fc194055588948a31336113f5565b8190611c26576040517f08c379a0000000000000000000000000000000000000000000000000000000008152600401611c1d919061344c565b60405180910390fd5b50611c517fffa60083152bd11704a80cc8c7a409dad8aa74288b454a3ba0e94c0abc7cf16883612205565b5050565b6000611c817fffa60083152bd11704a80cc8c7a409dad8aa74288b454a3ba0e94c0abc7cf168336113f5565b905090565b611c8f8261075e565b611c9881611e65565b611ca28383611e31565b505050565b611cb182826113f5565b611d8357600180600084815260200190815260200160002060000160008373ffffffffffffffffffffffffffffffffffffffff1673ffffffffffffffffffffffffffffffffffffffff16815260200190815260200160002060006101000a81548160ff021916908315150217905550611d28611ead565b73ffffffffffffffffffffffffffffffffffffffff168173ffffffffffffffffffffffffffffffffffffffff16837f2f8788117e7eff1d82e926ec794901d17c78024a50270940304540a733656f0d60405160405180910390a45b5050565b6000611daf836000018373ffffffffffffffffffffffffffffffffffffffff1660001b612213565b905092915050565b60007f7965db0b000000000000000000000000000000000000000000000000000000007bffffffffffffffffffffffffffffffffffffffffffffffffffffffff1916827bffffffffffffffffffffffffffffffffffffffffffffffffffffffff19161480611e2a5750611e2982612283565b5b9050919050565b611e3b82826122ed565b611e6081600260008581526020019081526020016000206123cf90919063ffffffff16565b505050565b611e7681611e71611ead565b6123ff565b50565b611e838282611ca7565b611ea88160026000858152602001908152602001600020611d8790919063ffffffff16565b505050565b600033905090565b8060030160019054906101000a900460ff1680611ee057508060030160039054906101000a900460ff165b15611f20576040517f08c379a0000000000000000000000000000000000000000000000000000000008152600401611f17906134ce565b60405180910390fd5b60018160030160016101000a81548160ff02191690831515021790555050565b8060030160039054906101000a900460ff1615611f92576040517f08c379a0000000000000000000000000000000000000000000000000000000008152600401611f89906134ae565b60405180910390fd5b8060030160029054906101000a900460ff16611fe3576040517f08c379a0000000000000000000000000000000000000000000000000000000008152600401611fda9061346e565b60405180910390fd5b60018160030160036101000a81548160ff021916908315150217905550338160050160006101000a81548173ffffffffffffffffffffffffffffffffffffffff021916908373ffffffffffffffffffffffffffffffffffffffff1602179055508060010154600660008282546120599190613691565b925050819055508060030160049054906101000a900473ffffffffffffffffffffffffffffffffffffffff1673ffffffffffffffffffffffffffffffffffffffff163373ffffffffffffffffffffffffffffffffffffffff167ffdb2bc0ebc2e58404f3ad5b20d3ec351f2b7b7bf6a21e18beaa7d296d2f01ba583600101546040516120e59190613530565b60405180910390a36000600760009054906101000a900473ffffffffffffffffffffffffffffffffffffffff1673ffffffffffffffffffffffffffffffffffffffff1663a9059cbb8360030160049054906101000a900473ffffffffffffffffffffffffffffffffffffffff1684600101546040518363ffffffff1660e01b81526004016121749291906133a9565b602060405180830381600087803b15801561218e57600080fd5b505af11580156121a2573d6000803e3d6000fd5b505050506040513d601f19601f820116820180604052508101906121c69190612bf6565b9050806121d257600080fd5b5050565b60006121e5836000018361249c565b60001c905092915050565b60006121fe826000016124ed565b9050919050565b61220f8282611e79565b5050565b600061221f83836124fe565b61227857826000018290806001815401808255809150506001900390600052602060002001600090919091909150558260000180549050836001016000848152602001908152602001600020819055506001905061227d565b600090505b92915050565b60007f01ffc9a7000000000000000000000000000000000000000000000000000000007bffffffffffffffffffffffffffffffffffffffffffffffffffffffff1916827bffffffffffffffffffffffffffffffffffffffffffffffffffffffff1916149050919050565b6122f782826113f5565b156123cb5760006001600084815260200190815260200160002060000160008373ffffffffffffffffffffffffffffffffffffffff1673ffffffffffffffffffffffffffffffffffffffff16815260200190815260200160002060006101000a81548160ff021916908315150217905550612370611ead565b73ffffffffffffffffffffffffffffffffffffffff168173ffffffffffffffffffffffffffffffffffffffff16837ff6391f5c32d9c69d2a47ea670b442974b53935d1edc7fd64eb21e047a839171b60405160405180910390a45b5050565b60006123f7836000018373ffffffffffffffffffffffffffffffffffffffff1660001b612521565b905092915050565b61240982826113f5565b6124985761242e8173ffffffffffffffffffffffffffffffffffffffff1660146126a7565b61243c8360001c60206126a7565b60405160200161244d929190613354565b6040516020818303038152906040526040517f08c379a000000000000000000000000000000000000000000000000000000000815260040161248f919061344c565b60405180910390fd5b5050565b60008260000182815481106124da577f4e487b7100000000000000000000000000000000000000000000000000000000600052603260045260246000fd5b9060005260206000200154905092915050565b600081600001805490509050919050565b600080836001016000848152602001908152602001600020541415905092915050565b6000808360010160008481526020019081526020016000205490506000811461269b5760006001826125539190613741565b905060006001866000018054905061256b9190613741565b90508181146126265760008660000182815481106125b2577f4e487b7100000000000000000000000000000000000000000000000000000000600052603260045260246000fd5b90600052602060002001549050808760000184815481106125fc577f4e487b7100000000000000000000000000000000000000000000000000000000600052603260045260246000fd5b90600052602060002001819055508387600101600083815260200190815260200160002081905550505b85600001805480612660577f4e487b7100000000000000000000000000000000000000000000000000000000600052603160045260246000fd5b6001900381819060005260206000200160009055905585600101600086815260200190815260200160002060009055600193505050506126a1565b60009150505b92915050565b6060600060028360026126ba91906136e7565b6126c49190613691565b67ffffffffffffffff811115612703577f4e487b7100000000000000000000000000000000000000000000000000000000600052604160045260246000fd5b6040519080825280601f01601f1916602001820160405280156127355781602001600182028036833780820191505090505b5090507f300000000000000000000000000000000000000000000000000000000000000081600081518110612793577f4e487b7100000000000000000000000000000000000000000000000000000000600052603260045260246000fd5b60200101907effffffffffffffffffffffffffffffffffffffffffffffffffffffffffffff1916908160001a9053507f78000000000000000000000000000000000000000000000000000000000000008160018151811061281d577f4e487b7100000000000000000000000000000000000000000000000000000000600052603260045260246000fd5b60200101907effffffffffffffffffffffffffffffffffffffffffffffffffffffffffffff1916908160001a9053506000600184600261285d91906136e7565b6128679190613691565b90505b6001811115612953577f3031323334353637383961626364656600000000000000000000000000000000600f8616601081106128cf577f4e487b7100000000000000000000000000000000000000000000000000000000600052603260045260246000fd5b1a60f81b82828151811061290c577f4e487b7100000000000000000000000000000000000000000000000000000000600052603260045260246000fd5b60200101907effffffffffffffffffffffffffffffffffffffffffffffffffffffffffffff1916908160001a905350600485901c94508061294c9061387b565b905061286a565b5060008414612997576040517f08c379a000000000000000000000000000000000000000000000000000000000815260040161298e9061348e565b60405180910390fd5b8091505092915050565b604051806101800160405280600081526020016000815260200160008152602001600060ff168152602001600015158152602001600015158152602001600015158152602001600073ffffffffffffffffffffffffffffffffffffffff168152602001600073ffffffffffffffffffffffffffffffffffffffff168152602001600073ffffffffffffffffffffffffffffffffffffffff16815260200160608152602001606081525090565b828054612a59906138a5565b90600052602060002090601f016020900481019282612a7b5760008555612ac2565b82601f10612a9457803560ff1916838001178555612ac2565b82800160010185558215612ac2579182015b82811115612ac1578235825591602001919060010190612aa6565b5b509050612acf9190612ad3565b5090565b5b80821115612aec576000816000905550600101612ad4565b5090565b600081359050612aff81613b46565b92915050565b600081359050612b1481613b5d565b92915050565b600081519050612b2981613b5d565b92915050565b600081359050612b3e81613b74565b92915050565b600081359050612b5381613b8b565b92915050565b60008083601f840112612b6b57600080fd5b8235905067ffffffffffffffff811115612b8457600080fd5b602083019150836001820283011115612b9c57600080fd5b9250929050565b600081359050612bb281613ba2565b92915050565b600081359050612bc781613bb9565b92915050565b600060208284031215612bdf57600080fd5b6000612bed84828501612af0565b91505092915050565b600060208284031215612c0857600080fd5b6000612c1684828501612b1a565b91505092915050565b600060208284031215612c3157600080fd5b6000612c3f84828501612b2f565b91505092915050565b60008060408385031215612c5b57600080fd5b6000612c6985828601612b2f565b9250506020612c7a85828601612af0565b9150509250929050565b60008060408385031215612c9757600080fd5b6000612ca585828601612b2f565b9250506020612cb685828601612ba3565b9150509250929050565b600060208284031215612cd257600080fd5b6000612ce084828501612b44565b91505092915050565b60008060008060008060008060c0898b031215612d0557600080fd5b600089013567ffffffffffffffff811115612d1f57600080fd5b612d2b8b828c01612b59565b9850985050602089013567ffffffffffffffff811115612d4a57600080fd5b612d568b828c01612b59565b96509650506040612d698b828c01612af0565b9450506060612d7a8b828c01612ba3565b9350506080612d8b8b828c01612ba3565b92505060a0612d9c8b828c01612bb8565b9150509295985092959890939650565b600060208284031215612dbe57600080fd5b6000612dcc84828501612ba3565b91505092915050565b60008060408385031215612de857600080fd5b6000612df685828601612ba3565b9250506020612e0785828601612b05565b9150509250929050565b6000612e1d8383612e5b565b60208301905092915050565b6000612e358383613111565b905092915050565b612e4681613812565b82525050565b612e5581613787565b82525050565b612e6481613775565b82525050565b612e7381613775565b82525050565b6000612e8482613607565b612e8e8185613642565b9350612e99836135e7565b8060005b83811015612eca578151612eb18882612e11565b9750612ebc83613628565b925050600181019050612e9d565b5085935050505092915050565b6000612ee282613612565b612eec8185613653565b935083602082028501612efe856135f7565b8060005b85811015612f3a5784840389528151612f1b8582612e29565b9450612f2683613635565b925060208a01995050600181019050612f02565b50829750879550505050505092915050565b612f5581613799565b82525050565b612f6481613799565b82525050565b612f73816137a5565b82525050565b6000612f848261361d565b612f8e8185613664565b9350612f9e818560208601613848565b612fa78161397e565b840191505092915050565b6000612fbd8261361d565b612fc78185613675565b9350612fd7818560208601613848565b612fe08161397e565b840191505092915050565b6000612ff68261361d565b6130008185613686565b9350613010818560208601613848565b80840191505092915050565b6000613029602d83613675565b91506130348261398f565b604082019050919050565b600061304c602083613675565b9150613057826139de565b602082019050919050565b600061306f602b83613675565b915061307a82613a07565b604082019050919050565b6000613092603083613675565b915061309d82613a56565b604082019050919050565b60006130b5601783613686565b91506130c082613aa5565b601782019050919050565b60006130d8601183613686565b91506130e382613ace565b601182019050919050565b60006130fb602f83613675565b915061310682613af7565b604082019050919050565b60006101808301600083015161312a6000860182613327565b50602083015161313d6020860182613327565b5060408301516131506040860182613327565b5060608301516131636060860182613345565b5060808301516131766080860182612f4c565b5060a083015161318960a0860182612f4c565b5060c083015161319c60c0860182612f4c565b5060e08301516131af60e0860182612e4c565b506101008301516131c4610100860182612e5b565b506101208301516131d9610120860182612e5b565b506101408301518482036101408601526131f38282612f79565b91505061016083015184820361016086015261320f8282612f79565b9150508091505092915050565b6000610180830160008301516132356000860182613327565b5060208301516132486020860182613327565b50604083015161325b6040860182613327565b50606083015161326e6060860182613345565b5060808301516132816080860182612f4c565b5060a083015161329460a0860182612f4c565b5060c08301516132a760c0860182612f4c565b5060e08301516132ba60e0860182612e4c565b506101008301516132cf610100860182612e5b565b506101208301516132e4610120860182612e5b565b506101408301518482036101408601526132fe8282612f79565b91505061016083015184820361016086015261331a8282612f79565b9150508091505092915050565b613330816137fb565b82525050565b61333f816137fb565b82525050565b61334e81613805565b82525050565b600061335f826130a8565b915061336b8285612feb565b9150613376826130cb565b91506133828284612feb565b91508190509392505050565b60006020820190506133a36000830184612e6a565b92915050565b60006040820190506133be6000830185612e3d565b6133cb6020830184613336565b9392505050565b600060208201905081810360008301526133ec8184612e79565b905092915050565b6000602082019050818103600083015261340e8184612ed7565b905092915050565b600060208201905061342b6000830184612f5b565b92915050565b60006020820190506134466000830184612f6a565b92915050565b600060208201905081810360008301526134668184612fb2565b905092915050565b600060208201905081810360008301526134878161301c565b9050919050565b600060208201905081810360008301526134a78161303f565b9050919050565b600060208201905081810360008301526134c781613062565b9050919050565b600060208201905081810360008301526134e781613085565b9050919050565b60006020820190508181036000830152613507816130ee565b9050919050565b60006020820190508181036000830152613528818461321c565b905092915050565b60006020820190506135456000830184613336565b92915050565b600061014082019050613561600083018d613336565b61356e602083018c613336565b61357b604083018b613336565b613588606083018a613336565b6135956080830189613336565b6135a260a0830188613336565b6135af60c0830187613336565b6135bc60e0830186613336565b6135ca610100830185613336565b6135d8610120830184613336565b9b9a5050505050505050505050565b6000819050602082019050919050565b6000819050602082019050919050565b600081519050919050565b600081519050919050565b600081519050919050565b6000602082019050919050565b6000602082019050919050565b600082825260208201905092915050565b600082825260208201905092915050565b600082825260208201905092915050565b600082825260208201905092915050565b600081905092915050565b600061369c826137fb565b91506136a7836137fb565b9250827fffffffffffffffffffffffffffffffffffffffffffffffffffffffffffffffff038211156136dc576136db613920565b5b828201905092915050565b60006136f2826137fb565b91506136fd836137fb565b9250817fffffffffffffffffffffffffffffffffffffffffffffffffffffffffffffffff048311821515161561373657613735613920565b5b828202905092915050565b600061374c826137fb565b9150613757836137fb565b92508282101561376a57613769613920565b5b828203905092915050565b6000613780826137db565b9050919050565b6000613792826137db565b9050919050565b60008115159050919050565b6000819050919050565b60007fffffffff0000000000000000000000000000000000000000000000000000000082169050919050565b600073ffffffffffffffffffffffffffffffffffffffff82169050919050565b6000819050919050565b600060ff82169050919050565b600061381d82613824565b9050919050565b600061382f82613836565b9050919050565b6000613841826137db565b9050919050565b60005b8381101561386657808201518184015260208101905061384b565b83811115613875576000848401525b50505050565b6000613886826137fb565b9150600082141561389a57613899613920565b5b600182039050919050565b600060028204905060018216806138bd57607f821691505b602082108114156138d1576138d061394f565b5b50919050565b60006138e2826137fb565b91507fffffffffffffffffffffffffffffffffffffffffffffffffffffffffffffffff82141561391557613914613920565b5b600182019050919050565b7f4e487b7100000000000000000000000000000000000000000000000000000000600052601160045260246000fd5b7f4e487b7100000000000000000000000000000000000000000000000000000000600052602260045260246000fd5b6000601f19601f8301169050919050565b7f5265696d62757273656d656e74207265717565737420686173206265656e206460008201527f656e69656420616c726561647900000000000000000000000000000000000000602082015250565b7f537472696e67733a20686578206c656e67746820696e73756666696369656e74600082015250565b7f5265696d62757273656d656e74207265717565737420686173206265656e207060008201527f61696420616c7265616479000000000000000000000000000000000000000000602082015250565b7f5265696d62757273656d656e74207265717565737420686173206265656e207060008201527f726f63657373656420616c726561647900000000000000000000000000000000602082015250565b7f416363657373436f6e74726f6c3a206163636f756e7420000000000000000000600082015250565b7f206973206d697373696e6720726f6c6520000000000000000000000000000000600082015250565b7f416363657373436f6e74726f6c3a2063616e206f6e6c792072656e6f756e636560008201527f20726f6c657320666f722073656c660000000000000000000000000000000000602082015250565b613b4f81613775565b8114613b5a57600080fd5b50565b613b6681613799565b8114613b7157600080fd5b50565b613b7d816137a5565b8114613b8857600080fd5b50565b613b94816137af565b8114613b9f57600080fd5b50565b613bab816137fb565b8114613bb657600080fd5b50565b613bc281613805565b8114613bcd57600080fd5b5056fe4f6e6c7920617070726f7665722063616e20616464206e6577206d656d626572734f6e6c7920617070726f766572732061726520616c6c6f77656420746f2070726f636573732072657175657374734f6e6c79206d656d626572732061726520616c6c6f77656420746f20637265617465207265717565737473a26469706673582212207d2b43bc4909dae151fac20641eb2eda4ba4b460ef17f07b4f553f52600810e864736f6c63430008040033",
  "linkReferences": {},
  "deployedLinkReferences": {}
}