{
  "address": "0x8D2e2B18211F102547FFA6D40Da4A757922e1723",
  "abi": [
    {
      "anonymous": false,
      "inputs": [
        {
          "indexed": true,
          "internalType": "contract ExpenseDAO",
          "name": "organization",
          "type": "address"
        },
        {
          "indexed": true,
          "internalType": "address",
          "name": "createdBy",
          "type": "address"
        },
        {
          "indexed": false,
          "internalType": "string",
          "name": "name",
          "type": "string"
        }
      ],
      "name": "NewOrganizationRegistered",
      "type": "event"
    },
    {
      "inputs": [
        {
          "internalType": "string",
          "name": "",
          "type": "string"
        }
      ],
      "name": "organizations",
      "outputs": [
        {
          "internalType": "address",
          "name": "",
          "type": "address"
        }
      ],
      "stateMutability": "view",
      "type": "function"
    },
    {
      "inputs": [
        {
          "internalType": "string",
          "name": "name",
          "type": "string"
        },
        {
          "internalType": "contract ExpenseDAO",
          "name": "newOrganization",
          "type": "address"
        },
        {
          "internalType": "address",
          "name": "createdBy",
          "type": "address"
        }
      ],
      "name": "register",
      "outputs": [],
      "stateMutability": "nonpayable",
      "type": "function"
    }
  ],
  "transactionHash": "0xfdef9f88ade1dd4b780901c1fcb40759d749ad02bfd5fdb6d7bd181cc4e5af57",
  "args": [],
  "numDeployments": 7,
  "solcInputHash": "8e0228cfd5ec356df8a4c2c9da3b6fef",
  "bytecode": "0x608060405234801561001057600080fd5b506106a5806100206000396000f3fe608060405234801561001057600080fd5b50600436106100365760003560e01c80637915c0691461003b578063e311f43c14610057575b600080fd5b61005560048036038101906100509190610327565b610087565b005b610071600480360381019061006c9190610393565b610202565b60405161007e9190610471565b60405180910390f35b600073ffffffffffffffffffffffffffffffffffffffff16600085856040516100b1929190610458565b908152602001604051809103902060009054906101000a900473ffffffffffffffffffffffffffffffffffffffff1673ffffffffffffffffffffffffffffffffffffffff1614610136576040517f08c379a000000000000000000000000000000000000000000000000000000000815260040161012d906104b0565b60405180910390fd5b8160008585604051610149929190610458565b908152602001604051809103902060006101000a81548173ffffffffffffffffffffffffffffffffffffffff021916908373ffffffffffffffffffffffffffffffffffffffff1602179055508073ffffffffffffffffffffffffffffffffffffffff168273ffffffffffffffffffffffffffffffffffffffff167f4e9a6562e916f5e5fe52a50e7009b70ee9d560d22161c7eb90340b9e9d13533b86866040516101f492919061048c565b60405180910390a350505050565b6000818051602081018201805184825260208301602085012081835280955050505050506000915054906101000a900473ffffffffffffffffffffffffffffffffffffffff1681565b600061025e610259846104f5565b6104d0565b90508281526020810184848401111561027657600080fd5b610281848285610598565b509392505050565b60008135905061029881610641565b92915050565b6000813590506102ad81610658565b92915050565b60008083601f8401126102c557600080fd5b8235905067ffffffffffffffff8111156102de57600080fd5b6020830191508360018202830111156102f657600080fd5b9250929050565b600082601f83011261030e57600080fd5b813561031e84826020860161024b565b91505092915050565b6000806000806060858703121561033d57600080fd5b600085013567ffffffffffffffff81111561035757600080fd5b610363878288016102b3565b945094505060206103768782880161029e565b925050604061038787828801610289565b91505092959194509250565b6000602082840312156103a557600080fd5b600082013567ffffffffffffffff8111156103bf57600080fd5b6103cb848285016102fd565b91505092915050565b6103dd81610542565b82525050565b60006103ef8385610526565b93506103fc838584610598565b61040583610607565b840190509392505050565b600061041c8385610537565b9350610429838584610598565b82840190509392505050565b6000610442601383610526565b915061044d82610618565b602082019050919050565b6000610465828486610410565b91508190509392505050565b600060208201905061048660008301846103d4565b92915050565b600060208201905081810360008301526104a78184866103e3565b90509392505050565b600060208201905081810360008301526104c981610435565b9050919050565b60006104da6104eb565b90506104e682826105a7565b919050565b6000604051905090565b600067ffffffffffffffff8211156105105761050f6105d8565b5b61051982610607565b9050602081019050919050565b600082825260208201905092915050565b600081905092915050565b600061054d82610578565b9050919050565b600061055f82610578565b9050919050565b600061057182610554565b9050919050565b600073ffffffffffffffffffffffffffffffffffffffff82169050919050565b82818337600083830152505050565b6105b082610607565b810181811067ffffffffffffffff821117156105cf576105ce6105d8565b5b80604052505050565b7f4e487b7100000000000000000000000000000000000000000000000000000000600052604160045260246000fd5b6000601f19601f8301169050919050565b7f4e616d6520616c726561647920696e2075736500000000000000000000000000600082015250565b61064a81610542565b811461065557600080fd5b50565b61066181610566565b811461066c57600080fd5b5056fea2646970667358221220be62b31b55f883506e1415ec5099fe56d13e51ec88021424e7d1af53d863fa4b64736f6c63430008040033",
  "devdoc": {
    "kind": "dev",
    "methods": {},
    "version": 1
  },
  "userdoc": {
    "kind": "user",
    "methods": {},
    "version": 1
  },
  "storageLayout": {
    "storage": [
      {
        "astId": 2423,
        "contract": "contracts/Registry.sol:Registry",
        "label": "organizations",
        "offset": 0,
        "slot": "0",
        "type": "t_mapping(t_string_memory_ptr,t_address)"
      }
    ],
    "types": {
      "t_address": {
        "encoding": "inplace",
        "label": "address",
        "numberOfBytes": "20"
      },
      "t_mapping(t_string_memory_ptr,t_address)": {
        "encoding": "mapping",
        "key": "t_string_memory_ptr",
        "label": "mapping(string => address)",
        "numberOfBytes": "32",
        "value": "t_address"
      },
      "t_string_memory_ptr": {
        "encoding": "bytes",
        "label": "string",
        "numberOfBytes": "32"
      }
    }
  }
}